:020000040800F2
:1000000000000220AD130008C1120008C71200084A
:10001000CD120008D3120008D91200080000000019
:10002000000000000000000000000000414C00083B
:10003000DF12000800000000914E0008ED120008D9
:10004000FD130008FD130008FD130008FD13000850
:10005000FD130008FD130008FD130008FD13000840
:10006000FD130008FD130008FD130008FD13000830
:10007000FD130008FD130008FD130008FD13000820
:10008000FD130008FD130008FD130008FD13000810
:10009000FD130008FD130008FD130008FD13000800
:1000A000FD130008FD130008FD130008FD130008F0
:1000B000FD130008FD130008FD130008FD130008E0
:1000C000FD130008FD130008FD130008FD130008D0
:1000D000FD130008FD130008FD13000809130008B4
:1000E000FD130008FD130008FD130008FD130008B0
:1000F000FD130008FD130008FD130008FD130008A0
:10010000FD130008FD130008FD130008FD1300088F
:10011000FD130008FD130008FD130008FD1300087F
:10012000FD130008FD130008FD130008FD1300086F
:10013000FD130008FD130008FD130008FD1300085F
:10014000FD130008FD130008FD130008FD1300084F
:10015000FD130008FD130008FD130008FD1300083F
:10016000FD130008FD130008FD130008FD1300082F
:10017000FD130008FD130008FD1300080000000037
:08018000FD130008FD13000847
:1001900010B5054C237833B9044B13B10448AFF3C1
:1001A00000800123237010BD7400002000000000B7
:1001B000AC7B000808B5034B1BB103490348AFF300
:1001C000008008BD0000000078000020AC7B000823
:1001D00001F0FF01102A2BDB10F0070F08D010F8F8
:1001E000013B013A8B422DD010F0070F42B3F6D1FC
:1001F000F0B441EA012141EA014122F007047FF015
:1002000000070023F0E80256083C85EA010586EA6B
:10021000010685FA47F5A3FA87F586FA47F6A5FAA7
:1002200087F68EB9EED1F0BC01F0FF0102F00702B3
:1002300032B110F8013B013A83EA010313B1F8D15E
:100240000020704701387047002D06BF354603383F
:10025000073815F0010F07D1013015F4807F02BF78
:10026000013015F4C03F0130F0BC0138704700BFC9
:1002700053B94AB9002908BF00281CBF4FF0FF310D
:100280004FF0FF3000F06EB9ADF1080C6DE904CE0F
:1002900000F006F8DDF804E0DDE9022304B0704761
:1002A0002DE9F047089D04468C46002B40F08380E2
:1002B0008A42174647D9B2FA82F242B1C2F120000F
:1002C00024FA00F09140974040EA010C94404FEA34
:1002D0001748230CBCFBF8F61FFA87FE08FB16C173
:1002E00043EA014306FB0EF1994209D9FB1806F1D6
:1002F000FF3080F01981994240F21681023E3B4462
:100300005B1AA4B2B3FBF8F008FB103344EA0344D1
:1003100000FB0EFEA64509D93C1900F1FF3380F021
:100320000581A64540F2028102383C4440EA06407D
:10033000A4EB0E0400261DB1D4400023C5E9004300
:100340003146BDE8F08702B9FFDEB2FA82F2002A38
:1003500050D1CB1B4FEA174E1FFA87F80126B3FB8B
:10036000FEFC210C0EFB1C3341EA034108FB0CF39D
:100370008B4207D979180CF1FF3002D28B4200F280
:10038000E9808446C91AA3B2B1FBFEF00EFB10113E
:1003900043EA014408FB00F8A04507D93C1900F1E5
:1003A000FF3302D2A04500F2D9801846A4EB08041E
:1003B00040EA0C40BFE78B4209D9002D00F0B18024
:1003C0000026C5E9000130463146BDE8F087B3FAA2
:1003D00083F6002E4AD18B4202D3824200F2B880CB
:1003E000841A61EB030101208C46002DA8D0C5E9D9
:1003F000004CA5E7C2F1200320FA03F6974001FA6A
:1004000002F04FEA174ED9403043030CB1FBFEF621
:100410001FFA87F80EFB161143EA014306FB08F1A9
:10042000994204FA02F409D9FB1806F1FF3C80F066
:100430008D80994240F28A80023E3B445B1A81B231
:10044000B3FBFEF00EFB103341EA034100FB08F35F
:100450008B4207D9791800F1FF3C73D28B4271D9D6
:1004600002383944CB1A40EA064678E7C6F1200C38
:1004700003FA06F422FA0CF31C4320FA0CF701FAF3
:1004800006F34FEA144E21FA0CF11F433B0CB1FB6B
:10049000FEF91FFA84F80EFB191143EA014109FB2A
:1004A00008FA8A4502FA06F200FA06F308D961183A
:1004B00009F1FF3048D28A4546D9A9F10209214401
:1004C000A1EB0A01BFB2B1FBFEF00EFB101147EA2F
:1004D000014700FB08F8B84507D9E71900F1FF31DB
:1004E0002ED2B8452CD90238274440EA0940A7EB60
:1004F0000807A0FB02894F45C64649461AD317D0C4
:100500005DB1B3EB0E0267EB010707FA0CFCF2409A
:100510004CEA0202F740C5E9002700263146BDE853
:10052000F0872E4628460BE70646E9E61846FDE624
:100530004345E5D2B8EB020E69EB04010138DFE771
:100540000846D2E760468DE78146B9E7664675E71B
:1005500030464AE7ACF1020C394413E702383C4418
:1005600024E700BF704700BF80B500AF00F048FF30
:1005700000F054F800F0CAFA00F0F4F900F04AF97B
:1005800000F09CF900F0A8F800F096FA06F022FEC0
:100590000A221449144803F00AF803F025FF134A0D
:1005A0000021134803F06AFF0346124A1360124AFF
:1005B0000021124803F062FF0346114A1360114AFA
:1005C0000021114803F05AFF0346104A1360104AF5
:1005D0000021104803F052FF03460F4A136003F056
:1005E00027FFFEE7D44A0020F8490020507C00088D
:1005F000210C0008AC490020747C00086D0C000838
:100600003C4A0020987C0008510E0008304B002026
:10061000BC7C0008A90E0008404A002080B594B0B8
:1006200000AF07F1200330220021184606F096FEA5
:1006300007F10C0300221A605A609A60DA601A61AE
:100640000023BB60224B1B6C214A43F08053136490
:100650001F4B1B6C03F08053BB60BB6800237B60A7
:100660001C4B1B681B4A43F480431360194B1B68E7
:1006700003F480437B607B6802233B620123FB62BF
:1006800010233B630023BB6307F12003184601F0EE
:10069000E9FA0346002B01D000F05EFC0F23FB605B
:1006A00000233B6100237B610023BB610023FB61CE
:1006B00007F10C030021184601F04CFD0346002B06
:1006C00001D000F049FC00BF5037BD4680BD00BFDF
:1006D000003802400070004080B596B000AF07F1CE
:1006E000480300221A605A609A60DA6007F14003FA
:1006F00000221A605A6007F1240300221A605A602F
:100700009A60DA601A615A619A613B1D20220021C9
:10071000184606F023FE3D4B3D4A1A603B4BA02293
:100720005A603A4B00229A60384B4FF47A72DA6082
:10073000364B00221A61354B00225A61334B80221E
:100740009A61324801F0D6FE0346002B01D000F03A
:1007500003FC4FF48053BB6407F1480319462B4850
:1007600002F0A0F90346002B01D000F0F5FB27486A
:1007700001F00FFF0346002B01D000F0EDFB00233A
:100780003B6400237B6407F1400319461F4802F0D5
:1007900061FD0346002B01D000F0DEFB60237B628D
:1007A0000023BB620023FB6200237B630023BB6347
:1007B0000023FB6307F124030C221946134802F0BF
:1007C000AFF80346002B01D000F0C6FB00237B608E
:1007D0000023BB600023FB6000233B6100237B619F
:1007E0004FF40053BB6100233B623B1D1946074891
:1007F00002F0ACFD0346002B01D000F0ADFB034836
:1008000000F0D4FC00BF5837BD4680BD8C4A0020A4
:100810000000014080B58CB000AF07F10C0324222A
:100820000021184606F09AFD3B1D00221A605A600E
:10083000214B4FF080421A601F4B00225A601E4B22
:1008400000229A601C4B4FF6FF72DA601A4B0022AE
:100850001A61194B00229A610323FB6000233B615C
:1008600001237B610023BB610A23FB6100233B6200
:1008700001237B620023BB620A23FB6207F10C03A6
:1008800019460D4801F0A6FF0346002B01D000F0E9
:1008900063FB00237B600023BB603B1D19460648B9
:1008A00002F0D8FC0346002B01D000F055FB00BF3E
:1008B0003037BD4680BD00BFE84A002080B58CB00F
:1008C00000AF07F10C0324220021184606F046FD74
:1008D0003B1D00221A605A60204B214A1A601F4BB0
:1008E00000225A601D4B00229A601C4B4FF6FF728B
:1008F000DA601A4B00221A61184B00229A61032316
:10090000FB6000233B6101237B610023BB610A2361
:10091000FB6100233B6201237B620023BB620A234D
:10092000FB6207F10C0319460C4801F053FF034624
:10093000002B01D000F010FB00237B600023BB6084
:100940003B1D1946054802F085FC0346002B01D0EB
:1009500000F002FB00BF3037BD4680BD444A002096
:100960000004004080B596B000AF07F148030022B4
:100970001A605A609A60DA6007F1400300221A6038
:100980005A6007F1240300221A605A609A60DA6004
:100990001A615A619A613B1D20220021184606F017
:1009A000DDFC434B434A1A60414B00225A60404BE6
:1009B00000229A603E4B41F61F42DA603C4B002217
:1009C0001A613B4B00225A61394B00229A61384828
:1009D00001F090FD0346002B01D000F0BDFA4FF46A
:1009E0008053BB6407F148031946314802F05AF8B6
:1009F0000346002B01D000F0AFFA2D4801F0C9FDED
:100A00000346002B01D000F0A7FA00233B6400232B
:100A10007B6407F140031946254802F01BFC03469E
:100A2000002B01D000F098FA60237B620023BB62A8
:100A30000023FB6200233B6300237B630023BB6333
:100A40000023FB6307F1240300221946184801F034
:100A500067FF0346002B01D000F07EFA07F1240364
:100A600004221946124801F05BFF0346002B01D017
:100A700000F072FA00237B600023BB600023FB6060
:100A800000233B6100237B614FF40053BB610023D3
:100A90003B623B1D1946064802F058FC0346002BFA
:100AA00001D000F059FA00BF5837BD4680BD00BFE5
:100AB000B04900200004014080B500AF114B124A3C
:100AC0001A60104B4FF4E1325A600E4B00229A60CC
:100AD0000C4B0022DA600B4B00221A61094B0C22EE
:100AE0005A61084B00229A61064B0022DA610548E0
:100AF00002F07EFC0346002B01D000F02DFA00BF6F
:100B000080BD00BFF84900200048004080B58AB091
:100B100000AF07F1140300221A605A609A60DA608D
:100B20001A6100233B61314B1B6B304A43F01003C9
:100B300013632E4B1B6B03F010033B613B690023D7
:100B4000FB602A4B1B6B294A43F001031363274BBD
:100B50001B6B03F00103FB60FB680023BB60234BAE
:100B60001B6B224A43F004031363204B1B6B03F0FF
:100B70000403BB60BB6800237B601C4B1B6B1B4AE0
:100B800043F002031363194B1B6B03F002037B60FA
:100B90007B6800224FF4BC61154801F007F8002281
:100BA0003C21144801F002F84FF4BC637B6101233F
:100BB000BB610023FB6100233B6207F1140319466C
:100BC0000B4800F057FE3C237B610123BB610023EF
:100BD000FB6102233B6207F114031946054800F04C
:100BE00049FE00BF2837BD4680BD00BF0038024027
:100BF000001002400000024080B582B000AF786073
:100C00004FF6FF730A220449044802F03EFC00BF7D
:100C10000837BD4680BD00BFD44A0020F8490020F7
:100C200080B584B000AF78604123FB7307F10F01FA
:100C30004FF6FF7301220B4802F027FCFB7B592B78
:100C400004D8FB7B0133DBB2FB7301E04123FB7370
:100C50004FF48061044800F0C2FF41F2883003F095
:100C60009FFCE3E7F84900200010024080B58CB0FB
:100C700000AF78609423FB849B23BB84FB8CFB85B3
:100C80000023BB8501237B850A237B84012387F80E
:100C900029300021684801F0D5FC0421664801F0A4
:100CA000D1FC0C21654801F0CDFC644B1B68FA8D2A
:100CB0001A6441F2883003F073FCFA8D07F10C03DB
:100CC0005F49184606F052FB07F10C031A461E2135
:100CD0000A2006F04DFA012387F82930BA8D07F172
:100CE0000C035849184606F041FB07F10C031A465D
:100CF00014210A2006F03CFA01220421524800F097
:100D000055FF00220821504800F050FF0122202109
:100D10004D4800F04BFF002210214B4800F046FFE9
:100D200097F82930012B0BD1BA8D7B8C1344BB85EE
:100D3000BB8DB3F5FA6F07D9002387F8293003E09C
:100D4000BA8D7B8CD31ABB853B4B1B68BA8D5A631B
:100D5000394B1B68BA8D9A630A2003F021FCBB8DC6
:100D6000002BC9D10023BB85012387F8293041F22C
:100D7000883003F015FCBA8D07F10C03334918468F
:100D800006F0F4FA07F10C031A4614210A2006F0C3
:100D9000EFF9002204212C4800F008FF012208216D
:100DA000294800F003FF00222021274800F0FEFE22
:100DB00001221021244800F0F9FE97F82930012B78
:100DC0000BD1BA8D7B8C1344BB85BB8DB3F5FA6F09
:100DD00007D9002387F8293003E0BA8D7B8CD31A1A
:100DE000BB85154B1B68BA8D5A63134B1B68BA8DB4
:100DF0009A630A2003F0D4FBBB8D002BC9D10023DA
:100E0000BB85012003F0CCFBFA8DBB8C9A4203D842
:100E1000FA8DFB8C9A4202D27B8D5B427B85FA8DE8
:100E20007B8D1344FB85054B1B68FA8D1A6441F2D8
:100E3000883003F0B5FB40E7B04900208C4A002021
:100E4000F47B0008007C000800000240107C0008D1
:100E500080B588B000AF7860104A07F10C0307CA6C
:100E600003C31A8007F1160300221A605A601A8120
:100E700007F10C030A4A0B49184606F077FA07F106
:100E80000C031A460A210A2006F072F905F0FCFF4D
:100E90004FF47A7003F084FBEAE700BF247C00087B
:100EA000D44A0020207C000880B58CB000AF786068
:100EB0003C21284801F0C6FB264B1B685B6AFB629D
:100EC00000F004FBB86200F001FB0246BB6AD31AD3
:100ED000B3F57A7FF7D91F4B1B685B6A7B621D4BAA
:100EE0001B681B6803F01003102B10D17A6AFB6A91
:100EF0009A4204DAFA6A7B6AD31A3B6217E07B6A89
:100F0000C3F57F43FF33FA6A13443B620FE07A6A0A
:100F1000FB6A9A4204DD7A6AFB6AD31A3B6206E0F6
:100F2000FB6AC3F57F43FF337A6A13443B62094B84
:100F30001B681B6803F01003102B0CBF0123002358
:100F4000DBB2FB83034B1B685B6AFB6200F0BEFAFB
:100F5000B862B8E7E84A002080B400AF72B600BFBC
:100F6000FEE7000080B582B000AF00237B60124B2B
:100F70005B6C114A43F4804353640F4B5B6C03F486
:100F800080437B607B6800233B600B4B1B6C0A4AF1
:100F900043F080531364084B1B6C03F080533B6099
:100FA0003B6800220F216FF0010000F09AFB00BFA8
:100FB0000837BD4680BD00BF0038024080B58AB00A
:100FC00000AF786007F1140300221A605A609A603B
:100FD000DA601A617B681B68234A93420ED10023B2
:100FE0003B61224B5B6C214A43F0010353641F4B6E
:100FF0005B6C03F001033B613B6930E07B681B687D
:101000001B4A93422BD10023FB60184B5B6C174AA1
:1010100043F002035364154B5B6C03F00203FB6067
:10102000FB680023BB60114B1B6B104A43F00403A9
:1010300013630E4B1B6B03F00403BB60BB68C02340
:101040007B610223BB610023FB6100233B6203231E
:101050007B6207F114031946064800F00BFC00BF41
:101060002837BD4680BD00BF000001400038024067
:10107000000401400008024080B58CB000AF7860E9
:1010800007F11C0300221A605A609A60DA601A6144
:101090007B681B68B3F1804F4BD10023BB613F4B92
:1010A0001B6C3E4A43F0010313643C4B1B6C03F082
:1010B0000103BB61BB6900237B61384B1B6B374A63
:1010C00043F001031363354B1B6B03F001037B619A
:1010D0007B6900233B61314B1B6B304A43F00203B9
:1010E00013632E4B1B6B03F002033B613B694FF410
:1010F0000043FB6102233B6200237B620023BB624F
:101100000123FB6207F11C031946254800F0B2FBDE
:101110000823FB6102233B6200237B620023BB6246
:101120000123FB6207F11C0319461E4800F0A2FBD5
:1011300030E07B681B681C4A93422BD10023FB6084
:10114000164B1B6C154A43F002031364134B1B6CC4
:1011500003F00203FB60FB680023BB600F4B1B6BBB
:101160000E4A43F0010313630C4B1B6B03F00103A6
:10117000BB60BB68C023FB6102233B6200237B6230
:101180000023BB620223FB6207F11C0319460448DB
:1011900000F070FB00BF3037BD4680BD0038024014
:1011A00000000240000402400004004080B588B006
:1011B00000AF786007F10C0300221A605A609A6051
:1011C000DA601A617B681B68124A93421ED10023C1
:1011D000BB60114B1B6B104A43F0100313630E4BA3
:1011E0001B6B03F01003BB60BB684FF48043FB60D4
:1011F00002233B6100237B610023BB610123FB6170
:1012000007F10C031946054800F034FB00BF2037F6
:10121000BD4680BD00000140003802400010024081
:1012200080B58AB000AF786007F1140300221A601D
:101230005A609A60DA601A617B681B681D4A9342A3
:1012400034D100233B611C4B1B6C1B4A43F48023AD
:101250001364194B1B6C03F480233B613B6900232F
:10126000FB60154B1B6B144A43F004031363124BD2
:101270001B6B03F00403FB60FB684FF440637B616E
:101280000223BB610023FB6103233B6207237B62D4
:1012900007F114031946094800F0ECFA0022052171
:1012A000272000F01EFA272000F037FA00BF283769
:1012B000BD4680BD004800400038024000080240A2
:1012C00080B400AFFEE780B400AFFEE780B400AFAB
:1012D000FEE780B400AFFEE780B400AFFEE780B465
:1012E00000AF00BFBD465DF8047B704780B500AF1E
:1012F00000F0D8F805F09AF90346012B01D003F06D
:10130000FBFD00BF80BD000080B500AF024802F0C9
:101310007FF900BF80BD00BFF849002080B586B0CE
:1013200000AF7860144A154BD31A7B617B693B612F
:10133000134B1B68002B02D1114B124A1A60104B41
:101340001A687B6813443A699A4207D205F0CEFFC7
:1013500003460C221A604FF0FF3309E0084B1B686C
:10136000FB60074B1A687B681344054A1360FB68EF
:1013700018461837BD4680BD00000220000400005A
:1013800090000020884F002080B400AF064BD3F8B7
:101390008830054A43F47003C2F8883000BFBD4668
:1013A0005DF8047B704700BF00ED00E0DFF834D04B
:1013B0000D480E490E4A002302E0D458C4500433AD
:1013C000C4188C42F9D30B4A0B4C002301E0136084
:1013D0000432A242FBD3FFF7D7FF05F08DFFFFF7E2
:1013E000C3F87047000002200000002074000020B5
:1013F000A087000874000020884F0020FEE700004E
:1014000080B500AF0E4B1B680D4A43F400731360A8
:101410000B4B1B680A4A43F480631360084B1B683C
:10142000074A43F480731360032000F04FF90F2044
:1014300000F008F8FFF796FD0023184680BD00BFB6
:10144000003C024080B582B000AF7860124B1A6851
:10145000124B1B7819464FF47A73B3FBF1F3B2FBCE
:10146000F3F3184600F067F90346002B01D001237F
:101470000EE07B680F2B0AD8002279684FF0FF300E
:1014800000F02FF9064A7B681360002300E0012377
:1014900018460837BD4680BD000000200800002027
:1014A0000400002080B400AF064B1B781A46064BA0
:1014B0001B681344044A136000BFBD465DF8047BFB
:1014C000704700BF08000020344B002080B400AFFC
:1014D000034B1B681846BD465DF8047B704700BF90
:1014E000344B002080B584B000AF7860FFF7EEFF8A
:1014F000B8607B68FB60FB68B3F1FF3F05D00A4B27
:101500001B781A46FB681344FB6000BFFFF7DEFF41
:101510000246BB68D31AFA689A42F7D800BF00BFE8
:101520001037BD4680BD00BF0800002080B485B0E4
:1015300000AF78607B6803F00703FB600C4BDB684F
:10154000BB60BA684FF6FF031340BB60FB681A022A
:10155000BB68134343F0BF6343F40033BB60044AEA
:10156000BB68D36000BF1437BD465DF8047B70478D
:1015700000ED00E080B400AF044BDB681B0A03F011
:1015800007031846BD465DF8047B704700ED00E098
:1015900080B483B000AF0346FB7197F90730002B8E
:1015A0000BDBFB7903F01F02074997F907305B0952
:1015B000012000FA02F241F8232000BF0C37BD469B
:1015C0005DF8047B704700BF00E100E080B483B0A9
:1015D00000AF03463960FB7197F90730002B0ADB37
:1015E0003B68DAB20C4997F907301201D2B20B44CA
:1015F00083F800230AE03B68DAB20849FB7903F07C
:101600000F03043B1201D2B20B441A7600BF0C3711
:10161000BD465DF8047B704700E100E000ED00E0AE
:1016200080B489B000AFF860B9607A60FB6803F0FD
:101630000703FB61FB69C3F10703042B28BF0423E5
:10164000BB61FB690433062B02D9FB69033B00E055
:1016500000237B614FF0FF32BB6902FA03F3DA43E8
:10166000BB681A407B699A404FF0FF317B6901FAF1
:1016700003F3D9437B680B40134318462437BD4618
:101680005DF8047B7047000080B582B000AF7860E1
:101690007B68013BB3F1807F01D301230FE00A4A4D
:1016A0007B68013B53600F214FF0FF30FFF78EFF47
:1016B000054B00229A60044B07221A60002318464B
:1016C0000837BD4680BD00BF10E000E080B582B0A5
:1016D00000AF78607868FFF729FF00BF0837BD4684
:1016E00080BD80B586B000AF0346B9607A60FB73F9
:1016F00000237B61FFF73EFF78617A68B9687869FB
:10170000FFF78EFF024697F90F3011461846FFF794
:101710005DFF00BF1837BD4680BD80B582B000AF09
:101720000346FB7197F907301846FFF731FF00BFFA
:101730000837BD4680BD80B582B000AF786078685C
:10174000FFF7A2FF034618460837BD4680BD80B5A7
:1017500084B000AF78607B689B6DFB60FFF7B6FEDE
:10176000B8607B6893F83530DBB2022B08D07B6819
:1017700080225A657B68002283F83420012352E0DE
:101780007B681B681A687B681B6822F016021A6067
:101790007B681B685A697B681B6822F080025A616B
:1017A0007B681B6C002B03D17B689B6C002B07D0E4
:1017B0007B681B681A687B681B6822F008021A6045
:1017C0007B681B681A687B681B6822F001021A603C
:1017D00013E0FFF77BFE0246BB68D31A052B0CD93A
:1017E0007B6820225A657B68032283F835207B685A
:1017F000002283F83420032315E07B681B681B68F4
:1018000003F00103002BE4D17B68DB6D3F229A409B
:10181000FB689A607B68012283F835207B68002290
:1018200083F83420002318461037BD4680BD80B4AD
:1018300083B000AF78607B6893F83530DBB2022B61
:1018400004D07B6880225A6501230CE07B68052266
:1018500083F835207B681B681A687B681B6822F058
:1018600001021A60002318460C37BD465DF8047B60
:101870007047000080B489B000AF78603960002301
:101880007B6100233B610023BB610023FB616BE1B3
:101890000122FB6902FA03F37B613B681B687A69EA
:1018A00013403B613A697B699A4240F05A813B6838
:1018B0005B6803F00303012B05D03B685B6803F012
:1018C0000303022B30D17B689B68BB61FB695B0023
:1018D000032202FA03F3DB43BA691340BB613B689E
:1018E000DA68FB695B0002FA03F3BA691343BB6170
:1018F0007B68BA699A607B685B68BB610122FB699F
:1019000002FA03F3DB43BA691340BB613B685B68CF
:101910001B0903F00102FB6902FA03F3BA691343DE
:10192000BB617B68BA695A603B685B6803F003037C
:10193000032B17D07B68DB68BB61FB695B0003226C
:1019400002FA03F3DB43BA691340BB613B689A6850
:10195000FB695B0002FA03F3BA691343BB617B685E
:10196000BA69DA603B685B6803F00303022B23D19A
:10197000FB69DA087B68083253F82230BB61FB69E7
:1019800003F007039B000F2202FA03F3DB43BA695B
:101990001340BB613B681A69FB6903F007039B00B6
:1019A00002FA03F3BA691343BB61FB69DA087B6887
:1019B0000832B96943F822107B681B68BB61FB6978
:1019C0005B00032202FA03F3DB43BA691340BB61F5
:1019D0003B685B6803F00302FB695B0002FA03F3F8
:1019E000BA691343BB617B68BA691A603B685B687C
:1019F00003F44033002B00F0B4800023FB60604B05
:101A00005B6C5F4A43F4804353645D4B5B6C03F44F
:101A10008043FB60FB685B4AFB699B08023352F81A
:101A20002330BB61FB6903F003039B000F2202FA22
:101A300003F3DB43BA691340BB617B68524A9342AC
:101A40002BD07B68514A934225D07B68504A934201
:101A50001FD07B684F4A934219D07B684E4A93420D
:101A600013D07B684D4A93420DD07B684C4A934219
:101A700007D07B684B4A934201D107230EE008232D
:101A80000CE006230AE0052308E0042306E0032314
:101A900004E0022302E0012300E00023FA6902F0DF
:101AA000030292009340BA691343BB613549FB6955
:101AB0009B080233BA6941F823203B4B1B68BB618A
:101AC0003B69DB43BA691340BB613B685B6803F465
:101AD0008033002B03D0BA693B691343BB61324AA0
:101AE000BB691360304B5B68BB613B69DB43BA6920
:101AF0001340BB613B685B6803F40033002B03D0E9
:101B0000BA693B691343BB61274ABB695360264BE3
:101B10009B68BB613B69DB43BA691340BB613B68AF
:101B20005B6803F48013002B03D0BA693B6913434D
:101B3000BB611D4ABB6993601B4BDB68BB613B69A2
:101B4000DB43BA691340BB613B685B6803F4001375
:101B5000002B03D0BA693B691343BB61124ABB69CE
:101B6000D360FB690133FB61FB690F2B7FF690AEFD
:101B700000BF00BF2437BD465DF8047B704700BF3F
:101B800000380240003801400000024000040240DA
:101B900000080240000C0240001002400014024005
:101BA00000180240001C0240003C014080B483B099
:101BB00000AF78600B467B8013467B707B78002BF0
:101BC00003D07A887B689A6103E07B881A047B687B
:101BD0009A6100BF0C37BD465DF8047B704780B446
:101BE00085B000AF78600B467B807B685B69FB60EB
:101BF0007A88FB6813401A04FB68D9437B880B4042
:101C00001A437B689A6100BF1437BD465DF8047BB8
:101C10007047000080B483B000AF064B01221A6009
:101C2000054B1B687B607B6800BF0C37BD465DF8C9
:101C3000047B704720000E420070004080B483B0E7
:101C400000AF064B00221A60054B1B687B607B6867
:101C500000BF0C37BD465DF8047B704720000E4284
:101C60000070004080B586B000AF78607B68002BC4
:101C700001D1012364E27B681B6803F00103002BA0
:101C800075D0A34B9B6803F00C03042B0CD0A04B26
:101C90009B6803F00C03082B12D19D4B5B6803F487
:101CA0008003B3F5800F0BD1994B1B6803F400330D
:101CB000002B5BD07B685B68002B57D101233FE290
:101CC0007B685B68B3F5803F06D1914B1B68904AF7
:101CD00043F4803313601DE07B685B68B3F5A02F8D
:101CE0000CD18B4B1B688A4A43F480231360884BCA
:101CF0001B68874A43F4803313600BE0844B1B68F6
:101D0000834A23F480331360814B1B68804A23F499
:101D1000802313607B685B68002B13D0FFF7D6FB32
:101D2000386108E0FFF7D2FB02463B69D31A642B07
:101D300001D9032304E2764B1B6803F40033002B24
:101D4000F0D014E0FFF7C2FB386108E0FFF7BEFBFC
:101D500002463B69D31A642B01D90323F0E16C4B93
:101D60001B6803F40033002BF0D100E000BF7B6858
:101D70001B6803F00203002B63D0654B9B6803F0E4
:101D80000C03002B0BD0624B9B6803F00C03082B59
:101D90001CD15F4B5B6803F48003002B16D15C4BB6
:101DA0001B6803F00203002B05D07B68DB68012B66
:101DB00001D00123C4E1564B1B6823F0F8027B6875
:101DC0001B69DB00524913430B603AE07B68DB6818
:101DD000002B20D04F4B01221A60FFF777FB3861B0
:101DE00008E0FFF773FB02463B69D31A022B01D9C7
:101DF0000323A5E1464B1B6803F00203002BF0D040
:101E0000434B1B6823F0F8027B681B69DB004049E9
:101E100013430B6015E03F4B00221A60FFF756FB9F
:101E2000386108E0FFF752FB02463B69D31A022BE8
:101E300001D9032384E1364B1B6803F00203002B16
:101E4000F0D17B681B6803F00803002B30D07B685F
:101E50005B69002B16D0304B01221A60FFF736FB6E
:101E6000386108E0FFF732FB02463B69D31A022BC8
:101E700001D9032364E1264B5B6F03F00203002BBF
:101E8000F0D015E0244B00221A60FFF71FFB3861E9
:101E900008E0FFF71BFB02463B69D31A022B01D96E
:101EA00003234DE11A4B5B6F03F00203002BF0D1CB
:101EB0007B681B6803F00403002B00F0A080002364
:101EC000FB75134B1B6C03F08053002B0FD10023C9
:101ED000BB600F4B1B6C0E4A43F0805313640C4BDA
:101EE0001B6C03F08053BB60BB680123FB750B4B7D
:101EF0001B6803F48073002B21D1084B1B68074A31
:101F000043F480731360FFF7E1FA386111E000BF1A
:101F10000038024000004742800E474200700040F7
:101F2000FFF7D4FA02463B69D31A022B01D90323E7
:101F300006E1854B1B6803F48073002BF0D07B68AF
:101F40009B68012B06D1814B1B6F804A43F0010334
:101F500013671CE07B689B68052B0CD17B4B1B6FC8
:101F60007A4A43F004031367784B1B6F774A43F0B8
:101F7000010313670BE0754B1B6F744A23F00103D9
:101F80001367724B1B6F714A23F0040313677B685E
:101F90009B68002B15D0FFF799FA38610AE0FFF72C
:101FA00095FA02463B69D31A41F28832934201D92D
:101FB0000323C5E0654B1B6F03F00203002BEED03B
:101FC00014E0FFF783FA38610AE0FFF77FFA024670
:101FD0003B69D31A41F28832934201D90323AFE01F
:101FE0005A4B1B6F03F00203002BEED1FB7D012B3C
:101FF00005D1564B1B6C554A23F0805313647B6804
:102000009B69002B00F09B80504B9B6803F00C03F6
:10201000082B5CD07B689B69022B41D14C4B002282
:102020001A60FFF753FA386108E0FFF74FFA0246EB
:102030003B69D31A022B01D9032381E0434B1B6870
:1020400003F00073002BF0D17B68DA697B681B6AB0
:102050001A437B685B6A9B011A437B689B6A5B0837
:10206000013B1B041A437B68DB6A1B063749134399
:102070004B60374B01221A60FFF728FA386108E0FD
:10208000FFF724FA02463B69D31A022B01D9032336
:1020900056E02E4B1B6803F00073002BF0D04EE08F
:1020A0002B4B00221A60FFF711FA386108E0FFF7A6
:1020B0000DFA02463B69D31A022B01D903233FE0F4
:1020C000224B1B6803F00073002BF0D137E07B68D4
:1020D0009B69012B01D1012332E01C4B5B68FB6043
:1020E0007B689B69012B28D0FB6803F480027B6826
:1020F000DB699A4221D1FB6803F03F027B681B6ACF
:102100009A421AD1FA6847F6C07313407A68526A45
:102110009201934211D1FB6803F440327B689B6AC1
:102120005B08013B1B049A4207D1FB6803F0706215
:102130007B68DB6A1B069A4201D0012300E0002382
:1021400018461837BD4680BD007000400038024078
:102150006000474280B584B000AF786039607B682A
:10216000002B01D10123CCE0684B1B6803F007036F
:102170003A689A420CD9654B3A68D2B21A70634BEE
:102180001B6803F007033A689A4201D00123B8E0C4
:102190007B681B6803F00203002B20D07B681B6860
:1021A00003F00403002B05D0594B9B68584A43F4B5
:1021B000E05393607B681B6803F00803002B05D095
:1021C000534B9B68524A43F460439360504B9B6867
:1021D00023F0F0027B689B684D4913438B607B685A
:1021E0001B6803F00103002B44D07B685B68012B64
:1021F00007D1474B1B6803F40033002B19D101238F
:102200007FE07B685B68022B03D07B685B68032BF5
:1022100007D13F4B1B6803F00073002B09D101234A
:102220006FE03B4B1B6803F00203002B01D101233D
:1022300067E0374B9B6823F003027B685B68344997
:1022400013438B60FFF742F9F8600AE0FFF73EF9AD
:102250000246FB68D31A41F28832934201D9032324
:102260004FE02B4B9B6803F00C027B685B689B0084
:102270009A42EBD1254B1B6803F007033A689A4258
:102280000CD2224B3A68D2B21A70204B1B6803F072
:1022900007033A689A4201D0012332E07B681B6849
:1022A00003F00403002B08D0194B9B6823F4E05281
:1022B0007B68DB68164913438B607B681B6803F0FF
:1022C0000803002B09D0124B9B6823F460427B6803
:1022D0001B69DB000E4913438B6000F021F80246B6
:1022E0000B4B9B681B0903F00F030A49CB5C22FAD6
:1022F00003F3094A1360094B1B681846FFF7A2F85D
:10230000002318461037BD4680BD00BF003C024088
:1023100000380240E07C000800000020040000209B
:10232000B0B584B000AF002179600021F9600021D0
:1023300039600021B9605249896801F00C0108290F
:102340000DD0082900F29480002902D0042903D07E
:102350008EE04C4BBB608EE04B4BBB608BE0484942
:10236000496801F03F0179604549496801F48001FD
:10237000002924D042494968890908464FF00001E4
:1023800040F2FF144FF0000500EA040201EA0503E1
:102390003D4901FB03F0002101FB02F144183A49D9
:1023A000A2FB0101631819467B681A464FF000032F
:1023B000FDF75EFF02460B461346FB604AE0304BDA
:1023C0005B689B091A464FF0000340F2FF104FF084
:1023D000000102EA000403EA0105204629464FF005
:1023E00000024FF000034B0143EAD0634201104664
:1023F0001946001B61EB05014FF000024FF000038E
:102400008B0143EA90638201121A63EB01034FF0E0
:1024100000004FF00001D90041EA5271D00002469D
:102420000B46121945EB03034FF000004FF000017B
:10243000990241EA9251900202460B461046194613
:102440007B681A464FF00003FDF712FF02460B4669
:102450001346FB600A4B5B681B0C03F0030301335C
:102460005B003B60FA683B68B2FBF3F3BB6002E0E1
:10247000044BBB6000BFBB6818461037BD46B0BDFB
:10248000003802400024F40040787D0180B400AFA1
:10249000034B1B681846BD465DF8047B704700BFC0
:1024A0000000002080B500AFFFF7F0FF0246054BAB
:1024B0009B689B0A03F007030349CB5C22FA03F3F2
:1024C000184680BD00380240F07C000880B500AF9F
:1024D000FFF7DCFF0246054B9B685B0B03F007032D
:1024E0000349CB5C22FA03F3184680BD0038024052
:1024F000F07C000880B582B000AF78607B68002B6C
:1025000001D1012341E07B6893F83D30DBB2002B21
:1025100006D17B68002283F83C207868FEF74EFDE8
:102520007B68022283F83D207B681A687B6804334D
:102530001946104600F07EFB7B68012283F8462096
:102540007B68012283F83E207B68012283F83F20CC
:102550007B68012283F840207B68012283F84120B8
:102560007B68012283F842207B68012283F84320A4
:102570007B68012283F844207B68012283F8452090
:102580007B68012283F83D20002318460837BD46AA
:1025900080BD80B582B000AF78607B68002B01D130
:1025A000012341E07B6893F83D30DBB2002B06D17C
:1025B0007B68002283F83C20786800F039F87B685B
:1025C000022283F83D207B681A687B680433194631
:1025D000104600F02FFB7B68012283F846207B68C1
:1025E000012283F83E207B68012283F83F207B682C
:1025F000012283F840207B68012283F841207B6818
:10260000012283F842207B68012283F843207B6803
:10261000012283F844207B68012283F845207B68EF
:10262000012283F83D20002318460837BD4680BDAF
:1026300080B483B000AF786000BF0C37BD465DF852
:10264000047B704780B584B000AF786039603B6828
:10265000002B09D17B6893F83E30DBB2012B14BF0D
:1026600001230023DBB222E03B68042B09D17B6805
:1026700093F83F30DBB2012B14BF01230023DBB200
:1026800015E03B68082B09D17B6893F84030DBB23A
:10269000012B14BF01230023DBB208E07B6893F811
:1026A0004130DBB2012B14BF01230023DBB2002B2E
:1026B00001D001237CE03B68002B04D17B6802221F
:1026C00083F83E2013E03B68042B04D17B68022290
:1026D00083F83F200BE03B68082B04D17B68022283
:1026E00083F8402003E07B68022283F841207B6866
:1026F0001B6801223968184600F086FD7B681B685C
:102700002D4A934204D07B681B682C4A934201D126
:10271000012300E00023002B07D07B681B685A6C64
:102720007B681B6842F400425A647B681B68224A3B
:10273000934222D07B681B68B3F1804F1DD07B6829
:102740001B681F4A934218D07B681B681D4A93423E
:1027500013D07B681B681C4A93420ED07B681B68B1
:10276000164A934209D07B681B68184A934204D0EA
:102770007B681B68164A934211D17B681B689B6873
:1027800003F00703FB60FB68062B10D07B681B6817
:102790001A687B681B6842F001021A6007E07B68D8
:1027A0001B681A687B681B6842F001021A600023EC
:1027B00018461037BD4680BD0000014000040140AE
:1027C0000004004000080040000C004000400140B0
:1027D0000018004080B586B000AF786039607B6833
:1027E000002B01D1012397E07B6893F83D30DBB2E9
:1027F000002B06D17B68002283F83C207868FEF726
:102800003BFC7B68022283F83D207B681B689B6849
:102810007A68126823F4804323F0070393607B688F
:102820001A687B6804331946104600F003FA7B6887
:102830001B689B687B617B681B689B693B617B684D
:102840001B681B6AFB603B681B687A6913437B61EA
:102850003B6923F4407323F003033B613B689A68B0
:102860003B689B691B0213433A6913433B613B6915
:1028700023F4406323F00C033B613B6923F4704372
:1028800023F0F0033B613B68DA683B68DB691B02BD
:1028900013433A6913433B613B681B691A013B6868
:1028A0001B6A1B0313433A6913433B61FB6823F024
:1028B0002203FB60FB6823F08803FB603B685A68D7
:1028C0003B685B691B011343FA681343FB607B6839
:1028D0001B687A699A607B681B683A699A617B68B1
:1028E0001B68FA681A627B68012283F846207B68BD
:1028F000012283F83E207B68012283F83F207B6819
:10290000012283F842207B68012283F843207B6800
:10291000012283F83D20002318461837BD4680BDAC
:1029200080B586B000AFF860B9607A600023FB75AF
:10293000FB6893F83C30012B01D10223AEE0FB6829
:10294000012283F83C207B680C2B00F29F8001A2BF
:1029500052F823F0892900088D2A00088D2A0008E2
:102960008D2A0008C92900088D2A00088D2A000830
:102970008D2A00080B2A00088D2A00088D2A0008DD
:102980008D2A00084B2A0008FB681B68B9681846A6
:1029900000F0F0F9FB681B689A69FB681B6842F05D
:1029A00008029A61FB681B689A69FB681B6822F041
:1029B00004029A61FB681B689969BB681A69FB6825
:1029C0001B680A439A6164E0FB681B68B968184693
:1029D00000F040FAFB681B689A69FB681B6842F4C8
:1029E00000629A61FB681B689A69FB681B6822F4A5
:1029F00080629A61FB681B689969BB681B691A024F
:102A0000FB681B680A439A6143E0FB681B68B9686E
:102A1000184600F095FAFB681B68DA69FB681B68CA
:102A200042F00802DA61FB681B68DA69FB681B6820
:102A300022F00402DA61FB681B68D969BB681A6975
:102A4000FB681B680A43DA6123E0FB681B68B9680E
:102A5000184600F0E9FAFB681B68DA69FB681B6836
:102A600042F40062DA61FB681B68DA69FB681B6884
:102A700022F48062DA61FB681B68D969BB681B6954
:102A80001A02FB681B680A43DA6102E00123FB7546
:102A900000BFFB68002283F83C20FB7D18461837F6
:102AA000BD4680BD80B584B000AF7860396000233A
:102AB000FB737B6893F83C30012B01D10223B4E017
:102AC0007B68012283F83C207B68022283F83D204A
:102AD0007B681B689B68BB60BB6823F07703BB60A7
:102AE000BB6823F47F43BB607B681B68BA689A604D
:102AF0003B681B68B3F5005F3ED0B3F5005F00F2A2
:102B00008780B3F5805F00F08680B3F5805F7FD863
:102B1000702B1AD0702B7BD8602B50D0602B77D8BD
:102B2000502B3CD0502B73D8402B58D0402B6FD813
:102B3000302B64D0302B6BD8202B60D0202B67D863
:102B4000002B5CD0102B5AD062E07B6818683B6881
:102B500099683B685A683B68DB6800F035FB7B6826
:102B60001B689B68BB60BB6843F07703BB607B68F6
:102B70001B68BA689A604FE07B6818683B68996880
:102B80003B685A683B68DB6800F01EFB7B681B688B
:102B90009A687B681B6842F480429A603CE07B68DC
:102BA00018683B6859683B68DB681A4600F092FA7F
:102BB0007B681B685021184600F0EBFA2CE07B681C
:102BC00018683B6859683B68DB681A4600F0B1FA40
:102BD0007B681B686021184600F0DBFA1CE07B680C
:102BE00018683B6859683B68DB681A4600F072FA5F
:102BF0007B681B684021184600F0CBFA0CE07B682C
:102C00001A683B681B681946104600F0C2FA03E0D8
:102C10000123FB7300E000BF7B68012283F83D20A5
:102C20007B68002283F83C20FB7B18461037BD46AA
:102C300080BD000080B485B000AF786039607B68EB
:102C40001B68FB607B68404A934213D07B68B3F1FA
:102C5000804F0FD07B683D4A93420BD07B683C4A43
:102C6000934207D07B683B4A934203D07B683A4A41
:102C7000934208D1FB6823F07003FB603B685B68FC
:102C8000FA681343FB607B682F4A93422BD07B6822
:102C9000B3F1804F27D07B682C4A934223D07B68C6
:102CA0002B4A93421FD07B682A4A93421BD07B68F1
:102CB000294A934217D07B68284A934213D07B68F5
:102CC000274A93420FD07B68264A93420BD07B68F9
:102CD000254A934207D07B68244A934203D07B68FD
:102CE000234A934208D1FB6823F44073FB603B689E
:102CF000DB68FA681343FB60FB6823F080023B68E3
:102D00005B691343FB607B68FA681A603B689A68EA
:102D10007B68DA623B681A687B689A627B680A4A59
:102D2000934203D07B680C4A934203D13B681A69F3
:102D30007B681A637B6801225A6100BF1437BD4665
:102D40005DF8047B704700BF0000014000040040B4
:102D500000080040000C0040000401400040014019
:102D6000004401400048014000180040001C0040A1
:102D70000020004080B487B000AF786039607B6885
:102D80001B6A23F001027B681A627B681B6A7B6105
:102D90007B685B683B617B689B69FB60FB6823F039
:102DA0007003FB60FB6823F00303FB603B681B6858
:102DB000FA681343FB607B6923F002037B613B6885
:102DC0009B687A6913437B617B68204A934203D0F6
:102DD0007B681F4A93420CD17B6923F008037B6117
:102DE0003B68DB687A6913437B617B6923F00403EA
:102DF0007B617B68154A934203D07B68144A9342F7
:102E000011D13B6923F480733B613B6923F4007368
:102E10003B613B685B693A6913433B613B689B6973
:102E20003A6913433B617B683A695A607B68FA6888
:102E30009A613B685A687B685A637B687A691A6250
:102E400000BF1C37BD465DF8047B704700000140A1
:102E50000004014080B487B000AF786039607B68BF
:102E60001B6A23F010027B681A627B681B6A7B6115
:102E70007B685B683B617B689B69FB60FB6823F454
:102E8000E043FB60FB6823F44073FB603B681B6816
:102E90001B02FA681343FB607B6923F020037B610C
:102EA0003B689B681B017A6913437B617B68224AFC
:102EB000934203D07B68214A93420DD17B6923F072
:102EC00080037B613B68DB681B017A6913437B618C
:102ED0007B6923F040037B617B68174A934203D0F0
:102EE0007B68164A934213D13B6923F480633B61AC
:102EF0003B6923F400633B613B685B699B003A6973
:102F000013433B613B689B699B003A6913433B61F8
:102F10007B683A695A607B68FA689A613B685A68CC
:102F20007B689A637B687A691A6200BF1C37BD466A
:102F30005DF8047B704700BF0000014000040140C1
:102F400080B487B000AF786039607B681B6A23F477
:102F500080727B681A627B681B6A7B617B685B6836
:102F60003B617B68DB69FB60FB6823F07003FB60FF
:102F7000FB6823F00303FB603B681B68FA6813439C
:102F8000FB607B6923F400737B613B689B681B02D9
:102F90007A6913437B617B68214A934203D07B6843
:102FA000204A93420DD17B6923F400637B613B6827
:102FB000DB681B027A6913437B617B6923F48063BE
:102FC0007B617B68164A934203D07B68154A934223
:102FD00013D13B6923F480533B613B6923F40053D5
:102FE0003B613B685B691B013A6913433B613B688A
:102FF0009B691B013A6913433B617B683A695A60DC
:103000007B68FA68DA613B685A687B68DA637B68D8
:103010007A691A6200BF1C37BD465DF8047B7047B1
:10302000000001400004014080B487B000AF786028
:1030300039607B681B6A23F480527B681A627B6864
:103040001B6A3B617B685B687B617B68DB69FB605B
:10305000FB6823F4E043FB60FB6823F44073FB60F0
:103060003B681B681B02FA681343FB603B6923F44F
:1030700000533B613B689B681B033A6913433B6108
:103080007B68124A934203D07B68114A934209D16C
:103090007B6923F480437B613B685B699B017A69B0
:1030A00013437B617B687A695A607B68FA68DA61EE
:1030B0003B685A687B681A647B683A691A6200BF89
:1030C0001C37BD465DF8047B704700BF000001401F
:1030D0000004014080B487B000AFF860B9607A6046
:1030E000FB681B6A7B61FB681B6A23F00102FB68BB
:1030F0001A62FB689B693B613B6923F0F0033B610B
:103100007B681B013A6913433B617B6923F00A0327
:103110007B617A69BB6813437B61FB683A699A619A
:10312000FB687A691A6200BF1C37BD465DF8047BF4
:10313000704780B487B000AFF860B9607A60FB6810
:103140001B6A23F01002FB681A62FB689B697B61B3
:10315000FB681B6A3B617B6923F470437B617B687E
:103160001B037A6913437B613B6923F0A0033B6136
:10317000BB681B013A6913433B61FB687A699A613A
:10318000FB683A691A6200BF1C37BD465DF8047BD4
:10319000704780B485B000AF786039607B689B6809
:1031A000FB60FB6823F07003FB603A68FB68134325
:1031B00043F00703FB607B68FA689A6000BF14372E
:1031C000BD465DF8047B704780B487B000AFF860FF
:1031D000B9607A603B60FB689B687B617B6923F424
:1031E0007F437B613B681A027B681A43BB681343C9
:1031F0007A6913437B61FB687A699A6000BF1C3768
:10320000BD465DF8047B704780B487B000AFF860BE
:10321000B9607A60BB6803F01F03012202FA03F36E
:103220007B61FB681A6A7B69DB431A40FB681A62A0
:10323000FB681A6ABB6803F01F03796801FA03F39D
:103240001A43FB681A6200BF1C37BD465DF8047B59
:103250007047000080B485B000AF786039607B684B
:1032600093F83C30012B01D102235AE07B68012204
:1032700083F83C207B68022283F83D207B681B6832
:103280005B68FB607B681B689B68BB60FB6823F026
:103290007003FB603B681B68FA681343FB607B6844
:1032A0001B68FA685A607B681B68214A934222D0E7
:1032B0007B681B68B3F1804F1DD07B681B681D4A7B
:1032C000934218D07B681B681B4A934213D07B68DB
:1032D0001B681A4A93420ED07B681B68184A9342B7
:1032E00009D07B681B68174A934204D07B681B682F
:1032F000154A93420CD1BB6823F08003BB603B6846
:103300005B68BA681343BB607B681B68BA689A60E5
:103310007B68012283F83D207B68002283F83C20F3
:10332000002318461437BD465DF8047B704700BF84
:10333000000001400004004000080040000C004074
:1033400000040140004001400018004080B485B0F6
:1033500000AF786039600023FB607B6893F83C30F5
:10336000012B01D102233DE07B68012283F83C2040
:10337000FB6823F0FF023B68DB681343FB60FB68DC
:1033800023F440723B689B681343FB60FB6823F4A3
:1033900080623B685B681343FB60FB6823F4006258
:1033A0003B681B681343FB60FB6823F480523B6857
:1033B0001B691343FB60FB6823F400523B685B69A5
:1033C0001343FB60FB6823F480423B68DB691343D3
:1033D000FB607B681B68FA685A647B68002283F88C
:1033E0003C20002318461437BD465DF8047B704727
:1033F00080B582B000AF78607B68002B01D10123DB
:103400003FE07B6893F83D30DBB2002B06D17B6850
:10341000002283F83C207868FDF702FF7B682422B5
:1034200083F83D207B681B68DA687B681B6822F4A0
:103430000052DA60786800F0DBFD7B681B681A696F
:103440007B681B6822F490421A617B681B685A698A
:103450007B681B6822F02A025A617B681B68DA6865
:103460007B681B6842F40052DA607B6800221A64B1
:103470007B68202283F83D207B68202283F83E2051
:10348000002318460837BD4680BD80B58AB002AF1C
:10349000F860B9603B601346FB8000237B61FB68EA
:1034A00093F83D30DBB2202B7CD1BB68002B02D0DF
:1034B000FB88002B01D1012375E0FB6893F83C30B9
:1034C000012B01D102236EE0FB68012283F83C202E
:1034D000FB6800221A64FB68212283F83D20FDF777
:1034E000F5FF7861FB68FA889A84FB68FA88DA84C9
:1034F000FB689B68B3F5805F08D1FB681B69002BF4
:1035000004D10023FB61BB68BB6103E0BB68FB61C6
:103510000023BB61FB68002283F83C202AE03B6863
:1035200000937B6900228021F86800F01FFB0346AE
:10353000002B01D0032336E0FB69002B0BD1BB69C4
:103540001B881A46FB681B68C2F308025A60BB69F5
:103550000233BB6107E0FB691A78FB681B685A609D
:10356000FB690133FB61FB68DB8C9BB2013B9AB2C8
:10357000FB68DA84FB68DB8C9BB2002BCFD13B6805
:1035800000937B6900224021F86800F0EFFA0346BF
:10359000002B01D0032306E0FB68202283F83D20A6
:1035A000002300E0022318462037BD4680BD80B5C9
:1035B00084B000AFF860B9601346FB80FB6893F8F5
:1035C0003E30DBB2202B1DD1BB68002B02D0FB8824
:1035D000002B01D1012316E0FB6893F83C30012B4E
:1035E00001D102230FE0FB68012283F83C20FB6835
:1035F00000221A63FB881A46B968F86800F024FBB9
:10360000034600E0022318461037BD4680BD000087
:1036100080B5BAB000AF78607B681B681B68C7F8DC
:10362000E4307B681B68DB68C7F8E0307B681B68A8
:103630005B69C7F8DC300023C7F8D8300023C7F82F
:10364000D430D7F8E43003F00F03C7F8D830D7F8F8
:10365000D830002B0FD1D7F8E43003F02003002B33
:1036600009D0D7F8E03003F02003002B03D07868AE
:1036700000F003FC56E2D7F8D830002B00F0DE80D3
:10368000D7F8DC3003F00103002B06D1D7F8E03087
:1036900003F49073002B00F0D180D7F8E43003F0EE
:1036A0000103002B0BD0D7F8E03003F48073002B1C
:1036B00005D07B681B6C43F001027B681A64D7F865
:1036C000E43003F00403002B0BD0D7F8DC3003F018
:1036D0000103002B05D07B681B6C43F002027B6862
:1036E0001A64D7F8E43003F00203002B0BD0D7F8AC
:1036F000DC3003F00103002B05D07B681B6C43F02A
:1037000004027B681A64D7F8E43003F00803002B46
:1037100011D0D7F8E03003F02003002B05D1D7F803
:10372000DC3003F00103002B05D07B681B6C43F0F9
:1037300008027B681A647B681B6C002B00F0ED812B
:10374000D7F8E43003F02003002B08D0D7F8E0309E
:1037500003F02003002B02D0786800F08EFB7B681A
:103760001B685B6903F04003402B0CBF012300235F
:10377000DBB2C7F8D4307B681B6C03F00803002B66
:1037800003D1D7F8D430002B4FD0786800F096FAE8
:103790007B681B685B6903F04003402B41D17B6869
:1037A0001B681433C7F89C30D7F89C3053E8003FAF
:1037B000C7F89830D7F8983023F04003C7F8D030D6
:1037C0007B681B681433D7F8D020C7F8A820C7F847
:1037D000A430D7F8A410D7F8A82041E80023C7F8F0
:1037E000A030D7F8A030002BD9D17B689B6B002B81
:1037F00013D07B689B6B7D4A1A657B689B6B184670
:10380000FEF715F80346002B16D07B689B6B1B6DEB
:103810007A68926B104698470EE0786800F090F94D
:103820000AE0786800F08CF906E0786800F088F922
:103830007B6800221A6470E100BF6EE17B681B6B3D
:10384000012B40F04A81D7F8E43003F01003002B3D
:1038500000F04381D7F8E03003F01003002B00F0B4
:103860003C810023BB607B681B681B68BB607B6876
:103870001B685B68BB60BB687B681B685B6903F0A7
:103880004003402B40F0B4807B689B6B1B685B68F7
:10389000A7F8BE30B7F8BE30002B00F040817B683F
:1038A0009B8DB7F8BE209A4280F039817B68B7F8CB
:1038B000BE20DA857B689B6BDB69B3F5807F00F007
:1038C00088807B681B680C33C7F88830D7F888304D
:1038D00053E8003FC7F88430D7F8843023F480736E
:1038E000C7F8B8307B681B680C33D7F8B820C7F826
:1038F0009420C7F89030D7F89010D7F8942041E87A
:103900000023C7F88C30D7F88C30002BD9D17B68D6
:103910001B6814337B677B6F53E8003F3B673B6F4B
:1039200023F00103C7F8B4307B681B681433D7F861
:10393000B420C7F88020FB67F96FD7F8802041E8F2
:103940000023BB67BB6F002BE1D17B681B6814337E
:103950003B663B6E53E8003FFB65FB6D23F0400385
:10396000C7F8B0307B681B681433D7F8B020FA660C
:10397000BB66B96EFA6E41E800237B667B6E002B56
:10398000E3D17B68202283F83E207B6800221A6303
:103990007B681B680C33FB64FB6C53E8003FBB6423
:1039A000BB6C23F01003C7F8AC307B681B680C338A
:1039B000D7F8AC20BA657B65796DBA6D41E8002314
:1039C0003B653B6D002BE3D17B689B6B1846FDF795
:1039D000BEFE7B689A8D7B68DB8D9BB2D31A9BB24F
:1039E0001946786800F0B6F899E000BF833D0008FA
:1039F0007B689A8D7B68DB8D9BB2D31AA7F8CE309B
:103A00007B68DB8D9BB2002B00F08B80B7F8CE304B
:103A1000002B00F086807B681B680C33BB63BB6B9C
:103A200053E8003F7B637B6B23F49073C7F8C83087
:103A30007B681B680C33D7F8C8207A643B64396C08
:103A40007A6C41E80023FB63FB6B002BE3D17B68BE
:103A50001B6814337B627B6A53E8003F3B623B6A1E
:103A600023F00103C7F8C4307B681B681433D7F810
:103A7000C4203A63FB62F96A3A6B41E80023BB62F7
:103A8000BB6A002BE3D17B68202283F83E207B6851
:103A900000221A637B681B680C333B613B6953E867
:103AA000003FFB60FB6823F01003C7F8C0307B6861
:103AB0001B680C33D7F8C020FA61BB61B969FA6999
:103AC00041E800237B617B69002BE3D1B7F8CE305E
:103AD0001946786800F03EF823E0D7F8E43003F0A8
:103AE0008003002B09D0D7F8E03003F08003002BCF
:103AF00003D0786800F059F914E0D7F8E43003F007
:103B00004003002B0ED0D7F8E03003F04003002B29
:103B100008D0786800F099F904E000BF02E000BF27
:103B200000E000BFE837BD4680BD00BF80B483B071
:103B300000AF786000BF0C37BD465DF8047B70476E
:103B400080B483B000AF786000BF0C37BD465DF82D
:103B5000047B704780B483B000AF78600B467B80F5
:103B600000BF0C37BD465DF8047B704780B590B050
:103B700000AFF860B9603B601346FB7150E0BB6C6E
:103B8000B3F1FF3F4CD0BB6C002B07D0FDF79EFC80
:103B900002463B68D31ABA6C9A4241D2FB681B6852
:103BA0000C33BB62BB6A53E8003F7B627B6A23F441
:103BB000D073FB63FB681B680C33FA6B7A633B635F
:103BC000396B7A6B41E80023FB62FB6A002BE5D17D
:103BD000FB681B6814337B617B6953E8003F3B61E2
:103BE0003B6923F00103BB63FB681B681433BA6BAA
:103BF0003A62FB61F9693A6A41E80023BB61BB693B
:103C0000002BE5D1FB68202283F83D20FB682022B1
:103C100083F83E20FB68002283F83C2003230FE05A
:103C2000FB681B681A68BB681340BA689A420CBFED
:103C300001230023DBB21A46FB799A429FD000236E
:103C400018464037BD4680BD80B485B000AFF860EF
:103C5000B9601346FB80FB68BA689A62FB68FA8811
:103C60009A85FB68FA88DA85FB6800221A64FB688B
:103C7000222283F83E20FB68002283F83C20FB6868
:103C80001B68DA68FB681B6842F48072DA60FB68C4
:103C90001B685A69FB681B6842F001025A61FB68A5
:103CA0001B68DA68FB681B6842F02002DA600023B8
:103CB00018461437BD465DF8047B704780B495B054
:103CC00000AF78607B681B680C337B637B6B53E8C9
:103CD000003F3B633B6B23F49073FB647B681B6882
:103CE0000C33FA6C3A64FB63F96B3A6C41E80023DD
:103CF000BB63BB6B002BE5D17B681B6814333B6255
:103D00003B6A53E8003FFB61FB6923F00103BB649E
:103D10007B681B681433BA6CFA62BB62B96AFA6AD0
:103D200041E800237B627B6A002BE5D17B681B6B3B
:103D3000012B19D17B681B680C33FB60FB6853E8CF
:103D4000003FBB60BB6823F010037B647B681B688B
:103D50000C337A6CBA617B617969BA6941E80023F6
:103D60003B613B69002BE5D17B68202283F83E2034
:103D70007B6800221A6300BF5437BD465DF8047BA0
:103D8000704780B584B000AF78607B689B6BFB6048
:103D9000FB680022DA85FB680022DA84F868FFF706
:103DA000CFFE00BF1037BD4680BD80B485B000AFE8
:103DB00078607B6893F83D30DBB2212B3ED17B6885
:103DC0009B68B3F5805F14D17B681B69002B10D111
:103DD0007B681B6AFB60FB681B881A467B681B6854
:103DE000C2F308025A607B681B6A9A1C7B681A62DD
:103DF00008E07B681B6A591C7A6811621A787B6834
:103E00001B685A607B68DB8C9BB2013B9BB27A6873
:103E10001946D184002B0FD17B681B68DA687B6858
:103E20001B6822F08002DA607B681B68DA687B68B6
:103E30001B6842F04002DA60002300E002231846CB
:103E40001437BD465DF8047B704780B582B000AF83
:103E500078607B681B68DA687B681B6822F0400228
:103E6000DA607B68202283F83D207868FFF75EFEE9
:103E7000002318460837BD4680BD80B58CB000AF22
:103E800078607B6893F83E30DBB2222B40F0AB8049
:103E90007B689B68B3F5805F17D17B681B69002B3B
:103EA00013D10023FB627B689B6ABB627B681B6843
:103EB0005B689BB2C3F308039AB2BB6A1A807B6843
:103EC0009B6A9A1C7B689A6226E07B689B6AFB620D
:103ED0000023BB627B689B68B3F5805F07D07B687B
:103EE0009B68002B0AD17B681B69002B06D17B687D
:103EF0001B685B68DAB2FB6A1A7008E07B681B68B3
:103F00005B68DBB203F07F03DAB2FB6A1A707B688E
:103F10009B6A5A1C7B689A627B68DB8D9BB2013B73
:103F20009BB27A681946D185002B5AD17B681B68F1
:103F3000DA687B681B6822F02002DA607B681B6805
:103F4000DA687B681B6822F48072DA607B681B6821
:103F50005A697B681B6822F001025A617B68202243
:103F600083F83E207B681B6B012B35D17B680022D8
:103F70001A637B681B680C337B617B6953E8003FE5
:103F80003B613B6923F010037B627B681B680C3349
:103F90007A6A3A62FB61F9693A6A41E80023BB61D7
:103FA000BB69002BE5D17B681B681B6803F010031D
:103FB000102B0AD10023FB607B681B681B68FB6029
:103FC0007B681B685B68FB60FB687B689B8D1946A0
:103FD0007868FFF7BFFD02E07868FCF70DFE00236C
:103FE00002E0002300E0022318463037BD4680BDC2
:103FF0002DE9F04F9FB000AFF866FB6E1B681B69A0
:1040000023F44050FB6ED968FB6E1A6840EA010346
:104010001361FB6E9A68FB6E1B691A43FB6E5B694A
:104020001A43FB6EDB6913433B67FB6E1B68DB685F
:1040300023F4164121F00C01FB6E1A683B6F0B4311
:10404000D360FB6E1B685B6923F44070FB6E99695B
:10405000FB6E1A6840EA01035361FB6E1A68C54B98
:104060009A4204D0FB6E1A68C34B9A4203D1FEF702
:104070002DFA786702E0FEF715FA7867FB6EDB69C8
:10408000B3F5004F40F0B6807B6F1C464FF0000543
:1040900022462B46911839645B417B64D7E9102393
:1040A000121945EB03034FF000004FF00001D90057
:1040B00041EA5271D00002460B46111939666B4134
:1040C0007B66FB6E5B681A464FF000039118B9637C
:1040D0005B41FB63D7E90E23D7E91801FCF7C8F869
:1040E00002460B46A54BA3FB02235B091E017B6F17
:1040F0001C464FF0000522462B46911839635B4160
:104100007B63D7E90C23121945EB03034FF0000042
:104110004FF00001D90041EA5271D00002460B462F
:104120001119B9656B41FB65FB6E5B681A464FF070
:1041300000039118B9625B41FB62D7E90A23D7E912
:104140001601FCF795F802460B468C4BA3FB0213B5
:104150005B09642101FB03F3D31ADB003233874A86
:10416000A2FB03235B095B0003F4F8731E447B6F1F
:1041700018464FF0000102460B4694183C625B4122
:104180007B62D7E90823121841EB03034FF00004C8
:104190004FF00005DD0045EA5275D40022462B465B
:1041A00014183C654B417B65FB6E5B681A464FF00B
:1041B00000039118B9615B41FB61D7E90623D7E998
:1041C0001401FCF755F802460B466C4BA3FB021397
:1041D0005B09642101FB03F3D31ADB003233674A26
:1041E000A2FB03235B0903F00702FB6E1B6832444A
:1041F0009A60B9E07B6F1C464FF0000522462B46C3
:10420000911839615B417B61D7E90423121945EBB1
:1042100003034FF000004FF00001D90041EA527152
:10422000D00002460B4612EB040843EB0509FB6E77
:104230005B6818464FF000014FF000024FF000039A
:104240008B0043EA9073820040464946FCF710F821
:1042500002460B46494BA3FB02235B091E017B6F01
:1042600018464FF0000102460B469418BC605B41B3
:10427000FB60D7E90223121841EB03034FF000045F
:104280004FF00005DD0045EA5275D40022462B466A
:104290001418BC644B41FB64FB6E5B6818464FF01E
:1042A00000014FF000024FF000038B0043EA9073CF
:1042B0008200D7E91201FBF7DBFF02460B462F4BCA
:1042C000A3FB02135B09642101FB03F3D31A1B0157
:1042D00032332A4AA2FB03235B0903F0F0031E4496
:1042E0007B6F18464FF0000102460B4694183C6065
:1042F0005B417B60D7E90023121841EB03034FF0C9
:1043000000044FF00005DD0045EA5275D400224656
:104310002B4612EB000A43EB010BFB6E5B68184661
:104320004FF000014FF000024FF000038B0043EA12
:104330009073820050465946FBF79AFF02460B469F
:104340000E4BA3FB02135B09642101FB03F3D31A99
:104350001B013233094AA2FB03235B0903F00F025E
:10436000FB6E1B6832449A6000BF7C37BD46BDE8D7
:10437000F08F00BF00100140001401401F85EB5179
:1043800080B483B000AF03463960FB7197F9073002
:10439000002B0ADB3B68DAB20C4997F907301201AF
:1043A000D2B20B4483F800230AE03B68DAB2084932
:1043B000FB7903F00F03043B1201D2B20B441A76CF
:1043C00000BF0C37BD465DF8047B704700E100E09C
:1043D00000ED00E080B500AF00216FF00400FFF7B2
:1043E000CFFF00BF80BD000080B483B000AFEFF30B
:1043F00005833B603B68002B03D06FF005037B60B7
:104400000CE00A4B1B68002B05D1084B01221A60F7
:1044100000237B6002E04FF0FF337B607B6818462F
:104420000C37BD465DF8047B704700BF9400002048
:1044300080B582B000AFEFF305833B603B68002B93
:1044400003D06FF005037B6010E00B4B1B68012B62
:1044500009D1FFF7BFFF084B02221A6001F09EFC52
:1044600000237B6002E04FF0FF337B607B681846DF
:104470000837BD4680BD00BF9400002080B58EB0D7
:1044800004AFF860B9607A6000233B61EFF3058305
:104490007B617B69002B7ED1FB68002B7BD0802366
:1044A0003B621823FB6100237B624FF0FF33BB614B
:1044B0007B68002B45D07B681B68002B02D07B6893
:1044C0001B687B627B689B69002B02D07B689B69C1
:1044D000FB61FB69002B08D0FB69382B05D87B6892
:1044E0005B6803F00103002B01D0002354E07B68DC
:1044F0005B69002B03D07B685B699B083B627B6830
:104500009B68002B0ED07B68DB685B2B0AD97B682D
:104510001B69002B06D07B685B69002B02D001234E
:10452000BB6110E07B689B68002B0CD17B68DB686B
:10453000002B08D17B681B69002B04D10023BB61D1
:1045400001E00023BB61BB69012B10D17B681B69B3
:104550007A68926802920193FB690093BB683A6A99
:10456000796AF86801F044FA03463B6113E0BB69DD
:10457000002B10D13B6A9AB207F110030193FB693B
:104580000093BB68796AF86801F08FFA0346012B43
:1045900001D000233B613B6918462837BD4680BDEA
:1045A00080B584B000AF7860EFF30583BB60BB6873
:1045B000002B03D06FF00503FB6007E00023FB60D6
:1045C0007B68002B02D0786801F0B4FBFB681846CA
:1045D0001037BD4680BD000080B485B000AFF860E4
:1045E000B9607A60FB68074A1A60BB68064A1A60BD
:1045F0007B6880221A6000BF1437BD465DF8047BDB
:10460000704700BF98000020F400002080B485B0FF
:1046100000AFF860B9607A60FB68074A1A60BB684F
:10462000064A1A607B684FF480721A6000BF143724
:10463000BD465DF8047B7047F40200205003002063
:1046400080B58AB000AF78600023FB6101F00CFCFC
:104650005B4B1B68002B01D100F020F9594B1A6805
:104660007B681340002B40F093807B68002B1DD0AB
:1046700008227B6813447B607B6803F00703002BF0
:1046800014D07B6823F0070308337B607B6803F05A
:104690000703002B0AD04FF0500383F31188BFF3B8
:1046A0006F8FBFF34F8F7B6100BFFEE77B68002BEE
:1046B0006ED0454B1B687A689A4269D8434B3B627F
:1046C000424B1B687B6204E07B6A3B627B6A1B682F
:1046D0007B627B6A5B687A689A4203D97B6A1B6853
:1046E000002BF1D1364B1B687A6A9A4250D03B6A54
:1046F0001B6808221344FB617B6A1A683B6A1A60D4
:104700007B6A5A687B68D21A08235B009A421FD9D9
:104710007A6A7B681344BB61BB6903F00703002B13
:104720000AD04FF0500383F31188BFF36F8FBFF3AC
:104730004F8F3B6100BFFEE77B6A5A687B68D21AE5
:10474000BB695A607B6A7A685A60B86900F008F9F8
:104750001D4B1A687B6A5B68D31A1B4A13601A4B9D
:104760001A681B4B1B689A4203D2174B1B68184AE6
:1047700013607B6A5A68134B1B681A437B6A5A6042
:104780007B6A00221A60134B1B680133114A1360C5
:1047900001F078FBFB6903F00703002B0AD04FF010
:1047A000500383F31188BFF36F8FBFF34F8FFB600C
:1047B00000BFFEE7FB6918462837BD4680BD00BF35
:1047C000584300206C4300205C43002050430020ED
:1047D000604300206443002080B586B000AF78605D
:1047E0007B687B617B68002B4DD008235B427A6934
:1047F00013447B617B693B613B695A68244B1B68AE
:104800001340002B0AD14FF0500383F31188BFF3FC
:104810006F8FBFF34F8FFB6000BFFEE73B691B68E4
:10482000002B0AD04FF0500383F31188BFF36F8F32
:10483000BFF34F8FBB6000BFFEE73B695A68144B64
:104840001B681340002B1ED03B691B68002B1AD13C
:104850003B695A680E4B1B68DB431A403B695A6040
:1048600001F002FB3B695A680A4B1B681344094A72
:104870001360386900F074F8074B1B680133064A6F
:10488000136001F0FFFA00BF1837BD4680BD00BFBE
:104890006C4300205C4300206843002080B485B056
:1048A00000AF4FF47053BB60274BFB60FB6803F015
:1048B0000703002B0CD0FB680733FB60FB6823F079
:1048C0000703FB60BA68FB68D31A1F4A1344BB6036
:1048D000FB687B601D4A7B6813601C4B00225A609A
:1048E0007B68BA681344FB600822FB689B1AFB6074
:1048F000FB6823F00703FB60FB68154A1360144B49
:104900001B6800225A60124B1B6800221A607B68E9
:104910003B603B68FA68D21A3B685A600C4B1A68D5
:104920003B681A603B685B680A4A13603B685B68D7
:10493000094A1360094B4FF000421A6000BF143758
:10494000BD465DF8047B70475007002050430020AF
:1049500058430020604300205C4300206C4300204B
:1049600080B485B000AF7860284BFB6002E0FB6844
:104970001B68FB60FB681B687A689A42F7D8FB6883
:10498000BB60FB685B68BA6813447A689A4208D1D6
:10499000FB685A687B685B681A44FB685A60FB686E
:1049A0007B607B68BB607B685B68BA681A44FB68A5
:1049B0001B689A4218D1FB681A68154B1B689A420B
:1049C0000DD07B685A68FB681B685B681A447B687B
:1049D0005A60FB681B681A687B681A6008E00C4B19
:1049E0001A687B681A6003E0FB681A687B681A60C3
:1049F000FA687B689A4202D0FB687A681A6000BF46
:104A00001437BD465DF8047B704700BF504300205B
:104A10005843002080B483B000AF78607B6803F116
:104A200008027B685A607B684FF0FF329A607B68AF
:104A300003F108027B68DA607B6803F108027B6897
:104A40001A617B6800221A6000BF0C37BD465DF812
:104A5000047B704780B483B000AF78607B6800222D
:104A60001A6100BF0C37BD465DF8047B704780B407
:104A700085B000AF786039607B685B68FB603B683D
:104A8000FA685A60FB689A683B689A60FB689B68A2
:104A90003A685A60FB683A689A603B687A681A61BB
:104AA0007B681B685A1C7B681A6000BF1437BD46C0
:104AB0005DF8047B704780B485B000AF78603960E2
:104AC0003B681B68BB60BB68B3F1FF3F03D17B68E9
:104AD0001B69FB600CE07B680833FB6002E0FB684D
:104AE0005B68FB60FB685B681B68BA689A42F6D239
:104AF000FB685A683B685A603B685B683A689A6032
:104B00003B68FA689A60FB683A685A603B687A6862
:104B10001A617B681B685A1C7B681A6000BF1437D7
:104B2000BD465DF8047B704780B485B000AF786007
:104B30007B681B69FB607B685B687A6892689A6037
:104B40007B689B687A6852685A60FB685B687A6821
:104B50009A4203D17B689A68FB685A607B6800229E
:104B60001A61FB681B685A1EFB681A60FB681B68A9
:104B700018461437BD465DF8047B704780B485B095
:104B800000AFF860B9607A60FB68043BFB60FB68CB
:104B90004FF080721A60FB68043BFB60BB6823F037
:104BA0000102FB681A60FB68043BFB600C4AFB686F
:104BB0001A60FB68143BFB607A68FB681A60FB684C
:104BC000043BFB60FB686FF002021A60FB68203B4D
:104BD000FB60FB6818461437BD465DF8047B7047E0
:104BE000E54B000880B485B000AF00237B60124B1A
:104BF0001B68B3F1FF3F0AD04FF0500383F31188D5
:104C0000BFF36F8FBFF34F8FFB6000BFFEE74FF026
:104C1000500383F31188BFF36F8FBFF34F8FBB60D7
:104C200000BF00BF7B68002BFCD000BF00BF143763
:104C3000BD465DF8047B70470C00002000000000BA
:104C4000074B19680868B0E8F04F80F30988BFF394
:104C50006F8F4FF0000080F311887047AFF3008032
:104C60007843002000BF00BF08480068006880F358
:104C700008884FF0000080F3148862B661B6BFF375
:104C80004F8FBFF36F8F00DF00BF00BF08ED00E064
:104C900080B586B000AF464B1B68464A93420AD1A6
:104CA0004FF0500383F31188BFF36F8FBFF34F8F23
:104CB0003B6100BFFEE73E4B1B683F4A93420AD16F
:104CC0004FF0500383F31188BFF36F8FBFF34F8F03
:104CD000FB6000BFFEE7394B7B617B691B78DBB271
:104CE0007B607B69FF221A707B691B78DBB2FB70EB
:104CF000FB78DBB203F05003DAB2314B1A70314B60
:104D000007221A6009E02F4B1B68013B2D4A1360F4
:104D1000FB78DBB25B00DBB2FB70FB78DBB203F04D
:104D20008003802BEFD0274B1B68C3F10703042BB4
:104D30000AD04FF0500383F31188BFF36F8FBFF396
:104D40004F8FBB6000BFFEE71E4B1B681B021D4A56
:104D500013601C4B1B6803F4E0631A4A13607B6802
:104D6000DAB27B691A70184B1B68174A43F4700358
:104D70001360154B1B68144A43F07043136000F036
:104D8000DDF8124B00221A6000F0FCF8104B1B6893
:104D90000F4A43F040431360FFF766FF01F0DAF972
:104DA000FFF720FF002318461837BD4680BD00BF1F
:104DB00000ED00E071C20F4170C20F4100E400E05D
:104DC000704300207443002020ED00E00C00002020
:104DD00034EF00E080B483B000AF4FF0500383F3B2
:104DE0001188BFF36F8FBFF34F8F7B6000BF0F4BF6
:104DF0001B6801330D4A13600C4B1B68012B0FD14C
:104E00000B4B1B68DBB2002B0AD04FF0500383F32F
:104E10001188BFF36F8FBFF34F8F3B6000BFFEE77A
:104E200000BF0C37BD465DF8047B70470C000020C6
:104E300004ED00E080B483B000AF124B1B68002B80
:104E40000AD14FF0500383F31188BFF36F8FBFF384
:104E50004F8F7B6000BFFEE70A4B1B68013B094A8E
:104E60001360084B1B68002B05D100233B603B6897
:104E700083F3118800BF00BF0C37BD465DF8047B8B
:104E8000704700BF0C000020000000000000000080
:104E9000EFF30980BFF36F8F154B1A681EF0100FE8
:104EA00008BF20ED108A20E9F04F10602DE90900BD
:104EB0004FF0500080F31188BFF34F8FBFF36F8F17
:104EC00001F048F94FF0000080F3118809BC19681F
:104ED0000868B0E8F04F1EF0100F08BFB0EC108A61
:104EE00080F30988BFF36F8F704700BFAFF3008076
:104EF0007843002000BF00BF80B582B000AF4FF004
:104F0000500383F31188BFF36F8FBFF34F8F7B6024
:104F100000BF01F065F80346002B03D0064B4FF0AD
:104F200080521A6000233B603B6883F3118800BF06
:104F300000BF0837BD4680BD04ED00E080B400AF7F
:104F40000B4B00221A600B4B00221A600A4B1B68A5
:104F50000A4AA2FB03239B09094A013B1360044B45
:104F600007221A6000BFBD465DF8047B704700BF92
:104F700010E000E018E000E000000020D34D6210D7
:104F800014E000E0DFF80C00016841F470010160FA
:104F9000704700BF88ED00E080B485B000AFEFF34C
:104FA0000583FB60FB680F2B14D9174AFB68134479
:104FB0001B78FB72154B1B78FA7A9A420AD24FF093
:104FC000500383F31188BFF36F8FBFF34F8F7B6064
:104FD00000BFFEE70E4B1B6803F4E0620D4B1B683D
:104FE0009A420AD94FF0500383F31188BFF36F8FB1
:104FF000BFF34F8F3B6000BFFEE700BF1437BD46D5
:105000005DF8047B704700BFF0E300E070430020D0
:105010000CED00E07443002080B584B000AF7860F0
:1050200039607B68FB60FB68002B0AD14FF05003AE
:1050300083F31188BFF36F8FBFF34F8FBB6000BF47
:10504000FEE7FFF7C7FEFB681A68FB68DB6BF968D1
:10505000096C01FB03F31A44FB689A60FB680022A9
:105060009A63FB681A68FB685A60FB681A68FB68F9
:10507000DB6B013BF968096C01FB03F31A44FB6825
:10508000DA60FB68FF2283F84420FB68FF2283F884
:1050900045203B68002B14D1FB681B69002B1AD0FC
:1050A000FB681033184601F003F90346002B12D0B9
:1050B0000C4B4FF080521A60BFF34F8FBFF36F8FCE
:1050C00009E0FB6810331846FFF7A4FCFB682433A3
:1050D0001846FFF79FFCFFF7ADFE01231846103777
:1050E000BD4680BD04ED00E080B58EB002AFF86033
:1050F000B9607A603B60FB68002B0AD14FF0500327
:1051000083F31188BFF36F8FBFF34F8FBB6200BF74
:10511000FEE73B68002B0AD14FF0500383F3118860
:10512000BFF36F8FBFF34F8F7B6200BFFEE77B68DB
:10513000002B02D0BB68002B01D0012300E000232C
:10514000002B0AD14FF0500383F31188BFF36F8F08
:10515000BFF34F8F3B6200BFFEE77B68002B02D19D
:10516000BB68002B01D1012300E00023002B0AD1F2
:105170004FF0500383F31188BFF36F8FBFF34F8F4E
:10518000FB6100BFFEE750237B617B69502B0AD097
:105190004FF0500383F31188BFF36F8FBFF34F8F2E
:1051A000BB6100BFFEE77B693B68FB62FB6A002BCB
:1051B0000DD0FB6A012283F8462097F83820FB6A5D
:1051C000009313467A68B968F86800F005F8FB6A3E
:1051D00018463037BD4680BD80B584B000AFF8605A
:1051E000B9607A60FB70BB68002B03D1BB69BA69F8
:1051F0001A6002E0BB697A681A60BB69FA68DA6310
:10520000BB69BA681A640121B869FFF705FFBB6979
:10521000FA7883F84C2000BF1037BD4680BD0000EF
:1052200080B58EB000AFF860B9607A603B60002353
:105230007B63FB683B633B6B002B0AD14FF0500351
:1052400083F31188BFF36F8FBFF34F8FBB6200BF33
:10525000FEE7BB68002B03D13B6B1B6C002B01D11D
:10526000012300E00023002B0AD14FF0500383F309
:105270001188BFF36F8FBFF34F8F7B6200BFFEE7D4
:105280003B68022B03D13B6BDB6B012B01D101236C
:1052900000E00023002B0AD14FF0500383F3118864
:1052A000BFF36F8FBFF34F8F3B6200BFFEE701F08C
:1052B000BDF90346002B02D17B68002B01D10123ED
:1052C00000E00023002B0AD14FF0500383F3118834
:1052D000BFF36F8FBFF34F8FFB6100BFFEE7FFF798
:1052E00079FD3B6B9A6B3B6BDB6B9A4202D33B685D
:1052F000022B29D13A68B968386B00F00BFAF862D2
:105300003B6B5B6A002B10D03B6B2433184600F0DC
:10531000CFFF0346002B13D03F4B4FF080521A6053
:10532000BFF34F8FBFF36F8F0AE0FB6A002B07D0EC
:10533000394B4FF080521A60BFF34F8FBFF36F8F1E
:10534000FFF778FD012363E07B68002B03D1FFF7B3
:1053500071FD00235CE07B6B002B06D107F1140389
:10536000184601F009F801237B63FFF763FD00F0A5
:105370007BFDFFF72FFD3B6B93F844305BB2B3F13D
:10538000FF3F03D13B6B002283F844203B6B93F833
:1053900045305BB2B3F1FF3F03D13B6B002283F892
:1053A0004520FFF747FD3A1D07F114031146184643
:1053B00000F0F8FF0346002B24D1386B00F0A2FA6E
:1053C0000346002B18D03B6B10337A681146184601
:1053D00000F01EFF386B00F02DFA00F053FD03467D
:1053E000002B7FF47CAF0C4B4FF080521A60BFF360
:1053F0004F8FBFF36F8F72E7386B00F01BFA00F02E
:1054000041FD6CE7386B00F015FA00F03BFD00231E
:1054100018463837BD4680BD04ED00E080B590B039
:1054200000AFF860B9607A603B60FB68BB63BB6B40
:10543000002B0AD14FF0500383F31188BFF36F8F15
:10544000BFF34F8FBB6200BFFEE7BB68002B03D1E9
:10545000BB6B1B6C002B01D1012300E00023002B50
:105460000AD14FF0500383F31188BFF36F8FBFF35E
:105470004F8F7B6200BFFEE73B68022B03D1BB6B03
:10548000DB6B012B01D1012300E00023002B0AD1AB
:105490004FF0500383F31188BFF36F8FBFF34F8F2B
:1054A0003B6200BFFEE7FFF777FDEFF311824FF09D
:1054B000500383F31188BFF36F8FBFF34F8FFA61EF
:1054C000BB61FB697B63BB6B9A6BBB6BDB6B9A420B
:1054D00002D33B68022B2FD1BB6B93F8453087F882
:1054E0003330BB6B9B6BFB623A68B968B86B00F0FA
:1054F00011F997F93330B3F1FF3F12D1BB6B5B6AFF
:10550000002B16D0BB6B2433184600F0D1FE0346A7
:10551000002B0ED07B68002B0BD07B6801221A6019
:1055200007E097F833300133DBB25AB2BB6B83F834
:1055300045200123FB6301E00023FB637B6B7B6160
:105540007B6983F3118800BFFB6B18464037BD466B
:1055500080BD000080B58CB000AFF860B9607A60A3
:105560000023FB62FB68BB62BB6A002B0AD14FF0D1
:10557000500383F31188BFF36F8FBFF34F8F3B62EC
:1055800000BFFEE7BB68002B03D1BB6A1B6C002B7E
:1055900001D1012300E00023002B0AD14FF050037A
:1055A00083F31188BFF36F8FBFF34F8FFB6100BF91
:1055B000FEE701F03BF80346002B02D17B68002B8D
:1055C00001D1012300E00023002B0AD14FF050034A
:1055D00083F31188BFF36F8FBFF34F8FBB6100BFA1
:1055E000FEE7FFF7F7FBBB6A9B6B7B627B6A002BD6
:1055F0001FD0B968B86A00F0F7F87B6A5A1EBB6A18
:105600009A63BB6A1B69002B0FD0BB6A1033184624
:1056100000F04EFE0346002B07D03D4B4FF080526A
:105620001A60BFF34F8FBFF36F8FFFF703FC0123A7
:1056300069E07B68002B03D1FFF7FCFB002362E0ED
:10564000FB6A002B06D107F11003184600F094FE08
:105650000123FB62FFF7EEFB00F006FCFFF7BAFB4D
:10566000BB6A93F844305BB2B3F1FF3F03D1BB6A2E
:10567000002283F84420BB6A93F845305BB2B3F153
:10568000FF3F03D1BB6A002283F84520FFF7D2FB1E
:105690003A1D07F110031146184600F083FE034639
:1056A000002B23D1B86A00F017F90346002B17D05E
:1056B000BB6A24337A681146184600F0A9FDB86A1F
:1056C00000F0B8F800F0DEFB0346002B89D1104B48
:1056D0004FF080521A60BFF34F8FBFF36F8F80E798
:1056E000B86A00F0A7F800F0CDFB7AE7B86A00F0DE
:1056F000A1F800F0C7FBB86A00F0EEF80346002BF3
:105700003FF46FAF002318463037BD4680BD00BF61
:1057100004ED00E080B586B000AFF860B9607A6053
:1057200000237B61FB689B6B3B61FB681B6C002B60
:105730000DD1FB681B68002B4DD1FB689B68184698
:1057400000F092FF7861FB6800229A6043E07B687A
:10575000002B19D1FB685868FB681B6C1A46B968A6
:1057600001F0EEFDFB685A68FB681B6C1A44FB688D
:105770005A60FB685A68FB689B689A422BD3FB68A7
:105780001A68FB685A6026E0FB68D868FB681B6CE7
:105790001A46B96801F0D4FDFB68DA68FB681B6C37
:1057A0005B421A44FB68DA60FB68DA68FB681B68D6
:1057B0009A4207D2FB689A68FB681B6C5B421A44EA
:1057C000FB68DA607B68022B05D13B69002B02D0B5
:1057D0003B69013B3B613B695A1CFB689A637B69EF
:1057E00018461837BD4680BD80B582B000AF7860DE
:1057F00039607B681B6C002B18D07B68DA687B688B
:105800001B6C1A447B68DA607B68DA687B689B688B
:105810009A4203D37B681A687B68DA607B68D96830
:105820007B681B6C1A46386801F08AFD00BF083798
:10583000BD4680BD80B584B000AF7860FFF7CAFA7E
:105840007B6893F84530FB7311E07B685B6A002B43
:1058500012D07B682433184600F02AFD0346002B43
:1058600001D000F001FEFB7B013BDBB2FB7397F93B
:105870000F30002BE9DC00E000BF7B68FF2283F8DB
:105880004520FFF7D7FAFFF7A5FA7B6893F8443075
:10589000BB7311E07B681B69002B12D07B6810334F
:1058A000184600F005FD0346002B01D000F0DCFD9A
:1058B000BB7B013BDBB2BB7397F90E30002BE9DCFD
:1058C00000E000BF7B68FF2283F84420FFF7B2FAB4
:1058D00000BF1037BD4680BD80B584B000AF786092
:1058E000FFF778FA7B689B6B002B02D10123FB60EA
:1058F00001E00023FB60FFF79DFAFB6818461037B4
:10590000BD4680BD80B584B000AF7860FFF762FA15
:105910007B689A6B7B68DB6B9A4202D10123FB6048
:1059200001E00023FB60FFF785FAFB68184610379B
:10593000BD4680BD80B485B000AF7860396000237B
:10594000FB6014E00F4AFB6852F83330002B0BD198
:105950000C49FB683A6841F833200A4AFB68DB00CF
:1059600013447A685A6006E0FB680133FB60FB6809
:10597000072BE7D900BF00BF1437BD465DF8047B95
:10598000704700BF384B002080B586B000AFF8608C
:10599000B9607A60FB687B61FFF71CFA7B6993F85A
:1059A00044305BB2B3F1FF3F03D17B69002283F83F
:1059B00044207B6993F845305BB2B3F1FF3F03D1DC
:1059C0007B69002283F84520FFF734FA7B699B6BE3
:1059D000002B06D17B6924337A68B968184600F039
:1059E0003BFC7869FFF726FF00BF1837BD4680BD36
:1059F00080B58EB004AFF860B9607A603B607B6BB5
:105A0000002B0AD14FF0500383F31188BFF36F8F3F
:105A1000BFF34F8F3B6200BFFEE7BB6B002B0AD189
:105A20004FF0500383F31188BFF36F8FBFF34F8F95
:105A3000FB6100BFFEE75C233B613B695C2B0AD046
:105A40004FF0500383F31188BFF36F8FBFF34F8F75
:105A5000BB6100BFFEE73B69BB6B002B1ED07B6BBD
:105A6000002B1BD0BB6B7B627B6A7A6B1A637B6AF1
:105A7000022283F85920002303937B6A029307F1E3
:105A8000140301933B6B00933B687A68B968F8682C
:105A900000F050F8786A00F0DDF801E000237B6147
:105AA0007B6918462837BD4680BD80B58CB004AFF1
:105AB000F860B9603B601346FB80FB889B0018468A
:105AC000FEF7BEFD78617B69002B0ED05C20FEF7EF
:105AD000B7FDF861FB69002B03D0FB697A691A6393
