:020000040800F2
:100000000000022011070008990600089F0600085A
:10001000A5060008AB060008B106000800000000B5
:10002000000000000000000000000000B70600080B
:10003000C506000800000000D3060008E10600081D
:1000400061070008610700086107000861070008F0
:1000500061070008610700086107000861070008E0
:1000600061070008610700086107000861070008D0
:1000700061070008610700086107000861070008C0
:1000800061070008610700086107000861070008B0
:1000900061070008610700086107000861070008A0
:1000A0006107000861070008610700086107000890
:1000B0006107000861070008610700086107000880
:1000C0006107000861070008610700086107000870
:1000D0006107000861070008610700086107000860
:1000E0006107000861070008610700086107000850
:1000F0006107000861070008610700086107000840
:10010000610700086107000861070008610700082F
:10011000610700086107000861070008610700081F
:10012000610700086107000861070008610700080F
:1001300061070008610700086107000861070008FF
:1001400061070008610700086107000861070008EF
:1001500061070008610700086107000861070008DF
:1001600061070008610700086107000861070008CF
:10017000610700086107000861070008000000002F
:08018000610700086107000897
:1001880010B5054C237833B9044B13B10448AFF3C9
:1001980000800123237010BD0C0000200000000027
:1001A800FC1A000808B5034B1BB103490348AFF319
:1001B800008008BD0000000010000020FC1A0008A4
:1001C80053B94AB9002908BF00281CBF4FF0FF31B6
:1001D8004FF0FF3000F06EB9ADF1080C6DE904CEB8
:1001E80000F006F8DDF804E0DDE9022304B070470A
:1001F8002DE9F047089D04468C46002B40F083808B
:100208008A42174647D9B2FA82F242B1C2F12000B7
:1002180024FA00F09140974040EA010C94404FEADC
:100228001748230CBCFBF8F61FFA87FE08FB16C11B
:1002380043EA014306FB0EF1994209D9FB1806F17E
:10024800FF3080F01981994240F21681023E3B440A
:100258005B1AA4B2B3FBF8F008FB103344EA03447A
:1002680000FB0EFEA64509D93C1900F1FF3380F0CA
:100278000581A64540F2028102383C4440EA064026
:10028800A4EB0E0400261DB1D4400023C5E90043A9
:100298003146BDE8F08702B9FFDEB2FA82F2002AE1
:1002A80050D1CB1B4FEA174E1FFA87F80126B3FB34
:1002B800FEFC210C0EFB1C3341EA034108FB0CF346
:1002C8008B4207D979180CF1FF3002D28B4200F229
:1002D800E9808446C91AA3B2B1FBFEF00EFB1011E7
:1002E80043EA014408FB00F8A04507D93C1900F18E
:1002F800FF3302D2A04500F2D9801846A4EB0804C7
:1003080040EA0C40BFE78B4209D9002D00F0B180CC
:100318000026C5E9000130463146BDE8F087B3FA4A
:1003280083F6002E4AD18B4202D3824200F2B88073
:10033800841A61EB030101208C46002DA8D0C5E981
:10034800004CA5E7C2F1200320FA03F6974001FA12
:1003580002F04FEA174ED9403043030CB1FBFEF6CA
:100368001FFA87F80EFB161143EA014306FB08F152
:10037800994204FA02F409D9FB1806F1FF3C80F00F
:100388008D80994240F28A80023E3B445B1A81B2DA
:10039800B3FBFEF00EFB103341EA034100FB08F308
:1003A8008B4207D9791800F1FF3C73D28B4271D97F
:1003B80002383944CB1A40EA064678E7C6F1200CE1
:1003C80003FA06F422FA0CF31C4320FA0CF701FA9C
:1003D80006F34FEA144E21FA0CF11F433B0CB1FB14
:1003E800FEF91FFA84F80EFB191143EA014109FBD3
:1003F80008FA8A4502FA06F200FA06F308D96118E3
:1004080009F1FF3048D28A4546D9A9F102092144A9
:10041800A1EB0A01BFB2B1FBFEF00EFB101147EAD7
:10042800014700FB08F8B84507D9E71900F1FF3183
:100438002ED2B8452CD90238274440EA0940A7EB08
:100448000807A0FB02894F45C64649461AD317D06C
:100458005DB1B3EB0E0267EB010707FA0CFCF24043
:100468004CEA0202F740C5E9002700263146BDE8FC
:10047800F0872E4628460BE70646E9E61846FDE6CD
:100488004345E5D2B8EB020E69EB04010138DFE71A
:100498000846D2E760468DE78146B9E7664675E7C4
:1004A80030464AE7ACF1020C394413E702383C44C1
:1004B80024E700BF704700BF80B500AF00F04EF9D9
:1004C80000F008F800F064F801F05CFA00F094F825
:1004D800FEE7000080B594B000AF07F1200330229A
:1004E8000021184601F0FEFA07F10C0300221A60F9
:1004F8005A609A60DA601A610023BB60224B1B6C59
:10050800214A43F0805313641F4B1B6C03F0805344
:10051800BB60BB6800237B601C4B1B681B4A43F411
:1005280080431360194B1B6803F480437B607B682E
:1005380002233B620123FB6210233B630023BB635E
:1005480007F12003184600F063FC0346002B01D096
:1005580000F070F80F23FB6000233B6100237B61F0
:100568000023BB610023FB6107F10C03002118463F
:1005780000F0C6FE0346002B01D000F05BF800BF78
:100588005037BD4680BD00BF0038024000700040B3
:1005980080B586B000AF3B1D00221A605A609A6091
:1005A800DA601A6100233B60114B1B6B104A43F061
:1005B800100313630E4B1B6B03F010033B603B6887
:1005C80000224FF4BC610B4800F0E0FB4FF4BC6321
:1005D8007B600123BB600023FB6000233B613B1D64
:1005E8001946044800F036FA00BF1837BD4680BDEA
:1005F800003802400010024090B587B000AF0C4BA5
:100608003C1D0FCB07C4237007F1110300221A60A9
:10061800C3F803203B1D1A460A210A2001F080F97D
:1006280001F00AF84FF47A7000F00AF9F2E700BF17
:10063800141B000880B400AF72B600BFFEE70000CC
:1006480080B483B000AF00237B60104B5B6C0F4A13
:1006580043F4804353640D4B5B6C03F480437B602D
:100668007B6800233B60094B1B6C084A43F08053AE
:100678001364064B1B6C03F080533B603B6800BF60
:100688000C37BD465DF8047B704700BF0038024058
:1006980080B400AFFEE780B400AFFEE780B400AFDF
:1006A800FEE780B400AFFEE780B400AFFEE780B499
:1006B80000AF00BFBD465DF8047B704780B400AF53
:1006C80000BFBD465DF8047B704780B400AF00BF33
:1006D800BD465DF8047B704780B500AF00F090F828
:1006E80000BF80BD80B400AF064BD3F88830054A00
:1006F80043F47003C2F8883000BFBD465DF8047B40
:10070800704700BF00ED00E0DFF834D00D480E4917
:100718000E4A002302E0D458C4500433C4188C4253
:10072800F9D30B4A0B4C002301E013600432A242B8
:10073800FBD3FFF7D7FF01F0B1F9FFF7BDFE704714
:1007480000000220000000200C000020AC2500085A
:100758000C0000202C040020FEE7000080B500AF4C
:100768000E4B1B680D4A43F4007313600B4B1B6858
:100778000A4A43F480631360084B1B68074A43F432
:1007880080731360032000F031F90F2000F008F89F
:10079800FFF756FF0023184680BD00BF003C02400B
:1007A80080B582B000AF7860124B1A68124B1B7884
:1007B80019464FF47A73B3FBF1F3B2FBF3F318461F
:1007C80000F03BF90346002B01D001230EE07B68C3
:1007D8000F2B0AD8002279684FF0FF3000F011F98A
:1007E800064A7B681360002300E001231846083797
:1007F800BD4680BD00000020080000200400002045
:1008080080B400AF064B1B781A46064B1B6813448E
:10081800044A136000BFBD465DF8047B704700BF03
:10082800080000202800002080B400AF034B1B689C
:100838001846BD465DF8047B704700BF28000020BD
:1008480080B584B000AF7860FFF7EEFFB8607B68D2
:10085800FB60FB68B3F1FF3F05D00A4B1B781A46D3
:10086800FB681344FB6000BFFFF7DEFF0246BB686E
:10087800D31AFA689A42F7D800BF00BF1037BD46AE
:1008880080BD00BF0800002080B485B000AF78604C
:100898007B6803F00703FB600C4BDB68BB60BA683E
:1008A8004FF6FF031340BB60FB681A02BB68134393
:1008B80043F0BF6343F40033BB60044ABB68D360B2
:1008C80000BF1437BD465DF8047B704700ED00E0BB
:1008D80080B400AF044BDB681B0A03F0070318461B
:1008E800BD465DF8047B704700ED00E080B483B03E
:1008F80000AF03463960FB7197F90730002B0ADB1C
:100908003B68DAB20C4997F907301201D2B20B44AE
:1009180083F800230AE03B68DAB20849FB7903F060
:100928000F03043B1201D2B20B441A7600BF0C37F6
:10093800BD465DF8047B704700E100E000ED00E093
:1009480080B489B000AFF860B9607A60FB6803F0E2
:100958000703FB61FB69C3F10703042B28BF0423CA
:10096800BB61FB690433062B02D9FB69033B00E03A
:1009780000237B614FF0FF32BB6902FA03F3DA43CD
:10098800BB681A407B699A404FF0FF317B6901FAD6
:1009980003F3D9437B680B40134318462437BD46FD
:1009A8005DF8047B7047000080B582B000AF7860C6
:1009B8007B68013BB3F1807F01D301230FE00A4A32
:1009C8007B68013B53600F214FF0FF30FFF78EFF2C
:1009D800054B00229A60044B07221A600023184630
:1009E8000837BD4680BD00BF10E000E080B582B08A
:1009F80000AF78607868FFF747FF00BF0837BD464B
:100A080080BD80B586B000AF0346B9607A60FB73DD
:100A180000237B61FFF75CFF78617A68B9687869C1
:100A2800FFF78EFF024697F90F3011461846FFF779
:100A38005DFF00BF1837BD4680BD80B582B000AFEE
:100A480078607868FFF7B0FF034618460837BD4658
:100A580080BD000080B489B000AF786039600023A1
:100A68007B6100233B610023BB610023FB616BE1D9
:100A78000122FB6902FA03F37B613B681B687A6910
:100A880013403B613A697B699A4240F05A813B685E
:100A98005B6803F00303012B05D03B685B6803F038
:100AA8000303022B30D17B689B68BB61FB695B0049
:100AB800032202FA03F3DB43BA691340BB613B68C4
:100AC800DA68FB695B0002FA03F3BA691343BB6196
:100AD8007B68BA699A607B685B68BB610122FB69C5
:100AE80002FA03F3DB43BA691340BB613B685B68F6
:100AF8001B0903F00102FB6902FA03F3BA69134305
:100B0800BB617B68BA695A603B685B6803F00303A2
:100B1800032B17D07B68DB68BB61FB695B00032292
:100B280002FA03F3DB43BA691340BB613B689A6876
:100B3800FB695B0002FA03F3BA691343BB617B6884
:100B4800BA69DA603B685B6803F00303022B23D1C0
:100B5800FB69DA087B68083253F82230BB61FB690D
:100B680003F007039B000F2202FA03F3DB43BA6981
:100B78001340BB613B681A69FB6903F007039B00DC
:100B880002FA03F3BA691343BB61FB69DA087B68AD
:100B98000832B96943F822107B681B68BB61FB699E
:100BA8005B00032202FA03F3DB43BA691340BB611B
:100BB8003B685B6803F00302FB695B0002FA03F31E
:100BC800BA691343BB617B68BA691A603B685B68A2
:100BD80003F44033002B00F0B4800023FB60604B2B
:100BE8005B6C5F4A43F4804353645D4B5B6C03F476
:100BF8008043FB60FB685B4AFB699B08023352F841
:100C08002330BB61FB6903F003039B000F2202FA48
:100C180003F3DB43BA691340BB617B68524A9342D2
:100C28002BD07B68514A934225D07B68504A934227
:100C38001FD07B684F4A934219D07B684E4A934233
:100C480013D07B684D4A93420DD07B684C4A93423F
:100C580007D07B684B4A934201D107230EE0082353
:100C68000CE006230AE0052308E0042306E003233A
:100C780004E0022302E0012300E00023FA6902F005
:100C8800030292009340BA691343BB613549FB697B
:100C98009B080233BA6941F823203B4B1B68BB61B0
:100CA8003B69DB43BA691340BB613B685B6803F48B
:100CB8008033002B03D0BA693B691343BB61324AC6
:100CC800BB691360304B5B68BB613B69DB43BA6946
:100CD8001340BB613B685B6803F40033002B03D00F
:100CE800BA693B691343BB61274ABB695360264B0A
:100CF8009B68BB613B69DB43BA691340BB613B68D6
:100D08005B6803F48013002B03D0BA693B69134373
:100D1800BB611D4ABB6993601B4BDB68BB613B69C8
:100D2800DB43BA691340BB613B685B6803F400139B
:100D3800002B03D0BA693B691343BB61124ABB69F4
:100D4800D360FB690133FB61FB690F2B7FF690AE23
:100D580000BF00BF2437BD465DF8047B704700BF65
:100D68000038024000380140000002400004024000
:100D780000080240000C024000100240001402402B
:100D880000180240001C0240003C014080B483B0BF
:100D980000AF78600B467B8013467B707B78002B16
:100DA80003D07A887B689A6103E07B881A047B68A1
:100DB8009A6100BF0C37BD465DF8047B70470000A0
:100DC80080B483B000AF064B01221A60054B1B6844
:100DD8007B607B6800BF0C37BD465DF8047B7047BD
:100DE80020000E420070004080B483B000AF064B74
:100DF80000221A60054B1B687B607B6800BF0C37BC
:100E0800BD465DF8047B704720000E42007000402C
:100E180080B586B000AF78607B68002B01D10123D4
:100E280064E27B681B6803F00103002B75D0A34BB9
:100E38009B6803F00C03042B0CD0A04B9B6803F0B9
:100E48000C03082B12D19D4B5B6803F48003B3F5A8
:100E5800800F0BD1994B1B6803F40033002B5BD038
:100E68007B685B68002B57D101233FE27B685B6896
:100E7800B3F5803F06D1914B1B68904A43F4803309
:100E880013601DE07B685B68B3F5A02F0CD18B4B1A
:100E98001B688A4A43F480231360884B1B68874A7F
:100EA80043F4803313600BE0844B1B68834A23F4BC
:100EB80080331360814B1B68804A23F480231360BE
:100EC8007B685B68002B13D0FFF7AEFC386108E045
:100ED800FFF7AAFC02463B69D31A642B01D9032306
:100EE80004E2764B1B6803F40033002BF0D014E0C7
:100EF800FFF79AFC386108E0FFF796FC02463B6969
:100F0800D31A642B01D90323F0E16C4B1B6803F45B
:100F18000033002BF0D100E000BF7B681B6803F0B2
:100F28000203002B63D0654B9B6803F00C03002B76
:100F38000BD0624B9B6803F00C03082B1CD15F4B52
:100F48005B6803F48003002B16D15C4B1B6803F02D
:100F58000203002B05D07B68DB68012B01D001233D
:100F6800C4E1564B1B6823F0F8027B681B69DB0061
:100F7800524913430B603AE07B68DB68002B20D0B2
:100F88004F4B01221A60FFF74FFC386108E0FFF76A
:100F98004BFC02463B69D31A022B01D90323A5E176
:100FA800464B1B6803F00203002BF0D0434B1B6831
:100FB80023F0F8027B681B69DB00404913430B6090
:100FC80015E03F4B00221A60FFF72EFC386108E05D
:100FD800FFF72AFC02463B69D31A022B01D90323E7
:100FE80084E1364B1B6803F00203002BF0D17B68C9
:100FF8001B6803F00803002B30D07B685B69002B6B
:1010080016D0304B01221A60FFF70EFC386108E059
:10101800FFF70AFC02463B69D31A022B01D90323C6
:1010280064E1264B5B6F03F00203002BF0D015E060
:10103800244B00221A60FFF7F7FB386108E0FFF73E
:10104800F3FB02463B69D31A022B01D903234DE176
:101058001A4B5B6F03F00203002BF0D17B681B680F
:1010680003F00403002B00F0A0800023FB75134B52
:101078001B6C03F08053002B0FD10023BB600F4B78
:101088001B6C0E4A43F0805313640C4B1B6C03F02B
:101098008053BB60BB680123FB750B4B1B6803F4D3
:1010A8008073002B21D1084B1B68074A43F48073D7
:1010B8001360FFF7B9FB386111E000BF0038024048
:1010C80000004742800E474200700040FFF7ACFB2B
:1010D80002463B69D31A022B01D9032306E1854B4B
:1010E8001B6803F48073002BF0D07B689B68012B8E
:1010F80006D1814B1B6F804A43F0010313671CE044
:101108007B689B68052B0CD17B4B1B6F7A4A43F09D
:1011180004031367784B1B6F774A43F00103136787
:101128000BE0754B1B6F744A23F001031367724B76
:101138001B6F714A23F0040313677B689B68002BBD
:1011480015D0FFF771FB38610AE0FFF76DFB024627
:101158003B69D31A41F28832934201D90323C5E08F
:10116800654B1B6F03F00203002BEED014E0FFF772
:101178005BFB38610AE0FFF757FB02463B69D31A6D
:1011880041F28832934201D90323AFE05A4B1B6FD7
:1011980003F00203002BEED1FB7D012B05D1564B4A
:1011A8001B6C554A23F0805313647B689B69002BA2
:1011B80000F09B80504B9B6803F00C03082B5CD01D
:1011C8007B689B69022B41D14C4B00221A60FFF7C8
:1011D8002BFB386108E0FFF727FB02463B69D31A6F
:1011E800022B01D9032381E0434B1B6803F00073F2
:1011F800002BF0D17B68DA697B681B6A1A437B682D
:101208005B6A9B011A437B689B6A5B08013B1B0472
:101218001A437B68DB6A1B06374913434B60374B1D
:1012280001221A60FFF700FB386108E0FFF7FCFABB
:1012380002463B69D31A022B01D9032356E02E4BF1
:101248001B6803F00073002BF0D04EE02B4B0022FC
:101258001A60FFF7E9FA386108E0FFF7E5FA024695
:101268003B69D31A022B01D903233FE0224B1B68A9
:1012780003F00073002BF0D137E07B689B69012BEA
:1012880001D1012332E01C4B5B68FB607B689B69E2
:10129800012B28D0FB6803F480027B68DB699A4243
:1012A80021D1FB6803F03F027B681B6A9A421AD17E
:1012B800FA6847F6C07313407A68526A92019342FB
:1012C80011D1FB6803F440327B689B6A5B08013BE1
:1012D8001B049A4207D1FB6803F070627B68DB6AE3
:1012E8001B069A4201D0012300E000231846183754
:1012F800BD4680BD00700040003802406000474293
:1013080080B584B000AF786039607B68002B01D16C
:101318000123CCE0684B1B6803F007033A689A4244
:101328000CD9654B3A68D2B21A70634B1B6803F04C
:1013380007033A689A4201D00123B8E07B681B682A
:1013480003F00203002B20D07B681B6803F0040322
:10135800002B05D0594B9B68584A43F4E0539360DF
:101368007B681B6803F00803002B05D0534B9B6870
:10137800524A43F460439360504B9B6823F0F00259
:101388007B689B684D4913438B607B681B6803F03F
:101398000103002B44D07B685B68012B07D1474BC6
:1013A8001B6803F40033002B19D101237FE07B680D
:1013B8005B68022B03D07B685B68032B07D13F4B2C
:1013C8001B6803F00073002B09D101236FE03B4B2E
:1013D8001B6803F00203002B01D1012367E0374BA0
:1013E8009B6823F003027B685B68344913438B6076
:1013F800FFF71AFAF8600AE0FFF716FA0246FB68E8
:10140800D31A41F28832934201D903234FE02B4B80
:101418009B6803F00C027B685B689B009A42EBD1E7
:10142800254B1B6803F007033A689A420CD2224BFB
:101438003A68D2B21A70204B1B6803F007033A6867
:101448009A4201D0012332E07B681B6803F0040351
:10145800002B08D0194B9B6823F4E0527B68DB68AB
:10146800164913438B607B681B6803F00803002B45
:1014780009D0124B9B6823F460427B681B69DB0030
:101488000E4913438B6000F021F802460B4B9B6812
:101498001B0903F00F030A49CB5C22FA03F3094A3C
:1014A8001360094B1B681846FFF77AF900231846A2
:1014B8001037BD4680BD00BF003C024000380240E6
:1014C800281B00080000002004000020B0B584B0EC
:1014D80000AF002179600021F96000213960002106
:1014E800B9605249896801F00C0108290DD0082912
:1014F80000F29480002902D0042903D08EE04C4BDE
:10150800BB608EE04B4BBB608BE04849496801F0FB
:101518003F0179604549496801F48001002924D0D8
:1015280042494968890908464FF0000140F2FF1412
:101538004FF0000500EA040201EA05033D4901FBFA
:1015480003F0002101FB02F144183A49A2FB010112
:10155800631819467B681A464FF00003FEF730FE01
:1015680002460B461346FB604AE0304B5B689B091A
:101578001A464FF0000340F2FF104FF0000102EA54
:10158800000403EA0105204629464FF000024FF007
:1015980000034B0143EAD063420110461946001B81
:1015A80061EB05014FF000024FF000038B0143EAA5
:1015B80090638201121A63EB01034FF000004FF0B1
:1015C8000001D90041EA5271D00002460B461219B7
:1015D80045EB03034FF000004FF00001990241EA88
:1015E8009251900202460B46104619467B681A46ED
:1015F8004FF00003FEF7E4FD02460B461346FB607E
:101608000A4B5B681B0C03F0030301335B003B6070
:10161800FA683B68B2FBF3F3BB6002E0044BBB60C3
:1016280000BFBB6818461037BD46B0BD0038024041
:101638000024F40040787D0180B582B000AF00231B
:10164800FB7126E0FB79503BDBB20021184600F025
:101658002BF80021002000F027F80021102000F0CE
:1016680023F80023BB710DE0BA79FB790D49D2004C
:101678000A4413441B780121184600F015F8BB7979
:101688000133BB7197F90630002BEDDAFB79013392
:10169800FB71FB79072BD5D900BF00BF0837BD46C2
:1016A80080BD00BF2C00002080B584B000AF034689
:1016B8000A46FB711346BB71BB79002B06D0012289
:1016C8004FF480711C48FFF761FB05E000224FF4DE
:1016D80080711948FFF75AFB0023FB731EE00022B4
:1016E80020211548FFF752FB97F90730002B05DA40
:1016F800012240211048FFF749FB04E00022402165
:101708000D48FFF743FB012220210B48FFF73EFB62
:10171800FB795B00FB71FB7B0133FB73FB7B072BC6
:10172800DDD901224FF480710348FFF72FFB00BF7A
:101738001037BD4680BD00BF0010024080B582B0A2
:1017480000AF0023FB7114E00023BB710AE0BA79F3
:10175800FB790C49D2000A44134400221A70BB7961
:101768000133BB7197F90630002BF0DAFB790133AE
:10177800FB71FB79072BE7D9FFF75EFF00BF08373E
:10178800BD4680BD2C00002080B485B000AF034664
:10179800FB710B46BB7113467B710023FB7397F9F2
:1017A8000730002B41DBBB793F2B3ED8BB79DB08E8
:1017B800DBB2C3F10703BB73BB7903F007037B7389
:1017C8007B7BC3F10703012202FA03F3FB737B79E6
:1017D800002B12D0FA79BB7B1749D2000A44134474
:1017E8001878FA79BB7BF97B0143C8B21249D20059
:1017F8000A44134402461A7018E0FA79BB7B0E4972
:10180800D2000A4413441B785AB297F90F30DB43CD
:101818005BB2134059B2FA79BB7BC8B20649D20011
:101828000A44134402461A7000E000BF1437BD464C
:101838005DF8047B704700BF2C00002090B585B090
:1018480000AF0446084611461A462346FB71034674
:10185800BB710B467B7113463B71BB793B737B793C
:10186800203B7B710023BB734DE03B790C2B0BD1E4
:101878007A79B97B284813465B0013449B000344DC
:101888000B441B78FB7307E07A79BB7B2349120171
:101898000A4413441B78FB7300237B732DE097F9EC
:1018A8000F30002B07DA97F82020B979FB79184612
:1018B800FFF76AFF0CE097F82030002B0CBF0123DC
:1018C8000023DBB21A46B979FB791846FFF75CFFAB
:1018D800FB7B5B00FB73BB790133BB71BA793B7B44
:1018E800D21A3B799A4205D13B7BBB71FB79013314
:1018F800FB7105E07B7B01337B737B7B072BCED9A8
:10190800BB7B0133BB73BA7B3B799A42ADD300BF33
:1019180000BF1437BD4690BD381B0008AC1F000837
:1019280080B584B002AF03463A60FB710B46BB71C9
:101938001FE0FB797A2B04D90023FB71BB791033A4
:10194800BB71BB793A2B05D90023FB71FB79BB71BD
:10195800FFF7F4FE3B681A78B979F8790123009308
:101968000C23FFF76BFFFB790833FB713B680133EE
:101978003B603B681B78002BDBD100BF00BF0837FA
:10198800BD4680BD80B500AFFFF71AFA414B1B6F0B
:10199800404A23F0010313673E4B1B6F3D4A23F077
:1019A80004031367FFF720FA002280213A48FFF763
:1019B800EDF96420FEF744FF012280213648FFF745
:1019C800E5F90021AE20FFF76FFE0021D520FFF7D3
:1019D8006BFE00215020FFF767FE0021A820FFF7CB
:1019E80063FE00213F20FFF75FFE0021D320FFF7B1
:1019F8005BFE00210020FFF757FE00214020FFF783
:101A080053FE00218D20FFF74FFE00211420FFF721
:101A18004BFE00212020FFF747FE00210220FFF7A0
:101A280043FE0021A120FFF73FFE0021C020FFF761
:101A38003BFE0021DA20FFF737FE00211220FFF7D6
:101A480033FE00218120FFF72FFE0021EF20FFF752
:101A58002BFE0021D920FFF727FE0021F120FFF7F8
:101A680023FE0021DB20FFF71FFE00213020FFF7B7
:101A78001BFE0021A420FFF717FE0021A620FFF778
:101A880013FE0021AF20FFF70FFEFFF757FE00BF40
:101A980080BD00BF003802400010024070B50D4DF7
:101AA8000D4C641BA4100026A64209D10B4D0C4C0A
:101AB80000F020F8641BA4100026A64205D170BDD2
:101AC80055F8043B98470136EEE755F8043B98472C
:101AD8000136F2E7A4250008A4250008A42500087B
:101AE800A825000802440346934200D1704703F832
:101AF800011BF9E7F8B500BFF8BC08BC9E46704763
:0C1B0800F8B500BFF8BC08BC9E46704752
:101B140068656C6C6F20776F726C64000000000065
:101B240000000000000000000000000001020304A7
:101B34000607080900000000000000000000000083
:101B4400000000003F4000000000000000003000E2
:101B5400400030004000000009000BC03D000BC0F5
:101B64003D00090018C024407FE02240318000007D
:101B7400180024C01B000D803240018003801C40EB
:101B840027401C8007400040100060000000000057
:101B9400000000000000000000001F8020404020E2
:101BA4000000402020401F800000000009000600C3
:101BB4001F80060009000000040004003F800400A8
:101BC400040000000010006000000000000000009D
:101BD40004000400040004000400000000000040AD
:101BE4000000000000000000002001C006003800D2
:101BF400400000001F802040204020401F80000043
:101C0400000010403FC000400000000018C0214008
:101C140022402440184000001080204024402440EA
:101C24001B80000002000D0011003FC001400000B5
:101C34003C80244024402440238000001F80244012
:101C440024403440038000003000200027C03800C6
:101C5400200000001B802440244024401B800000FE
:101C64001C0022C0224022401F800000000000000F
:101C740008400000000000000000000004600000B4
:101C840000000000000004000A0011002080404011
:101C94000900090009000900090000000000404093
:101CA400208011000A0004001800200023402400B2
:101CB400180000001F802040274029401F400000DA
:101CC400004007C039000F0001C0004020403FC061
:101CD400244024401B8000001F80204020402040DE
:101CE4003080000020403FC0204020401F80000082
:101CF40020403FC024402E4030C0000020403FC060
:101D040024402E00300000000F00108020402240AC
:101D14003380020020403FC0040004003FC0204044
:101D2400204020403FC02040204000000060202090
:101D340020203FC02000200020403FC024400B0052
:101D440030C0204020403FC020400040004000C040
:101D54003FC03C0003C03C003FC0000020403FC0E7
:101D64000C4023003FC020001F8020402040204022
:101D74001F80000020403FC02440240018000000C1
:101D84001F802140214020E01FA0000020403FC0D0
:101D94002440260019C0004018C02440244022409A
:101DA40031800000300020403FC02040300000005F
:101DB40020003F80004000403F80200020003E0083
:101DC40001C0070038002000380007C03C0007C0ED
:101DD40038000000204039C0060039C0204000000F
:101DE4002000384007C0384020000000304021C0A7
:101DF4002640384020C00000000000007FE0402062
:101E040040200000000070000C000380004000002F
:101E14000000402040207FE000000000000020007F
:101E2400400020000000000000100010001000100E
:101E3400001000100000000040000000000000003E
:101E4400000002800540054003C0004020003FC060
:101E54000440044003800000000003800440044068
:101E64000640000000000380044024403FC00040BE
:101E740000000380054005400340000000000440CA
:101E84001FC0244024402000000002E005500550FB
:101E94000650042020403FC00440040003C000401A
:101EA4000000044027C000400000000000100010A3
:101EB400041027E00000000020403FC0014007005C
:101EC40004C00440204020403FC0004000400000C7
:101ED40007C0040007C0040003C00000044007C09A
:101EE4000440040003C00040000003800440044098
:101EF40003800000041007F0045004400380000035
:101F0400000003800440045007F00010044007C0A0
:101F140002400400040000000000064005400540A3
:101F240004C00000000004001F80044000400000C2
:101F3400040007800040044007C00040040007007C
:101F440004C0018006000400060001C0070001C0AF
:101F540006000000044006C0010006C00440000062
:101F64000410071004E0018006000400000004408F
:101F740005C00640044000000000000004007BE0AF
:101F840040200000000000000000FFF000000000FE
:101F9400000040207BE004000000000040008000BE
:101FA400400020002000400000000000000000006D
:101FB40000000000000000000000000000001FCC32
:101FC400000C000000000000000008003000600069
:101FD4000800300060000000022003FC1E200220E4
:101FE40003FC1E200220000000000E1811043FFF15
:101FF40010840C78000000000F0010840F3800C01B
:10200400077818840078000000780F8410C4112425
:102014000E9800E4008400080800680070000000C6
:10202400000000000000000000000000000007E0C5
:102034001818200440020000000040022004181870
:1020440007E00000000000000240024001800FF0A1
:1020540001800240024000000080008000800FF8F0
:1020640000800080008000000001000D000E0000D0
:1020740000000000000000000000008000800080DC
:1020840000800080008000800000000C000C000034
:1020940000000000000000000000000600180060BE
:1020A4000180060018002000000007F00808100452
:1020B4001004080807F000000000080408041FFCCE
:1020C400000400040000000000000E0C1014102492
:1020D400104411840E0C000000000C1810041104AC
:1020E400110412880C700000000000E00320042496
:1020F40008241FFC0024000000001F981084110411
:102104001104108810700000000007F00888110402
:10211400110418880070000000001C00100010FC5E
:1021240013001C001000000000000E38114410843D
:10213400108411440E38000000000700088C10447D
:102144001044088807F00000000000000000030CA1
:10215400030C000000000000000000000001010664
:102164000000000000000000000000800140022088
:10217400041008081004000002200220022002209B
:1021840002200220022000000000100408080410AD
:10219400022001400080000000000E001200100C1C
:1021A400106C10800F00000003E00C1813E41424DA
:1021B40017C4082807D000000004003C03C41C40D6
:1021C400074000E4001C000410041FFC1104110467
:1021D40011040E880070000003E00C1810041004B1
:1021E400100410081C10000010041FFC100410043C
:1021F4001004080807F0000010041FFC1104110467
:1022040017C410040818000010041FFC1104110066
:1022140017C010000800000003E00C18100410049C
:1022240010441C780040000010041FFC108400803F
:10223400008010841FFC10040000100410041FFC14
:10224400100410040000000000030001100110013C
:102254001FFE10001000000010041FFC1104038076
:102264001464181C1004000010041FFC1004000463
:1022740000040004000C000010041FFC1F0000FCFC
:102284001F001FFC1004000010041FFC0C040300BA
:1022940000E010181FFC100007F0080810041004D8
:1022A4001004080807F0000010041FFC10841080BC
:1022B400108010800F00000007F00818102410246C
:1022C400101C080A07F2000010041FFC110411007E
:1022D40011C011300E0C000400000E1C11041084F7
:1022E400108410441C3800001800100010041FFC57
:1022F400100410001800000010001FF8100400045F
:10230400000410041FF8100010001E0011E0001C4F
:10231400007013801C0010001FC0103C00E01F0060
:1023240000E0103C1FC000001004180C163401C05B
:1023340001C01634180C100410001C00130400FC17
:1023440013041C00100000000804101C1064108406
:1023540013041C04101800000000000000007FFE9D
:102364004002400240020000000030000C000380E4
:102374000060001C00030000000040024002400214
:102384007FFE00000000000000000000200040006C
:102394004000400020000000000100010001000195
:1023A4000001000100010001000040004000200085
:1023B4000000000000000000000000980124014417
:1023C4000144014400FC000410001FFC00880104C7
:1023D40001040088007000000000007000880104FF
:1023E400010401040088000000000070008801045A
:1023F400010411081FFC0004000000F8014401441A
:102404000144014400C800000000010401040FFC61
:102414001104110411001800000000D6012901293B
:10242400012901C90106000010041FFC00840100F9
:102434000100010400FC000400000104190419FC5B
:10244400000400040000000000000003000101017A
:10245400190119FE0000000010041FFC00240040B4
:1024640001B4010C010400000000100410041FFC5E
:102474000004000400000000010401FC0104010048
:1024840001FC0104010000FC010401FC00840100C2
:102494000100010400FC0004000000F80104010430
:1024A4000104010400F80000010101FF008501049A
:1024B400010400880070000000000070008801041E
:1024C4000104010501FF00010104010401FC008471
:1024D4000104010001800000000000CC012401245B
:1024E400012401240198000000000100010007F804
:1024F4000104010400000000010001F800040004CC
:102504000004010801FC0004010001800170000CBA
:10251400001001600180010001F0010C003001C0D5
:102524000030010C01F0010000000104018C007472
:102534000170018C01040000010101810171000E90
:10254400001801600180010000000184010C0134C5
:1025540001440184010C00000000000000000000A0
:1025640001003EFC400240020000000000000000A8
:10257400FFFF0000000000000000400240023EFC9B
:1025840001000000000000000000600080008000E6
:0825940040004000200020007F
:08259C005CDCFF7F0100000080
:0425A400AD0100087D
:0425A800890100089D
:0C25AC000024F4001000000001000000FA
:0400000508000711D7
:00000001FF
