:020000040800F2
:10000000000002200D1F0008211E0008271E000806
:100010002D1E0008331E0008391E000800000000D5
:10002000000000000000000000000000C1670008A0
:100030003F1E000800000000116A00084D1E000865
:100040005D1F00085D1F00085D1F00085D1F0008A0
:100050005D1F00085D1F00085D1F00085D1F000890
:100060005D1F00085D1F00085D1F00085D1F000880
:100070005D1F00085D1F00085D1F00085D1F000870
:100080005D1F00085D1F00085D1F00085D1F000860
:100090005D1F00085D1F00085D1F00085D1F000850
:1000A0005D1F00085D1F00085D1F00085D1F000840
:1000B0005D1F00085D1F00085D1F00085D1F000830
:1000C0005D1F00085D1F00085D1F00085D1F000820
:1000D0005D1F00085D1F00085D1F0008691E000805
:1000E0005D1F00085D1F00085D1F00085D1F000800
:1000F0005D1F00085D1F00085D1F00085D1F0008F0
:100100005D1F00085D1F00085D1F00085D1F0008DF
:100110005D1F00085D1F00085D1F00085D1F0008CF
:100120005D1F00085D1F00085D1F00085D1F0008BF
:100130005D1F00085D1F00085D1F00085D1F0008AF
:100140005D1F00085D1F00085D1F00085D1F00089F
:100150005D1F00085D1F00085D1F00085D1F00088F
:100160005D1F00085D1F00085D1F00085D1F00087F
:100170005D1F00085D1F00085D1F000800000000F3
:080180005D1F00085D1F00086F
:1001900010B5054C237833B9044B13B10448AFF3C1
:1001A00000800123237010BD8000002000000000AB
:1001B000D099000808B5034B1BB103490348AFF3BE
:1001C000008008BD0000000084000020D0990008D5
:1001D00001F0FF01102A2BDB10F0070F08D010F8F8
:1001E000013B013A8B422DD010F0070F42B3F6D1FC
:1001F000F0B441EA012141EA014122F007047FF015
:1002000000070023F0E80256083C85EA010586EA6B
:10021000010685FA47F5A3FA87F586FA47F6A5FAA7
:1002200087F68EB9EED1F0BC01F0FF0102F00702B3
:1002300032B110F8013B013A83EA010313B1F8D15E
:100240000020704701387047002D06BF354603383F
:10025000073815F0010F07D1013015F4807F02BF78
:10026000013015F4C03F0130F0BC0138704700BFC9
:1002700081F0004102E000BF83F0004330B54FEA57
:1002800041044FEA430594EA050F08BF90EA020FC4
:100290001FBF54EA000C55EA020C7FEA645C7FEA57
:1002A000655C00F0E2804FEA5454D4EB5555B8BF7A
:1002B0006D420CDD2C4480EA020281EA030382EAEB
:1002C000000083EA010180EA020281EA0303362D7D
:1002D00088BF30BD11F0004F4FEA01314FF4801C50
:1002E0004CEA113102D0404261EB410113F0004F62
:1002F0004FEA03334CEA133302D0524263EB430319
:1003000094EA050F00F0A780A4F10104D5F1200EB6
:100310000DDB02FA0EFC22FA05F2801841F1000111
:1003200003FA0EF2801843FA05F359410EE0A5F1E5
:1003300020050EF1200E012A03FA0EFC28BF4CF016
:10034000020C43FA05F3C01851EBE37101F00045CC
:1003500007D54FF0000EDCF1000C7EEB00006EEBD9
:100360000101B1F5801F1BD3B1F5001F0CD3490863
:100370005FEA30004FEA3C0C04F101044FEA4452BA
:1003800012F5800F80F09A80BCF1004F08BF5FEA41
:10039000500C50F1000041EB045141EA050130BD21
:1003A0005FEA4C0C404141EB0101013C28BFB1F533
:1003B000801FE9D291F0000F04BF01460020B1FA7E
:1003C00081F308BF2033A3F10B03B3F120020CDA51
:1003D0000C3208DD02F1140CC2F10C0201FA0CF02F
:1003E00021FA02F10CE002F11402D8BFC2F1200C94
:1003F00001FA02F120FA0CFCDCBF41EA0C0190404A
:10040000E41AA2BF01EB0451294330BD6FEA040492
:100410001F3C1CDA0C340EDC04F11404C4F120027D
:1004200020FA04F001FA02F340EA030021FA04F38F
:1004300045EA030130BDC4F10C04C4F1200220FAE6
:1004400002F001FA04F340EA0300294630BD21FA24
:1004500004F0294630BD94F0000F83F4801306BFEA
:1004600081F480110134013D4EE77FEA645C18BFDE
:100470007FEA655C29D094EA050F08BF90EA020F75
:1004800005D054EA000C04BF1946104630BD91EA6D
:10049000030F1EBF0021002030BD5FEA545C05D170
:1004A0004000494128BF41F0004130BD14F58004AF
:1004B0003CBF01F5801130BD01F0004545F0FE4123
:1004C00041F470014FF0000030BD7FEA645C1ABF58
:1004D000194610467FEA655C1CBF0B46024650EA8F
:1004E000013406BF52EA033591EA030F41F40021BB
:1004F00030BD00BF90F0000F04BF0021704730B541
:100500004FF4806404F132044FF000054FF0000115
:1005100050E700BF90F0000F04BF0021704730B5D6
:100520004FF4806404F1320410F0004548BF4042AB
:100530004FF000013EE700BF42004FEAE2014FEA00
:1005400031014FEA02701FBF12F07F4393F07F4FDB
:1005500081F06051704732F07F4208BF704793F0DE
:100560007F4F04BF41F40021704730B54FF46074F1
:1005700001F0004521F000411CE700BF50EA0102F4
:1005800008BF704730B54FF000050AE050EA01029D
:1005900008BF704730B511F0004502D5404261EB0D
:1005A00041014FF4806404F132045FEA915C3FF44E
:1005B000D8AE4FF003025FEADC0C18BF03325FEAEB
:1005C000DC0C18BF033202EBDC02C2F1200300FA9C
:1005D00003FC20FA02F001FA03FE40EA0E0021FAC1
:1005E00002F11444BDE600BF70B54FF0FF0C4CF4AF
:1005F000E06C1CEA11541DBF1CEA135594EA0C0F61
:1006000095EA0C0F00F0DEF82C4481EA030621EA9B
:100610004C5123EA4C5350EA013518BF52EA0335D6
:1006200041F4801143F4801338D0A0FB02CE4FF088
:100630000005E1FB02E506F00042E0FB03E54FF0B8
:100640000006E1FB03569CF0000F18BF4EF0010EB0
:10065000A4F1FF04B6F5007F64F5407404D25FEAAC
:100660004E0E6D4146EB060642EAC62141EA55515F
:100670004FEAC52040EA5E504FEACE2EB4F1FD0CA1
:1006800088BFBCF5E06F1ED8BEF1004F08BF5FEA1F
:10069000500E50F1000041EB045170BD06F00046D1
:1006A00046EA010140EA020081EA0301B4EB5C047E
:1006B000C2BFD4EB0C0541EA045170BD41F4801176
:1006C0004FF0000E013C00F3AB8014F1360FDEBF9B
:1006D000002001F0004170BDC4F10004203C35DA77
:1006E0000C341BDC04F11404C4F1200500FA05F3FA
:1006F00020FA04F001FA05F240EA020001F000429B
:1007000021F0004110EBD37021FA04F642EB060110
:100710005EEA430E08BF20EAD37070BDC4F10C043A
:10072000C4F1200500FA04F320FA05F001FA04F2FE
:1007300040EA020001F0004110EBD37041F10001EA
:100740005EEA430E08BF20EAD37070BDC4F12005F5
:1007500000FA05F24EEA020E20FA04F301FA05F25D
:1007600043EA020321FA04F001F0004121FA04F205
:1007700020EA020000EBD3705EEA430E08BF20EAD5
:10078000D37070BD94F0000F0FD101F0004640000F
:1007900041EB010111F4801F08BF013CF7D041EA91
:1007A000060195F0000F18BF704703F00046520095
:1007B00043EB030313F4801F08BF013DF7D043EA66
:1007C0000603704794EA0C0F0CEA135518BF95EA1C
:1007D0000C0F0CD050EA410618BF52EA4306D1D1A3
:1007E00081EA030101F000414FF0000070BD50EAC2
:1007F000410606BF1046194652EA430619D094EA4C
:100800000C0F02D150EA013613D195EA0C0F05D135
:1008100052EA03361CBF104619460AD181EA030189
:1008200001F0004141F0FE4141F470014FF0000041
:1008300070BD41F0FE4141F4780170BD70B54FF0DC
:10084000FF0C4CF4E06C1CEA11541DBF1CEA13555C
:1008500094EA0C0F95EA0C0F00F0A7F8A4EB05043E
:1008600081EA030E52EA03354FEA013100F0888035
:100870004FEA03334FF0805545EA131343EA1263FE
:100880004FEA022245EA111545EA10654FEA0026B3
:100890000EF000419D4208BF964244F1FD0404F56C
:1008A000407402D25B084FEA3202B61A65EB0305C8
:1008B0005B084FEA32024FF480104FF4002CB6EB85
:1008C000020E75EB030E22BFB61A754640EA0C0005
:1008D0005B084FEA3202B6EB020E75EB030E22BF45
:1008E000B61A754640EA5C005B084FEA3202B6EB86
:1008F000020E75EB030E22BFB61A754640EA9C0045
:100900005B084FEA3202B6EB020E75EB030E22BF14
:10091000B61A754640EADC0055EA060E18D04FEAD2
:10092000051545EA16754FEA06164FEAC30343EA72
:1009300052734FEAC2025FEA1C1CC0D111F4801F3F
:100940000BD141EA00014FF000004FF0004CB6E738
:1009500011F4801F04BF01430020B4F1FD0C88BFD7
:10096000BCF5E06F3FF6AFAEB5EB030C04BFB6EBE2
:10097000020C5FEA500C50F1000041EB045170BDD5
:100980000EF0004E4EEA113114EB5C04C2BFD4EB02
:100990000C0541EA045170BD41F480114FF0000E86
:1009A000013C90E645EA060E8DE60CEA135594EA02
:1009B0000C0F08BF95EA0C0F3FF43BAF94EA0C0F05
:1009C0000AD150EA01347FF434AF95EA0C0F7FF47A
:1009D00025AF104619462CE795EA0C0F06D152EACE
:1009E00003353FF4FDAE1046194622E750EA4106B2
:1009F00018BF52EA43067FF4C5AE50EA41047FF4C3
:100A00000DAF52EA43057FF4EBAE12E74FEA410225
:100A100012F5001215D211D56FF47873B3EB625250
:100A200012D94FEAC12343F0004343EA505311F077
:100A3000004F23FA02F018BF404270474FF0000009
:100A4000704750EA013005D111F0004008BF6FF047
:100A5000004070474FF00000704700BF4A0011D2BD
:100A600012F5001211D20DD56FF47873B3EB625208
:100A70000ED44FEAC12343F0004343EA505323FA14
:100A800002F070474FF00000704750EA013002D189
:100A90004FF0FF3070474FF00000704753B94AB92C
:100AA000002908BF00281CBF4FF0FF314FF0FF3076
:100AB00000F074B9ADF1080C6DE904CE00F006F851
:100AC000DDF804E0DDE9022304B070472DE9F047CA
:100AD000089D04468E46002B4DD18A42944669D922
:100AE000B2FA82F252B101FA02F3C2F1200120FA05
:100AF00001F10CFA02FC41EA030E94404FEA1C4853
:100B0000210CBEFBF8F61FFA8CF708FB16E341EA4E
:100B1000034306FB07F199420AD91CEB030306F1D4
:100B2000FF3080F01F81994240F21C81023E6344F5
:100B30005B1AA4B2B3FBF8F008FB103344EA034499
:100B400000FB07F7A7420AD91CEB040400F1FF33AE
:100B500080F00A81A74240F207816444023840EAEB
:100B60000640E41B00261DB1D4400023C5E9004324
:100B70003146BDE8F0878B4209D9002D00F0EF80A7
:100B80000026C5E9000130463146BDE8F087B3FADA
:100B900083F6002E4AD18B4202D3824200F2F980C2
:100BA000841A61EB030301209E46002DE0D0C5E9C5
:100BB000004EDDE702B9FFDEB2FA82F2002A40F011
:100BC0009280A1EB0C014FEA1C471FFA8CFE012614
:100BD000200CB1FBF7F307FB131140EA01410EFBB8
:100BE00003F0884208D91CEB010103F1FF3802D25F
:100BF000884200F2CB804346091AA4B2B1FBF7F059
:100C000007FB101144EA01440EFB00FEA64508D97B
:100C10001CEB040400F1FF3102D2A64500F2BB80B8
:100C20000846A4EB0E0440EA03409CE7C6F1200707
:100C3000B34022FA07FC4CEA030C20FA07F401FA4D
:100C400006F31C43F9404FEA1C4900FA06F3B1FBD6
:100C5000F9F8200C1FFA8CFE09FB181140EA01413B
:100C600008FB0EF0884202FA06F20BD91CEB0101D8
:100C700008F1FF3A80F08880884240F28580A8F130
:100C800002086144091AA4B2B1FBF9F009FB101182
:100C900044EA014100FB0EFE8E4508D91CEB010120
:100CA00000F1FF346CD28E456AD90238614440EAC3
:100CB0000840A0FB0294A1EB0E01A142C846A64643
:100CC00056D353D05DB1B3EB080261EB0E0101FACC
:100CD00007F722FA06F3F1401F43C5E90071002629
:100CE0003146BDE8F087C2F12003D8400CFA02FC7F
:100CF00021FA03F3914001434FEA1C471FFA8CFE8F
:100D0000B3FBF7F007FB10360B0C43EA064300FB7E
:100D10000EF69E4204FA02F408D91CEB030300F11C
:100D2000FF382FD29E422DD9023863449B1B89B2D3
:100D3000B3FBF7F607FB163341EA034106FB0EF35C
:100D40008B4208D91CEB010106F1FF3816D28B4209
:100D500014D9023E6144C91A46EA004638E72E46D5
:100D6000284605E70646E3E61846F8E64B45A9D2CD
:100D7000B9EB020864EB0C0E0138A3E74646EAE73C
:100D8000204694E74046D1E7D0467BE7023B6144EA
:100D900032E7304609E76444023842E7704700BF53
:100DA00080B500AF01F0DCF800F066F800F00AFB57
:100DB00000F034FA00F08AF900F0DCF900F0E8F80D
:100DC00000F0D6FA00F0B6F808F0D6F807F09AFE70
:100DD00004221849184804F03CF905F099F8174A1C
:100DE0000021174805F0DEF80346164A1360164A3C
:100DF0000021164805F0D6F80346154A1360154A37
:100E00000021154805F0CEF80346144A1360144A31
:100E10000021144805F0C6F80346134A1360134A2C
:100E20000021134805F0BEF80346124A136005F08E
:100E300093F8FEE76802002010020020889A00085C
:100E40009915000854020020AC9A0008B11500085A
:100E500058020020D09A0008551800085C020020B3
:100E6000F49A00088118000860020020189B00080E
:100E7000611900086402002080B594B000AF07F14A
:100E8000200330220021184608F03AF907F10C033C
:100E900000221A605A609A60DA601A610023BB600F
:100EA000224B1B6C214A43F0805313641F4B1B6C75
:100EB00003F08053BB60BB6800237B601C4B1B6846
:100EC0001B4A43F480431360194B1B6803F48043AF
:100ED0007B607B6802233B620123FB6210233B6340
:100EE0000023BB6307F12003184602F001FC034610
:100EF000002B01D000F098FD0F23FB6000233B6125
:100F000000237B610023BB610023FB6107F10C031D
:100F10000021184602F064FE0346002B01D000F0C9
:100F200083FD00BF5037BD4680BD00BF0038024082
:100F30000070004080B500AF124B134A1A60114B8D
:100F4000124A5A600F4B00229A600E4B0022DA6060
:100F50000C4B4FF480421A610A4B00225A61094B34
:100F600000229A61074B0022DA61064B00221A62C6
:100F7000044801F0FFFB0346002B01D000F054FDB4
:100F800000BF80BD9C00002000540040A0860100EE
:100F900080B596B000AF07F1480300221A605A608E
:100FA0009A60DA6007F1400300221A605A6007F184
:100FB000240300221A605A609A60DA601A615A614A
:100FC0009A613B1D20220021184608F099F83D4BFC
:100FD0003D4A1A603B4BA0225A603A4B00229A606D
:100FE000384B4FF47A72DA60364B00221A61354B77
:100FF00000225A61334B80229A61324802F0D0FFBE
:101000000346002B01D000F00FFD4FF48053BB646A
:1010100007F1480319462B4803F028FB0346002B31
:1010200001D000F001FD274803F009F80346002B2A
:1010300001D000F0F9FC00233B6400237B6407F13E
:10104000400319461F4803F0E9FE0346002B01D078
:1010500000F0EAFC60237B620023BB620023FB629A
:1010600000237B630023BB630023FB6307F124039E
:101070000C221946134803F037FA0346002B01D01F
:1010800000F0D2FC00237B600023BB600023FB60E8
:1010900000233B6100237B614FF40053BB610023BD
:1010A0003B623B1D1946074803F034FF0346002B03
:1010B00001D000F0B9FC034800F028FE00BF58370B
:1010C000BD4680BDF00000200000014080B58CB01E
:1010D00000AF07F10C0324220021184608F010F895
:1010E0003B1D00221A605A60214B4FF080421A606B
:1010F0001F4B00225A601E4B00229A601C4B4FF679
:10110000FF72DA601A4B00221A61194B00229A61B1
:101110000323FB6000233B6101237B610023BB6150
:101120000A23FB6100233B6201237B620023BB6235
:101130000A23FB6207F10C0319460D4803F0A0F8DF
:101140000346002B01D000F06FFC00237B600023DE
:10115000BB603B1D1946064803F060FE0346002BAA
:1011600001D000F061FC00BF3037BD4680BD00BF3C
:101170003801002080B58CB000AF07F10C032422A9
:101180000021184607F0BCFF3B1D00221A605A6080
:10119000204B214A1A601F4B00225A601D4B00222F
:1011A0009A601C4B4FF6FF72DA601A4B00221A61EC
:1011B000184B00229A610323FB6000233B6101234B
:1011C0007B610023BB610A23FB6100233B62012397
:1011D0007B620023BB620A23FB6207F10C03194602
:1011E0000C4803F04DF80346002B01D000F01CFC26
:1011F00000237B600023BB603B1D1946054803F0BC
:101200000DFE0346002B01D000F00EFC00BF30376E
:10121000BD4680BD800100200004004080B596B02E
:1012200000AF07F1480300221A605A609A60DA6042
:1012300007F1400300221A605A6007F124030022DC
:101240001A605A609A60DA601A615A619A613B1DAD
:1012500020220021184607F053FF434B434A1A60EF
:10126000414B00225A60404B00229A603E4B41F6AF
:101270001F42DA603C4B00221A613B4B00225A614C
:10128000394B00229A61384802F08AFE0346002B4F
:1012900001D000F0C9FB4FF48053BB6407F1480351
:1012A0001946314803F0E2F90346002B01D000F063
:1012B000BBFB2D4802F0C3FE0346002B01D000F01B
:1012C000B3FB00233B6400237B6407F14003194612
:1012D000254803F0A3FD0346002B01D000F0A4FB3A
:1012E00060237B620023BB620023FB6200233B631D
:1012F00000237B630023BB630023FB6307F124030C
:1013000000221946184803F0EFF80346002B01D0DD
:1013100000F08AFB07F1240304221946124803F067
:10132000E3F80346002B01D000F07EFB00237B6036
:101330000023BB600023FB6000233B6100237B6133
:101340004FF40053BB6100233B623B1D1946064826
:1013500003F0E0FD0346002B01D000F065FB00BF69
:101360005837BD4680BD00BFC801002000040140C1
:1013700080B500AF114B124A1A60104B4FF4E132A6
:101380005A600E4B00229A600C4B0022DA600B4B25
:1013900000221A61094B0C225A61084B00229A6103
:1013A000064B0022DA61054803F006FE0346002BD7
:1013B00001D000F039FB00BF80BD00BF100200204B
:1013C0000048004080B58AB000AF07F11403002246
:1013D0001A605A609A60DA601A6100233B61314BEF
:1013E0001B6B304A43F0100313632E4B1B6B03F04F
:1013F00010033B613B690023FB602A4B1B6B294AAE
:1014000043F001031363274B1B6B03F00103FB60E5
:10141000FB680023BB60234B1B6B224A43F0040391
:101420001363204B1B6B03F00403BB60BB680023FA
:101430007B601C4B1B6B1B4A43F002031363194B6D
:101440001B6B03F002037B607B6800224FF4BC61DE
:10145000154801F05BF900223C21144801F056F9CF
:101460004FF4BC637B610123BB610023FB6100235C
:101470003B6207F1140319460B4800F0ABFF3C2315
:101480007B610123BB610023FB6102233B6207F107
:1014900014031946054800F09DFF00BF2837BD46DC
:1014A00080BD00BF00380240001002400000024032
:1014B00080B590B000AF7860204B1A78204B1A703E
:1014C0001E4B5A781F4B1A701C4B9A781E4B1A7081
:1014D0001A4BDA781D4B1A70042218491C4803F085
:1014E000B8FD174B1B781A46164B1B78303B07F19B
:1014F0000C00184907F00CFE07F10C031A461421E2
:101500000A2007F007FD104B1B781A460F4B1B787B
:10151000303B07F10C00104907F0FAFD07F10C030E
:101520001A461E210A2007F0F5FC4FF480610B4893
:1015300001F005F900BF4037BD4680BD68020020BC
:101540000000002001000020020000200300002015
:1015500010020020249A0008349A0008001002406B
:1015600080B400AF084B77221A70084B30221A70F3
:10157000074B61221A70074B30221A7000BFBD461C
:101580005DF8047B704700BF0000002001000020D0
:10159000020000200300002080B582B000AF786018
:1015A00041F2883004F090FDFAE7000000000000EE
:1015B00090B589B000AF786003237B814FF00002C3
:1015C0009B4BC7E906234FF00002994BC7E9042360
:1015D0000023FB810A233B810021964802F088FD0D
:1015E0000421944802F084FD0C21934802F080FD10
:1015F00001237B73914B1B78612B2AD1904B1B8865
:101600001946904B1B78303B7A8902FB03F3CA1AC8
:10161000894B1B681A648B4B1B78303B1846FEF7CE
:1016200079FF81A3D3E90023FEF7DEFF02460B46D4
:10163000104619464FF000027D4BFEF71FFE024692
:101640000B46C7E906234FF00002794BC7E9042394
:101650002DE07A4B1B78642B29D1794B1B881946D6
:10166000784B1B78303B7A8902FB03F3CA18724B24
:101670001B681A644FF000026D4BC7E90623714BDB
:101680001B78303B1846FEF745FF67A3D3E90023DC
:10169000FEF7AAFF02460B46104619464FF000021D
:1016A000634BFEF7EBFD02460B46C7E90423664B8E
:1016B0001B78772B58D101220421644801F026F8C9
:1016C00000220821614801F021F8012220215F4811
:1016D00001F01CF8002210215C4801F017F87B7B18
:1016E000012B12D1FA893B891344FB81FA89584BAB
:1016F0001B78303B4FF4C87101FB03F39A4208DDBD
:1017000000237B73FFF72CFF03E0FA893B89D31A90
:10171000FB81FB891846FEF7FDFED7E90623FEF79D
:1017200063FF02460B4643490C6810461946FFF713
:1017300095F903466363FB891846FEF7EBFED7E98C
:101740000423FEF751FF02460B463A490C68104647
:101750001946FFF783F90346A3630A2004F0B4FC9B
:10176000FB89002BA7D15BE0374B1B78732B57D13C
:1017700000220421354800F0C9FF01220821334826
:1017800000F0C4FF00222021304800F0BFFF0122FA
:1017900010212E4800F0BAFF7B7B012B12D1FA8971
:1017A0003B891344FB81FA89294B1B78303B4FF46A
:1017B000C87101FB03F39A4208DD00237B73FFF736
:1017C000CFFE03E0FA893B89D31AFB81FB891846D7
:1017D000FEF7A0FED7E90623FEF706FF02460B46FA
:1017E00014490C6810461946FFF738F9034663633D
:1017F000FB891846FEF78EFED7E90423FEF7F4FEB8
:1018000002460B460B490C6810461946FFF726F9AD
:101810000346A3630A2004F057FCFB89002BA7D1E1
:10182000642004F051FCE3E69A9999999999A93FAB
:101830000000F03FC8010020F0000020020000205E
:1018400004000020030000200000002000000240EF
:101850000100002080B489B000AF7860074A07F12A
:101860000C0392E8030018600433198007F1120397
:1018700000221A605A609A609A81FEE7449A000832
:1018800080B58EB000AF78603C21324802F09EFDFA
:101890003C21314802F09AFD00237B6300233B6327
:1018A00000F0C4FBF8620023BB6200F0BFFB0246FD
:1018B000FB6AD31A0A2BF8D9264B1B685B6A7B623A
:1018C000254B1B685B6A3B627B6A47F6F462934276
:1018D00005DD7B6AA3F57F43FF3B7B6306E07B6A04
:1018E00047F6F362934201DC7B6A7B633B6A47F60F
:1018F000F462934205DD3B6AA3F57F43FF3B3B6304
:1019000006E03B6A47F6F362934201DC3B6A3B63C5
:101910007A6B3B6B1A4407F10C031049184607F029
:10192000F7FB07F10C031A4628210A2007F0F2FA08
:1019300007F07CF9074B1B6800225A62064B1B68B4
:1019400000225A6200F072FBF8620A2004F0BCFB2D
:10195000ABE700BF3801002080010020589A000842
:1019600080B586B000AF78600023BB8107F0CAF86D
:101970000023FB821C233B6107F10C03194637202F
:1019800007F004F93B7B1B021AB27B7B1BB21343AB
:10199000FB82B7F91630642202FB03F3023B1846C0
:1019A000FEF7B8FD1CA3D3E90023FEF747FF02466C
:1019B0000B46104619461AA3D3E90023FEF714FE7E
:1019C00002460B4610461946114BD3E90023FEF799
:1019D00055FC02460B460E49C1E900230C4BD3E9E6
:1019E000002310461946FFF711F8024607F10803D5
:1019F0000849184607F08CFB07F108031A460A212C
:101A00000A2007F087FA0A2004F05EFBB4E700BF63
:101A1000A0020020649A0008000000000004D040EA
:101A20009A9999999999F13F80B400AF72B600BF25
:101A3000FEE7000080B582B000AF00237B60124B50
:101A40005B6C114A43F4804353640F4B5B6C03F4AB
:101A500080437B607B6800233B600B4B1B6C0A4A16
:101A600043F080531364084B1B6C03F080533B60BE
:101A70003B6800220F216FF0010000F0E2FB00BF85
:101A80000837BD4680BD00BF0038024080B58AB02F
:101A900000AF786007F1140300221A605A609A6060
:101AA000DA601A617B681B68194A93422CD10023C3
:101AB0003B61184B1B6B174A43F002031363154B32
:101AC0001B6B03F002033B613B694FF440737B6186
:101AD0001223BB610023FB6103233B6204237B626F
:101AE00007F1140319460C4800F074FC0023FB6056
:101AF000084B1B6C074A43F400131364054B1B6C23
:101B000003F40013FB60FB6800BF2837BD4680BDAF
:101B100000540040003802400004024080B58AB002
:101B200000AF786007F1140300221A605A609A60CF
:101B3000DA601A617B681B68234A93420ED1002346
:101B40003B61224B5B6C214A43F0010353641F4B02
:101B50005B6C03F001033B613B6930E07B681B6811
:101B60001B4A93422BD10023FB60184B5B6C174A36
:101B700043F002035364154B5B6C03F00203FB60FC
:101B8000FB680023BB60114B1B6B104A43F004033E
:101B900013630E4B1B6B03F00403BB60BB68C023D5
:101BA0007B610223BB610023FB6100233B620323B3
:101BB0007B6207F114031946064800F00BFC00BFD6
:101BC0002837BD4680BD00BF0000014000380240FC
:101BD000000401400008024080B58CB000AF78607E
:101BE00007F11C0300221A605A609A60DA601A61D9
:101BF0007B681B68B3F1804F4BD10023BB613F4B27
:101C00001B6C3E4A43F0010313643C4B1B6C03F016
:101C10000103BB61BB6900237B61384B1B6B374AF7
:101C200043F001031363354B1B6B03F001037B612E
:101C30007B6900233B61314B1B6B304A43F002034D
:101C400013632E4B1B6B03F002033B613B694FF4A4
:101C50000043FB6102233B6200237B620023BB62E3
:101C60000123FB6207F11C031946254800F0B2FB73
:101C70000823FB6102233B6200237B620023BB62DB
:101C80000123FB6207F11C0319461E4800F0A2FB6A
:101C900030E07B681B681C4A93422BD10023FB6019
:101CA000164B1B6C154A43F002031364134B1B6C59
:101CB00003F00203FB60FB680023BB600F4B1B6B50
:101CC0000E4A43F0010313630C4B1B6B03F001033B
:101CD000BB60BB68C023FB6102233B6200237B62C5
:101CE0000023BB620223FB6207F11C031946044870
:101CF00000F070FB00BF3037BD4680BD00380240A9
:101D000000000240000402400004004080B588B09A
:101D100000AF786007F10C0300221A605A609A60E5
:101D2000DA601A617B681B68124A93421ED1002355
:101D3000BB60114B1B6B104A43F0100313630E4B37
:101D40001B6B03F01003BB60BB684FF48043FB6068
:101D500002233B6100237B610023BB610123FB6104
:101D600007F10C031946054800F034FB00BF20378B
:101D7000BD4680BD00000140003802400010024016
:101D800080B58AB000AF786007F1140300221A60B2
:101D90005A609A60DA601A617B681B681D4A934238
:101DA00034D100233B611C4B1B6C1B4A43F4802342
:101DB0001364194B1B6C03F480233B613B690023C4
:101DC000FB60154B1B6B144A43F004031363124B67
:101DD0001B6B03F00403FB60FB684FF440637B6103
:101DE0000223BB610023FB6103233B6207237B6269
:101DF00007F114031946094800F0ECFA0022052106
:101E0000272000F01EFA272000F037FA00BF2837FD
:101E1000BD4680BD00480040003802400008024036
:101E200080B400AFFEE780B400AFFEE780B400AF3F
:101E3000FEE780B400AFFEE780B400AFFEE780B4F9
:101E400000AF00BFBD465DF8047B704780B500AFB2
:101E500000F0D8F806F028FA0346012B01D004F070
:101E60000BFE00BF80BD000080B500AF024803F04C
:101E700021F900BF80BD00BF1002002080B586B0F0
:101E800000AF7860144A154BD31A7B617B693B61C4
:101E9000134B1B68002B02D1114B124A1A60104BD6
:101EA0001A687B6813443A699A4207D207F0F0F83F
:101EB00003460C221A604FF0FF3309E0084B1B6801
:101EC000FB60074B1A687B681344054A1360FB6884
:101ED00018461837BD4680BD0000022000040000EF
:101EE000A80200202850002080B400AF064BD3F891
:101EF0008830054A43F47003C2F8883000BFBD46FD
:101F00005DF8047B704700BF00ED00E0DFF834D0DF
:101F10000D480E490E4A002302E0D458C450043341
:101F2000C4188C42F9D30B4A0B4C002301E0136018
:101F30000432A242FBD3FFF7D7FF07F0AFF8FEF75A
:101F40002FFF7047000002200000002080000020CA
:101F5000FCA500088000002024500020FEE70000BF
:101F600080B500AF0E4B1B680D4A43F4007313603D
:101F70000B4B1B680A4A43F480631360084B1B68D1
:101F8000074A43F480731360032000F04FF90F20D9
:101F900000F008F8FFF74EFD0023184680BD00BF93
:101FA000003C024080B582B000AF7860124B1A68E6
:101FB000124B1B7819464FF47A73B3FBF1F3B2FB63
:101FC000F3F3184600F067F90346002B01D0012314
:101FD0000EE07B680F2B0AD8002279684FF0FF30A3
:101FE00000F02FF9064A7B681360002300E001230C
:101FF00018460837BD4680BD0800002010000020AC
:102000000C00002080B400AF064B1B781A46064B2C
:102010001B681344044A136000BFBD465DF8047B8F
:10202000704700BF10000020AC02002080B400AF59
:10203000034B1B681846BD465DF8047B704700BF24
:10204000AC02002080B584B000AF7860FFF7EEFFEF
:10205000B8607B68FB60FB68B3F1FF3F05D00A4BBB
:102060001B781A46FB681344FB6000BFFFF7DEFFD6
:102070000246BB68D31AFA689A42F7D800BF00BF7D
:102080001037BD4680BD00BF1000002080B485B071
:1020900000AF78607B6803F00703FB600C4BDB68E4
:1020A000BB60BA684FF6FF031340BB60FB681A02BF
:1020B000BB68134343F0BF6343F40033BB60044A7F
:1020C000BB68D36000BF1437BD465DF8047B704722
:1020D00000ED00E080B400AF044BDB681B0A03F0A6
:1020E00007031846BD465DF8047B704700ED00E02D
:1020F00080B483B000AF0346FB7197F90730002B23
:102100000BDBFB7903F01F02074997F907305B09E6
:10211000012000FA02F241F8232000BF0C37BD462F
:102120005DF8047B704700BF00E100E080B483B03D
:1021300000AF03463960FB7197F90730002B0ADBCB
:102140003B68DAB20C4997F907301201D2B20B445E
:1021500083F800230AE03B68DAB20849FB7903F010
:102160000F03043B1201D2B20B441A7600BF0C37A6
:10217000BD465DF8047B704700E100E000ED00E043
:1021800080B489B000AFF860B9607A60FB6803F092
:102190000703FB61FB69C3F10703042B28BF04237A
:1021A000BB61FB690433062B02D9FB69033B00E0EA
:1021B00000237B614FF0FF32BB6902FA03F3DA437D
:1021C000BB681A407B699A404FF0FF317B6901FA86
:1021D00003F3D9437B680B40134318462437BD46AD
:1021E0005DF8047B7047000080B582B000AF786076
:1021F0007B68013BB3F1807F01D301230FE00A4AE2
:102200007B68013B53600F214FF0FF30FFF78EFFDB
:10221000054B00229A60044B07221A6000231846DF
:102220000837BD4680BD00BF10E000E080B582B039
:1022300000AF78607868FFF729FF00BF0837BD4618
:1022400080BD80B586B000AF0346B9607A60FB738D
:1022500000237B61FFF73EFF78617A68B96878698F
:10226000FFF78EFF024697F90F3011461846FFF729
:102270005DFF00BF1837BD4680BD80B582B000AF9E
:102280000346FB7197F907301846FFF731FF00BF8F
:102290000837BD4680BD80B582B000AF78607868F1
:1022A000FFF7A2FF034618460837BD4680BD80B53C
:1022B00084B000AF78607B689B6DFB60FFF7B6FE73
:1022C000B8607B6893F83530DBB2022B08D07B68AE
:1022D00080225A657B68002283F83420012352E073
:1022E0007B681B681A687B681B6822F016021A60FC
:1022F0007B681B685A697B681B6822F080025A6100
:102300007B681B6C002B03D17B689B6C002B07D078
:102310007B681B681A687B681B6822F008021A60D9
:102320007B681B681A687B681B6822F001021A60D0
:1023300013E0FFF77BFE0246BB68D31A052B0CD9CE
:102340007B6820225A657B68032283F835207B68EE
:10235000002283F83420032315E07B681B681B6888
:1023600003F00103002BE4D17B68DB6D3F229A4030
:10237000FB689A607B68012283F835207B68002225
:1023800083F83420002318461037BD4680BD80B442
:1023900083B000AF78607B6893F83530DBB2022BF6
:1023A00004D07B6880225A6501230CE07B680522FB
:1023B00083F835207B681B681A687B681B6822F0ED
:1023C00001021A60002318460C37BD465DF8047BF5
:1023D0007047000080B489B000AF78603960002396
:1023E0007B6100233B610023BB610023FB616BE148
:1023F0000122FB6902FA03F37B613B681B687A697F
:1024000013403B613A697B699A4240F05A813B68CC
:102410005B6803F00303012B05D03B685B6803F0A6
:102420000303022B30D17B689B68BB61FB695B00B7
:10243000032202FA03F3DB43BA691340BB613B6832
:10244000DA68FB695B0002FA03F3BA691343BB6104
:102450007B68BA699A607B685B68BB610122FB6933
:1024600002FA03F3DB43BA691340BB613B685B6864
:102470001B0903F00102FB6902FA03F3BA69134373
:10248000BB617B68BA695A603B685B6803F0030311
:10249000032B17D07B68DB68BB61FB695B00032201
:1024A00002FA03F3DB43BA691340BB613B689A68E5
:1024B000FB695B0002FA03F3BA691343BB617B68F3
:1024C000BA69DA603B685B6803F00303022B23D12F
:1024D000FB69DA087B68083253F82230BB61FB697C
:1024E00003F007039B000F2202FA03F3DB43BA69F0
:1024F0001340BB613B681A69FB6903F007039B004B
:1025000002FA03F3BA691343BB61FB69DA087B681B
:102510000832B96943F822107B681B68BB61FB690C
:102520005B00032202FA03F3DB43BA691340BB6189
:102530003B685B6803F00302FB695B0002FA03F38C
:10254000BA691343BB617B68BA691A603B685B6810
:1025500003F44033002B00F0B4800023FB60604B99
:102560005B6C5F4A43F4804353645D4B5B6C03F4E4
:102570008043FB60FB685B4AFB699B08023352F8AF
:102580002330BB61FB6903F003039B000F2202FAB7
:1025900003F3DB43BA691340BB617B68524A934241
:1025A0002BD07B68514A934225D07B68504A934296
:1025B0001FD07B684F4A934219D07B684E4A9342A2
:1025C00013D07B684D4A93420DD07B684C4A9342AE
:1025D00007D07B684B4A934201D107230EE00823C2
:1025E0000CE006230AE0052308E0042306E00323A9
:1025F00004E0022302E0012300E00023FA6902F074
:10260000030292009340BA691343BB613549FB69E9
:102610009B080233BA6941F823203B4B9B68BB619E
:102620003B69DB43BA691340BB613B685B6803F4F9
:102630008013002B03D0BA693B691343BB61324A54
:10264000BB699360304BDB68BB613B69DB43BA69B4
:102650001340BB613B685B6803F40013002B03D09D
:10266000BA693B691343BB61274ABB69D360264BF8
:102670005B68BB613B69DB43BA691340BB613B6884
:102680005B6803F40033002B03D0BA693B69134342
:10269000BB611D4ABB6953601B4B1B68BB613B6937
:1026A000DB43BA691340BB613B685B6803F480336A
:1026B000002B03D0BA693B691343BB61124ABB6963
:1026C0001360FB690133FB61FB690F2B7FF690AE52
:1026D00000BF00BF2437BD465DF8047B704700BFD4
:1026E000003802400038014000000240000402406F
:1026F00000080240000C024000100240001402409A
:1027000000180240001C0240003C014080B483B02D
:1027100000AF78600B467B8013467B707B78002B84
:1027200003D07A887B689A6103E07B881A047B680F
:102730009A6100BF0C37BD465DF8047B704780B4DA
:1027400085B000AF78600B467B807B685B69FB607F
:102750007A88FB6813401A04FB68D9437B880B40D6
:102760001A437B689A6100BF1437BD465DF8047B4D
:102770007047000080B584B000AF78607B68002BA4
:1027800001D101232BE17B6893F83D30DBB2002BB4
:1027900006D17B68002283F83C207868FFF776F941
:1027A0007B68242283F83D207B681B681A687B685D
:1027B0001B6822F001021A607B681B681A687B683C
:1027C0001B6842F400421A607B681B681A687B68C9
:1027D0001B6822F400421A6001F0BAFBF8607B68C3
:1027E0005B68814A934207D8FB68804A934294BF52
:1027F00001230023DBB206E0FB687D4A934294BFCD
:1028000001230023DBB2002B01D00123E7E0FB68AA
:10281000784AA2FB03239B0CBB607B681B685B6848
:1028200023F03F017B681B68BA680A435A607B68E3
:102830001B681B6A23F03F017B685B686A4A93420E
:1028400002D8BB68013309E0BB684FF4967202FB03
:1028500003F3694AA2FB03239B0901337A681268D8
:102860000B4313627B681B68DB6923F44F4222F041
:10287000FF027B685B685C498B4219D8FB68591E74
:102880007B685B685B00B1FBF3F3591C40F6FC739B
:102890000B40002B0AD0FB68591E7B685B685B000D
:1028A000B1FBF3F30133C3F30B0351E004234FE017
:1028B0007B689B68002B11D1FB68581E7B685968A8
:1028C0000B465B000B44B0FBF3F30133C3F30B0384
:1028D000002B0CBF01230023DBB212E0FB68581E63
:1028E0007B6859680B469B000B4499000B44B0FB76
:1028F000F3F30133C3F30B03002B0CBF01230023BD
:10290000DBB2002B01D0012322E07B689B68002B07
:102910000ED1FB68581E7B6859680B465B000B4460
:10292000B0FBF3F30133C3F30B0343F400430FE0B5
:10293000FB68581E7B6859680B469B000B44990046
:102940000B44B0FBF3F30133C3F30B0343F44043F5
:10295000796809681343CB617B681B681B6823F0A7
:10296000C0017B68DA697B681B6A1A437B681B6855
:102970000A431A607B681B689B6823F4034323F0B7
:10298000FF037A6811697A68D26811437A6812681D
:102990000B4393607B681B68DB6823F0FF017B6857
:1029A0005A697B689B691A437B681B680A43DA6033
:1029B0007B681B681A687B681B6842F001021A601A
:1029C0007B6800221A647B68202283F83D207B68A4
:1029D00000221A637B68002283F83E2000231846F9
:1029E0001037BD4680BD00BFA08601007F841E0059
:1029F000FF083D0083DE1B43D34D621080B588B0D5
:102A000002AFF8607A601A460B467B8113463B8121
:102A1000FFF70CFB7861FB6893F83D30DBB2202BAD
:102A200040F0E0807B690093192301227049F86827
:102A300000F058FC0346002B01D00223D3E0FB68D2
:102A400093F83C30012B01D10223CCE0FB6801223A
:102A500083F83C20FB681B681B6803F00103012B13
:102A600007D0FB681B681A68FB681B6842F001020C
:102A70001A60FB681B681A68FB681B6822F4006216
:102A80001A60FB68212283F83D20FB68102283F83E
:102A90003E20FB6800221A64FB687A685A62FB6871
:102AA0003A895A85FB685B8D9AB2FB681A85FB6888
:102AB000504ADA6279897B693A6AF86800F0C2FAAA
:102AC0000346002B01D001238DE000233B61FB680E
:102AD0001B685B693B61FB681B689B693B613B69E9
:102AE00066E07A69396AF86800F0D2FC0346002B88
:102AF0000DD0FB681B6C042B07D1FB681B681A68A0
:102B0000FB681B6842F400721A6001236BE0FB68EB
:102B10005B6A1A78FB681B681A61FB685B6A5A1C5F
:102B2000FB685A62FB685B8D9BB2013B9AB2FB6803
:102B30005A85FB681B8D013B9AB2FB681A85FB68BE
:102B40001B685B6903F00403042B1BD1FB681B8D1E
:102B5000002B17D0FB685B6A1A78FB681B681A6148
:102B6000FB685B6A5A1CFB685A62FB685B8D9BB210
:102B7000013B9AB2FB685A85FB681B8D013B9AB2F8
:102B8000FB681A857A69396AF86800F0C2FC034666
:102B9000002B0DD0FB681B6C042B07D1FB681B6856
:102BA0001A68FB681B6842F400721A6001231AE07D
:102BB000FB681B8D002B94D1FB681B681A68FB68AF
:102BC0001B6842F400721A60FB68202283F83D20E3
:102BD000FB68002283F83E20FB68002283F83C203B
:102BE000002300E0022318461837BD4680BD00BF11
:102BF000020010000000FFFF80B58CB002AFF8604B
:102C00007A601A460B467B8113463B81FFF70EFA2A
:102C10007862FB6893F83D30DBB2202B40F00B82EA
:102C20007B6A0093192301227C49F86800F05AFB63
:102C30000346002B01D00223FEE1FB6893F83C30F1
:102C4000012B01D10223F7E1FB68012283F83C202C
:102C5000FB681B681B6803F00103012B07D0FB68AE
:102C60001B681A68FB681B6842F001021A60FB6867
:102C70001B681A68FB681B6822F400621A60FB6814
:102C8000222283F83D20FB68102283F83E20FB6857
:102C900000221A64FB687A685A62FB683A895A858E
:102CA000FB685B8D9AB2FB681A85FB685C4ADA6246
:102CB00079897B6A3A6BF86800F046FA0346002B84
:102CC00001D00123B8E1FB681B8D002B13D1002339
:102CD0003B62FB681B685B693B62FB681B689B6926
:102CE0003B623B6AFB681B681A68FB681B6842F41E
:102CF00000721A608CE1FB681B8D012B1BD1FB68F5
:102D00001B681A68FB681B6822F480621A60002343
:102D1000FB61FB681B685B69FB61FB681B689B6967
:102D2000FB61FB69FB681B681A68FB681B6842F45F
:102D300000721A606CE1FB681B8D022B1BD1FB68D3
:102D40001B681A68FB681B6822F480621A60FB68C3
:102D50001B681A68FB681B6842F400621A60002353
:102D6000BB61FB681B685B69BB61FB681B689B6997
:102D7000BB61BB694CE1FB681B681A68FB681B6898
:102D800042F480621A6000237B61FB681B685B6908
:102D90007B61FB681B689B697B617B6938E1FB6831
:102DA0001B8D032B00F2F180FB681B8D012B23D1BF
:102DB0007A6A396BF86800F0EDFB0346002B01D00E
:102DC000012339E1FB681B681A69FB685B6AD2B2B0
:102DD0001A70FB685B6A5A1CFB685A62FB681B8DA1
:102DE000013B9AB2FB681A85FB685B8D9BB2013B85
:102DF0009AB2FB685A850BE1FB681B8D022B4ED102
:102E00007B6A00933B6B00220649F86800F06AFA7F
:102E10000346002B08D001230EE100BF0200100082
:102E20000000FFFF04000100FB681B681A68FB68D4
:102E30001B6842F400721A60FB681B681A69FB6821
:102E40005B6AD2B21A70FB685B6A5A1CFB685A62F2
:102E5000FB681B8D013B9AB2FB681A85FB685B8D92
:102E60009BB2013B9AB2FB685A85FB681B681A69E2
:102E7000FB685B6AD2B21A70FB685B6A5A1CFB681B
:102E80005A62FB681B8D013B9AB2FB681A85FB688E
:102E90005B8D9BB2013B9AB2FB685A85B8E07B6AB6
:102EA00000933B6B00226649F86800F01BFA03466A
:102EB000002B01D00123BFE0FB681B681A68FB6888
:102EC0001B6822F480621A60FB681B681A69FB6841
:102ED0005B6AD2B21A70FB685B6A5A1CFB685A6262
:102EE000FB681B8D013B9AB2FB681A85FB685B8D02
:102EF0009BB2013B9AB2FB685A857B6A00933B6B9D
:102F000000224F49F86800F0EDF90346002B01D08C
:102F1000012391E0FB681B681A68FB681B6842F498
:102F200000721A60FB681B681A69FB685B6AD2B2A0
:102F30001A70FB685B6A5A1CFB685A62FB681B8D3F
:102F4000013B9AB2FB681A85FB685B8D9BB2013B23
:102F50009AB2FB685A85FB681B681A69FB685B6A52
:102F6000D2B21A70FB685B6A5A1CFB685A62FB6833
:102F70001B8D013B9AB2FB681A85FB685B8D9BB287
:102F8000013B9AB2FB685A8542E07A6A396BF8686D
:102F900000F000FB0346002B01D001234CE0FB684E
:102FA0001B681A69FB685B6AD2B21A70FB685B6ABD
:102FB0005A1CFB685A62FB681B8D013B9AB2FB6886
:102FC0001A85FB685B8D9BB2013B9AB2FB685A8500
:102FD000FB681B685B6903F00403042B18D1FB68D2
:102FE0001B681A69FB685B6AD2B21A70FB685B6A7D
:102FF0005A1CFB685A62FB681B8D013B9AB2FB6846
:103000001A85FB685B8D9BB2013B9AB2FB685A85BF
:10301000FB681B8D002B7FF4C2AEFB68202283F877
:103020003D20FB68002283F83E20FB68002283F8E5
:103030003C20002300E0022318462837BD4680BD0F
:103040000400010080B588B002AFF8607A603B6090
:103050000B467B81FB68DB6A7B617B69082B06D0B2
:103060007B69012B03D07B6913F5803F08D1FB6896
:103070001B681A68FB681B6842F480721A600BE0D8
:10308000FB681B6B122B07D1FB681B681A68FB6877
:103090001B6842F480721A603B6800937B680022D0
:1030A0004FF00111F86800F01DF90346002B0DD018
:1030B000FB681B681B6803F48073B3F5807F03D142
:1030C000FB684FF400721A64032335E0FB681B6948
:1030D000B3F5804F08D17B89DBB21A46FB681B68C9
:1030E00002F0FE021A611BE07B89DB11DBB203F008
:1030F0000603DBB263F00F03DAB2FB681B681A61E8
:103100003B687A680E49F86800F043F90346002BE3
:1031100001D0012310E07B89DAB2FB681B681A61D9
:103120003B687A680749F86800F033F90346002BDA
:1031300001D0012300E0002318461837BD4680BDAA
:10314000080001000200010080B588B002AFF860FD
:103150007A603B600B467B81FB68DB6A7B61FB68C6
:103160001B681A68FB681B6842F480621A607B69FE
:10317000082B06D07B69012B03D07B6913F5803FB8
:1031800008D1FB681B681A68FB681B6842F48072F0
:103190001A600BE0FB681B6B112B07D1FB681B68E7
:1031A0001A68FB681B6842F480721A603B680093DF
:1031B0007B6800224FF00111F86800F093F8034695
:1031C000002B0DD0FB681B681B6803F48073B3F5FC
:1031D000807F03D1FB684FF400721A64032379E007
:1031E000FB681B69B3F5804F08D17B89DBB243F0E4
:1031F0000103DAB2FB681B681A615FE07B89DB11AF
:10320000DBB203F00603DBB263F00F03DAB2FB6854
:103210001B681A613B687A683049F86800F0B9F8B1
:103220000346002B01D0012354E07B89DAB2FB680E
:103230001B681A613B687A682949F86800F0A9F8A8
:103240000346002B01D0012344E000233B61FB68CF
:103250001B685B693B61FB681B689B693B613B6961
:10326000FB681B681A68FB681B6842F480721A606E
:103270003B6800937B6800224FF00111F86800F072
:1032800031F80346002B0DD0FB681B681B6803F464
:103290008073B3F5807F03D1FB684FF400721A642A
:1032A000032317E07B89DB11DBB203F00603DBB2FB
:1032B00063F00E03DAB2FB681B681A613B687A6838
:1032C0000749F86800F065F80346002B01D0012398
:1032D00000E0002318461837BD4680BD08000100F5
:1032E0000200010080B584B000AFF860B9603B60B7
:1032F0001346FB7125E03B68B3F1FF3F21D0FEF799
:1033000095FE0246BB69D31A3A689A4202D33B68DB
:10331000002B16D1FB6800221A63FB68202283F879
:103320003D20FB68002283F83E20FB681B6C43F0C5
:103330002002FB681A64FB68002283F83C2001230A
:1033400023E0BB681B0CDBB2012B0DD1FB681B68B3
:103350005B69DA43BB6813409BB2002B0CBF0123AF
:103360000023DBB21A460CE0FB681B689B69DA435A
:10337000BB6813409BB2002B0CBF01230023DBB2C0
:103380001A46FB799A42B6D0002318461037BD463C
:1033900080BD80B584B000AFF860B9607A603B60F2
:1033A00051E0FB681B685B6903F48063B3F5806FD1
:1033B00023D1FB681B681A68FB681B6842F4007223
:1033C0001A60FB681B686FF480625A61FB68002218
:1033D0001A63FB68202283F83D20FB68002283F8F3
:1033E0003E20FB681B6C43F00402FB681A64FB6818
:1033F000002283F83C20012346E07B68B3F1FF3FC5
:1034000021D0FEF713FE02463B68D31A7A689A422F
:1034100002D37B68002B16D1FB6800221A63FB687D
:10342000202283F83D20FB68002283F83E20FB68C1
:103430001B6C43F02002FB681A64FB68002283F8CF
:103440003C20012320E0BB681B0CDBB2012B0CD11C
:10345000FB681B685B69DA43BB6813409BB2002BB7
:1034600014BF01230023DBB20BE0FB681B689B69E0
:10347000DA43BB6813409BB2002B14BF0123002327
:10348000DBB2002B8DD1002318461037BD4680BD1E
:1034900080B584B000AFF860B9607A602DE0F8685C
:1034A00000F0CEF80346002B01D001232DE0BB68CD
:1034B000B3F1FF3F21D0FEF7B9FD02467B68D31A76
:1034C000BA689A4202D3BB68002B16D1FB6800226F
:1034D0001A63FB68202283F83D20FB68002283F8F2
:1034E0003E20FB681B6C43F02002FB681A64FB68FB
:1034F000002283F83C20012307E0FB681B685B691E
:1035000003F08003802BCAD1002318461037BD4634
:1035100080BD80B584B000AFF860B9607A602DE0FE
:10352000F86800F08DF80346002B01D001232DE050
:10353000BB68B3F1FF3F21D0FEF778FD02467B6800
:10354000D31ABA689A4202D3BB68002B16D1FB6823
:1035500000221A63FB68202283F83D20FB680022CA
:1035600083F83E20FB681B6C43F02002FB681A6462
:10357000FB68002283F83C20012307E0FB681B68FE
:103580005B6903F00403042BCAD1002318461037EB
:10359000BD4680BD80B584B000AFF860B9607A6088
:1035A00042E0FB681B685B6903F01003102B19D124
:1035B000FB681B686FF010025A61FB6800221A63F7
:1035C000FB68202283F83D20FB68002283F83E2020
:1035D000FB681A6CFB681A64FB68002283F83C20C5
:1035E000012329E0FEF722FD02467B68D31ABA6860
:1035F0009A4202D3BB68002B16D1FB6800221A63E3
:10360000FB68202283F83D20FB68002283F83E20DF
:10361000FB681B6C43F02002FB681A64FB68002205
:1036200083F83C20012307E0FB681B685B6903F01B
:103630004003402BB5D1002318461037BD4680BD4E
:1036400080B483B000AF78607B681B685B6903F46B
:103650008063B3F5806F1BD17B681B686FF4806259
:103660005A617B6800221A637B68202283F83D2020
:103670007B68002283F83E207B681B6C43F00402C9
:103680007B681A647B68002283F83C20012300E0F9
:10369000002318460C37BD465DF8047B70470000D8
:1036A00080B483B000AF064B01221A60054B1B6843
:1036B0007B607B6800BF0C37BD465DF8047B7047BC
:1036C00020000E420070004080B483B000AF064B73
:1036D00000221A60054B1B687B607B6800BF0C37BB
:1036E000BD465DF8047B704720000E42007000402C
:1036F00080B586B000AF78607B68002B01D10123D4
:1037000067E27B681B6803F00103002B75D0884BD0
:103710009B6803F00C03042B0CD0854B9B6803F0D3
:103720000C03082B12D1824B5B6803F48003B3F5C2
:10373000800F0BD17E4B1B6803F40033002B5BD052
:103740007B685B68002B57D1012342E27B685B6892
:10375000B3F5803F06D1764B1B68754A43F480333E
:1037600013601DE07B685B68B3F5A02F0CD1704B34
:103770001B686F4A43F4802313606D4B1B686C4ACF
:1037800043F4803313600BE0694B1B68684A23F4F1
:1037900080331360664B1B68654A23F480231360F3
:1037A0007B685B68002B13D0FEF740FC386108E0B3
:1037B000FEF73CFC02463B69D31A642B01D9032374
:1037C00007E25B4B1B6803F40033002BF0D014E0DE
:1037D000FEF72CFC386108E0FEF728FC02463B6946
:1037E000D31A642B01D90323F3E1514B1B6803F473
:1037F0000033002BF0D100E000BF7B681B6803F0B2
:103800000203002B63D04A4B9B6803F00C03002B90
:103810000BD0474B9B6803F00C03082B1CD1444B87
:103820005B6803F48003002B16D1414B1B6803F047
:103830000203002B05D07B68DB68012B01D001233C
:10384000C7E13B4B1B6823F0F8027B681B69DB0078
:10385000374913430B603AE07B68DB68002B20D0CC
:10386000344B01221A60FEF7E1FB386108E0FEF7F5
:10387000DDFB02463B69D31A022B01D90323A8E1E1
:103880002B4B1B6803F00203002BF0D0284B1B6866
:1038900023F0F8027B681B69DB00254913430B60AA
:1038A00015E0244B00221A60FEF7C0FB386108E0E7
:1038B000FEF7BCFB02463B69D31A022B01D9032356
:1038C00087E11B4B1B6803F00203002BF0D17B68E0
:1038D0001B6803F00803002B36D07B685B69002B64
:1038E00016D0154B01221A60FEF7A0FB386108E0E4
:1038F000FEF79CFB02463B69D31A022B01D9032336
:1039000067E10B4B5B6F03F00203002BF0D01BE071
:10391000094B00221A60FEF789FB38610EE0FEF7C2
:1039200085FB02463B69D31A022B07D9032350E1DA
:103930000038024000004742800E4742884B5B6FD0
:1039400003F00203002BEAD17B681B6803F0040339
:10395000002B00F097800023FB75814B1B6C03F05C
:103960008053002B0FD10023BB607D4B1B6C7C4A26
:1039700043F0805313647A4B1B6C03F08053BB609D
:10398000BB680123FB75774B1B6803F48073002B26
:1039900018D1744B1B68734A43F480731360FEF7AD
:1039A00045FB386108E0FEF741FB02463B69D31A4C
:1039B000022B01D903230CE16A4B1B6803F48073CB
:1039C000002BF0D07B689B68012B06D1644B1B6FEA
:1039D000634A43F0010313671CE07B689B68052B77
:1039E0000CD15F4B1B6F5E4A43F0040313675C4BC3
:1039F0001B6F5B4A43F0010313670BE0584B1B6FCF
:103A0000574A23F001031367554B1B6F544A23F0A9
:103A1000040313677B689B68002B15D0FEF706FB39
:103A200038610AE0FEF702FB02463B69D31A41F215
:103A30008832934201D90323CBE0494B1B6F03F03B
:103A40000203002BEED014E0FEF7F0FA38610AE032
:103A5000FEF7ECFA02463B69D31A41F288329342F0
:103A600001D90323B5E03E4B1B6F03F00203002B8B
:103A7000EED1FB7D012B05D1394B1B6C384A23F06D
:103A8000805313647B689B69002B00F0A180344B4A
:103A90009B6803F00C03082B5CD07B689B69022BAE
:103AA00041D1314B00221A60FEF7C0FA386108E0BC
:103AB000FEF7BCFA02463B69D31A022B01D9032355
:103AC00087E0274B1B6803F00073002BF0D17B6865
:103AD000DA697B681B6A1A437B685B6A9B011A433D
:103AE0007B689B6A5B08013B1B041A437B68DB6AAB
:103AF0001B061B4913434B601B4B01221A60FEF748
:103B000095FA386108E0FEF791FA02463B69D31A4C
:103B1000022B01D903235CE0114B1B6803F00073F7
:103B2000002BF0D054E0104B00221A60FEF77EFA12
:103B3000386108E0FEF77AFA02463B69D31A022B95
:103B400001D9032345E0064B1B6803F00073002BEB
:103B5000F0D13DE07B689B69012B07D1012338E060
:103B60000038024000700040600047421B4B5B6819
:103B7000FB607B689B69012B28D0FB6803F4800203
:103B80007B68DB699A4221D1FB6803F03F027B68C6
:103B90001B6A9A421AD1FA6847F6C07313407A68D2
:103BA000526A9201934211D1FB6803F440327B6860
:103BB0009B6A5B08013B1B049A4207D1FB6803F038
:103BC00070627B68DB6A1B069A4201D0012300E029
:103BD000002318461837BD4680BD00BF003802409C
:103BE00080B584B000AF786039607B68002B01D16C
:103BF0000123CCE0684B1B6803F007033A689A4244
:103C00000CD9654B3A68D2B21A70634B1B6803F04B
:103C100007033A689A4201D00123B8E07B681B6829
:103C200003F00203002B20D07B681B6803F0040321
:103C3000002B05D0594B9B68584A43F4E0539360DE
:103C40007B681B6803F00803002B05D0534B9B686F
:103C5000524A43F460439360504B9B6823F0F00258
:103C60007B689B684D4913438B607B681B6803F03E
:103C70000103002B44D07B685B68012B07D1474BC5
:103C80001B6803F40033002B19D101237FE07B680C
:103C90005B68022B03D07B685B68032B07D13F4B2B
:103CA0001B6803F00073002B09D101236FE03B4B2D
:103CB0001B6803F00203002B01D1012367E0374B9F
:103CC0009B6823F003027B685B68344913438B6075
:103CD000FEF7ACF9F8600AE0FEF7A8F90246FB68C7
:103CE000D31A41F28832934201D903234FE02B4B80
:103CF0009B6803F00C027B685B689B009A42EBD1E7
:103D0000254B1B6803F007033A689A420CD2224BFA
:103D10003A68D2B21A70204B1B6803F007033A6866
:103D20009A4201D0012332E07B681B6803F0040350
:103D3000002B08D0194B9B6823F4E0527B68DB68AA
:103D4000164913438B607B681B6803F00803002B44
:103D500009D0124B9B6823F460427B681B69DB002F
:103D60000E4913438B6000F021F802460B4B9B6811
:103D70001B0903F00F030A49CB5C22FA03F3094A3B
:103D80001360094B1B681846FEF70CF90023184610
:103D90001037BD4680BD00BF003C024000380240E5
:103DA0003C9B0008080000200C0000202DE9B04FCB
:103DB00090B000AF00237B630023FB6300233B63D1
:103DC0000023BB63594B9B6803F00C03082B0DD0F9
:103DD000082B00F2A180002B02D0042B03D09BE023
:103DE000534BBB639BE0534BBB6398E04F4B5B680B
:103DF00003F03F037B634D4B5B6803F48003002BB0
:103E000028D04A4B5B689B0900223B627A623B6A7E
:103E1000C3F308000021474B03FB01F2002300FB22
:103E200003F31344434AA0FB0212FA620A46BA6241
:103E3000FA6A1344FB627B6B0022BB61FA61D7E92B
:103E40000623D7E90A01FCF729FE02460B46134672
:103E5000FB6353E0354B5B689B0900223B617A6151
:103E60003B69C3F3080A4FF0000B52465B464FF024
:103E700000004FF00001590141EAD26150010246B1
:103E80000B46B2EB0A0863EB0B094FF000024FF050
:103E900000034FEA891343EA98634FEA8812B2EBB2
:103EA000080463EB09054FF000024FF00003EB003C
:103EB00043EA5473E20014461D4614EB0A033B60C8
:103EC00045EB0B037B604FF000024FF00003D7E996
:103ED000004529468B02214643EA915321468A0236
:103EE000104619467B6B0022BB60FA60D7E90223BB
:103EF000FCF7D4FD02460B461346FB630B4B5B6895
:103F00001B0C03F0030301335B003B63FA6B3B6B59
:103F1000B2FBF3F3BB6302E0054BBB6300BFBB6BBB
:103F200018464037BD46BDE8B08F00BF003802409C
:103F30000024F40040787D0180B400AF034B1B687F
:103F40001846BD465DF8047B704700BF080000209E
:103F500080B500AFFFF7F0FF0246054B9B689B0A58
:103F600003F007030349CB5C22FA03F3184680BD34
:103F7000003802404C9B000880B500AFFFF7DCFF23
:103F80000246054B9B685B0B03F007030349CB5CC0
:103F900022FA03F3184680BD003802404C9B00080B
:103FA00080B582B000AF78607B68002B01D101231F
:103FB00041E07B6893F83D30DBB2002B06D17B6893
:103FC000002283F83C207868FDF7A8FD7B68022278
:103FD00083F83D207B681A687B68043319461046D5
:103FE00000F00CFC7B68012283F846207B680122EC
:103FF00083F83E207B68012283F83F207B68012202
:1040000083F840207B68012283F841207B680122ED
:1040100083F842207B68012283F843207B680122D9
:1040200083F844207B68012283F845207B680122C5
:1040300083F83D20002318460837BD4680BD80B573
:1040400082B000AF78607B68002B01D1012341E092
:104050007B6893F83D30DBB2002B06D17B680022F1
:1040600083F83C20786800F039F87B68022283F8F6
:104070003D207B681A687B6804331946104600F0BF
:10408000BDFB7B68012283F846207B68012283F810
:104090003E207B68012283F83F207B68012283F861
:1040A00040207B68012283F841207B68012283F84D
:1040B00042207B68012283F843207B68012283F839
:1040C00044207B68012283F845207B68012283F825
:1040D0003D20002318460837BD4680BD80B483B01C
:1040E00000AF786000BF0C37BD465DF8047B7047B9
:1040F00080B584B000AF786039603B68002B09D18F
:104100007B6893F83E30DBB2012B14BF0123002300
:10411000DBB222E03B68042B09D17B6893F83F3087
:10412000DBB2012B14BF01230023DBB215E03B6897
:10413000082B09D17B6893F84030DBB2012B14BF08
:1041400001230023DBB208E07B6893F84130DBB247
:10415000012B14BF01230023DBB2002B01D001236C
:104160007CE03B68002B04D17B68022283F83E2070
:1041700013E03B68042B04D17B68022283F83F20C4
:104180000BE03B68082B04D17B68022283F84020B7
:1041900003E07B68022283F841207B681B680122D0
:1041A0003968184600F014FE7B681B682D4A93425C
:1041B00004D07B681B682C4A934201D1012300E0A4
:1041C0000023002B07D07B681B685A6C7B681B6838
:1041D00042F400425A647B681B68224A934222D010
:1041E0007B681B68B3F1804F1DD07B681B681F4A3A
:1041F000934218D07B681B681D4A934213D07B689A
:104200001B681C4A93420ED07B681B68164A934277
:1042100009D07B681B68184A934204D07B681B68EE
:10422000164A934211D17B681B689B6803F0070311
:10423000FB60FB68062B10D07B681B681A687B68E4
:104240001B6842F001021A6007E07B681B681A686D
:104250007B681B6842F001021A6000231846103781
:10426000BD4680BD00000140000401400004004044
:1042700000080040000C00400040014000180040D1
:1042800080B586B000AF786039607B68002B01D1C3
:10429000012397E07B6893F83D30DBB2002B06D119
:1042A0007B68002283F83C207868FDF795FC7B68EA
:1042B000022283F83D207B681B689B687A6812683D
:1042C00023F4804323F0070393607B681A687B68BC
:1042D00004331946104600F091FA7B681B689B680E
:1042E0007B617B681B689B693B617B681B681B6A01
:1042F000FB603B681B687A6913437B613B6923F46D
:10430000407323F003033B613B689A683B689B69F9
:104310001B0213433A6913433B613B6923F4406337
:1043200023F00C033B613B6923F4704323F0F0035B
:104330003B613B68DA683B68DB691B0213433A69FF
:1043400013433B613B681B691A013B681B6A1B03F3
:1043500013433A6913433B61FB6823F02203FB607C
:10436000FB6823F08803FB603B685A683B685B6925
:104370001B011343FA681343FB607B681B687A696F
:104380009A607B681B683A699A617B681B68FA6867
:104390001A627B68012283F846207B68012283F839
:1043A0003E207B68012283F83F207B68012283F84E
:1043B00042207B68012283F843207B68012283F836
:1043C0003D20002318461837BD4680BD80B584B017
:1043D00000AF786039607B6893F83E30FB737B6890
:1043E00093F83F30BB737B6893F842307B737B68F4
:1043F00093F843303B733B68002B10D1FB7B012BC0
:1044000002D17B7B012B01D0012369E07B68022272
:1044100083F83E207B68022283F8422031E03B682B
:10442000042B10D1BB7B012B02D13B7B012B01D094
:10443000012355E07B68022283F83F207B6802223B
:1044400083F843201DE0FB7B012B08D1BB7B012BB4
:1044500005D17B7B012B02D13B7B012B01D00123BA
:104460003EE07B68022283F83E207B68022283F8CC
:104470003F207B68022283F842207B68022283F877
:1044800043203B68002B03D03B68042B08D00FE08F
:104490007B681B6801220021184600F099FC16E099
:1044A0007B681B6801220421184600F091FC0EE095
:1044B0007B681B6801220021184600F089FC7B689C
:1044C0001B6801220421184600F082FC00BF7B68B3
:1044D0001B681A687B681B6842F001021A6000239F
:1044E00018461037BD4680BD80B586B000AFF86075
:1044F000B9607A600023FB75FB6893F83C30012BB0
:1045000001D10223AEE0FB68012283F83C207B68E6
:104510000C2B00F29F8001A252F823F051450008B5
:1045200055460008554600085546000891450008C4
:10453000554600085546000855460008D345000872
:104540005546000855460008554600081346000821
:10455000FB681B68B968184600F0F0F9FB681B6837
:104560009A69FB681B6842F008029A61FB681B6845
:104570009A69FB681B6822F004029A61FB681B6859
:104580009969BB681A69FB681B680A439A6164E011
:10459000FB681B68B968184600F040FAFB681B68A6
:1045A0009A69FB681B6842F400629A61FB681B68A9
:1045B0009A69FB681B6822F480629A61FB681B6839
:1045C0009969BB681B691A02FB681B680A439A61F8
:1045D00043E0FB681B68B968184600F095FAFB6871
:1045E0001B68DA69FB681B6842F00802DA61FB6845
:1045F0001B68DA69FB681B6822F00402DA61FB6859
:104600001B68D969BB681A69FB681B680A43DA61D1
:1046100023E0FB681B68B968184600F0E9FAFB68FC
:104620001B68DA69FB681B6842F40062DA61FB68A8
:104630001B68DA69FB681B6822F48062DA61FB6838
:104640001B68D969BB681B691A02FB681B680A43AF
:10465000DA6102E00123FB7500BFFB68002283F8EA
:104660003C20FB7D18461837BD4680BD80B584B020
:1046700000AF786039600023FB737B6893F83C30AF
:10468000012B01D10223B4E07B68012283F83C2096
:104690007B68022283F83D207B681B689B68BB60B7
:1046A000BB6823F07703BB60BB6823F47F43BB6028
:1046B0007B681B68BA689A603B681B68B3F5005F4B
:1046C0003ED0B3F5005F00F28780B3F5805F00F065
:1046D0008680B3F5805F7FD8702B1AD0702B7BD883
:1046E000602B50D0602B77D8502B3CD0502B73D8F8
:1046F000402B58D0402B6FD8302B64D0302B6BD848
:10470000202B60D0202B67D8002B5CD0102B5AD0E8
:1047100062E07B6818683B6899683B685A683B6848
:10472000DB6800F035FB7B681B689B68BB60BB687F
:1047300043F07703BB607B681B68BA689A604FE000
:104740007B6818683B6899683B685A683B68DB6817
:1047500000F01EFB7B681B689A687B681B6842F44C
:1047600080429A603CE07B6818683B6859683B6807
:10477000DB681A4600F092FA7B681B6850211846E5
:1047800000F0EBFA2CE07B6818683B6859683B68DE
:10479000DB681A4600F0B1FA7B681B686021184696
:1047A00000F0DBFA1CE07B6818683B6859683B68DE
:1047B000DB681A4600F072FA7B681B6840211846D5
:1047C00000F0CBFA0CE07B681A683B681B6819465E
:1047D000104600F0C2FA03E00123FB7300E000BFC3
:1047E0007B68012283F83D207B68002283F83C200F
:1047F000FB7B18461037BD4680BD000080B485B0F5
:1048000000AF786039607B681B68FB607B68404A5A
:10481000934213D07B68B3F1804F0FD07B683D4A41
:1048200093420BD07B683C4A934207D07B683B4A5B
:10483000934203D07B683A4A934208D1FB6823F045
:104840007003FB603B685B68FA681343FB607B683E
:104850002F4A93422BD07B68B3F1804F27D07B68DF
:104860002C4A934223D07B682B4A93421FD07B680B
:104870002A4A93421BD07B68294A934217D07B680F
:10488000284A934213D07B68274A93420FD07B6813
:10489000264A93420BD07B68254A934207D07B6817
:1048A000244A934203D07B68234A934208D1FB6891
:1048B00023F44073FB603B68DB68FA681343FB60DA
:1048C000FB6823F080023B685B691343FB607B68F5
:1048D000FA681A603B689A687B68DA623B681A6813
:1048E0007B689A627B680A4A934203D07B680C4AD1
:1048F000934203D13B681A697B681A637B68012283
:104900005A6100BF1437BD465DF8047B704700BF95
:10491000000001400004004000080040000C00407E
:1049200000040140004001400044014000480140B3
:1049300000180040001C00400020004080B487B0F8
:1049400000AF786039607B681B6A23F001027B68E6
:104950001A627B681B6A7B617B685B683B617B6872
:104960009B69FB60FB6823F07003FB60FB6823F02E
:104970000303FB603B681B68FA681343FB607B69B9
:1049800023F002037B613B689B687A6913437B6178
:104990007B68204A934203D07B681F4A93420CD124
:1049A0007B6923F008037B613B68DB687A6913430A
:1049B0007B617B6923F004037B617B68154A93422A
:1049C00003D07B68144A934211D13B6923F480736E
:1049D0003B613B6923F400733B613B685B693A6967
:1049E00013433B613B689B693A6913433B617B68B6
:1049F0003A695A607B68FA689A613B685A687B68D2
:104A00005A637B687A691A6200BF1C37BD465DF83D
:104A1000047B7047000001400004014080B487B06F
:104A200000AF786039607B681B6A23F010027B68F6
:104A30001A627B681B6A7B617B685B683B617B6891
:104A40009B69FB60FB6823F4E043FB60FB6823F495
:104A50004073FB603B681B681B02FA681343FB60F2
:104A60007B6923F020037B613B689B681B017A69AB
:104A700013437B617B68224A934203D07B68214ABF
:104A800093420DD17B6923F080037B613B68DB6837
:104A90001B017A6913437B617B6923F040037B61CF
:104AA0007B68174A934203D07B68164A934213D11E
:104AB0003B6923F480633B613B6923F400633B6102
:104AC0003B685B699B003A6913433B613B689B69A8
:104AD0009B003A6913433B617B683A695A607B6883
:104AE000FA689A613B685A687B689A637B687A695E
:104AF0001A6200BF1C37BD465DF8047B704700BFDB
:104B0000000001400004014080B487B000AF78602D
:104B100039607B681B6A23F480727B681A627B6849
:104B20001B6A7B617B685B683B617B68DB69FB6060
:104B3000FB6823F07003FB60FB6823F00303FB605A
:104B40003B681B68FA681343FB607B6923F40073BE
:104B50007B613B689B681B027A6913437B617B68BE
:104B6000214A934203D07B68204A93420DD17B694E
:104B700023F400637B613B68DB681B027A691343A3
:104B80007B617B6923F480637B617B68164A934277
:104B900003D07B68154A934213D13B6923F48053B9
:104BA0003B613B6923F400533B613B685B691B013C
:104BB0003A6913433B613B689B691B013A691343A4
:104BC0003B617B683A695A607B68FA68DA613B68E6
:104BD0005A687B68DA637B687A691A6200BF1C379F
:104BE000BD465DF8047B70470000014000040140B1
:104BF00080B487B000AF786039607B681B6A23F4AB
:104C000080527B681A627B681B6A3B617B685B68C9
:104C10007B617B68DB69FB60FB6823F4E043FB603E
:104C2000FB6823F44073FB603B681B681B02FA6857
:104C30001343FB603B6923F400533B613B689B6873
:104C40001B033A6913433B617B68124A934203D0CA
:104C50007B68114A934209D17B6923F480437B61CD
:104C60003B685B699B017A6913437B617B687A6966
:104C70005A607B68FA68DA613B685A687B681A6434
:104C80007B683A691A6200BF1C37BD465DF8047B39
:104C9000704700BF000001400004014080B487B0AD
:104CA00000AFF860B9607A60FB681B6A7B61FB68E3
:104CB0001B6A23F00102FB681A62FB689B693B6177
:104CC0003B6923F0F0033B617B681B013A691343A6
:104CD0003B617B6923F00A037B617A69BB681343FC
:104CE0007B61FB683A699A61FB687A691A6200BF66
:104CF0001C37BD465DF8047B704780B487B000AFB9
:104D0000F860B9607A60FB681B6A23F01002FB68E8
:104D10001A62FB689B697B61FB681B6A3B617B696C
:104D200023F470437B617B681B037A6913437B61C7
:104D30003B6923F0A0033B61BB681B013A69134345
:104D40003B61FB687A699A61FB683A691A6200BF45
:104D50001C37BD465DF8047B704780B485B000AF5A
:104D6000786039607B689B68FB60FB6823F07003A8
:104D7000FB603A68FB68134343F00703FB607B6802
:104D8000FA689A6000BF1437BD465DF8047B70472F
:104D900080B487B000AFF860B9607A603B60FB68B0
:104DA0009B687B617B6923F47F437B613B681A02CC
:104DB0007B681A43BB6813437A6913437B61FB68C2
:104DC0007A699A6000BF1C37BD465DF8047B704766
:104DD00080B487B000AFF860B9607A60BB6803F058
:104DE0001F03012202FA03F37B61FB681A6A7B69E5
:104DF000DB431A40FB681A62FB681A6ABB6803F05F
:104E00001F03796801FA03F31A43FB681A6200BFB3
:104E10001C37BD465DF8047B7047000080B485B048
:104E200000AF786039607B6893F83C30012B01D18A
:104E300002235AE07B68012283F83C207B6802222F
:104E400083F83D207B681B685B68FB607B681B68A0
:104E50009B68BB60FB6823F07003FB603B681B68CA
:104E6000FA681343FB607B681B68FA685A607B68CA
:104E70001B68214A934222D07B681B68B3F1804FA4
:104E80001DD07B681B681D4A934218D07B681B6845
:104E90001B4A934213D07B681B681A4A93420ED078
:104EA0007B681B68184A934209D07B681B68174AC5
:104EB000934204D07B681B68154A93420CD1BB68AF
:104EC00023F08003BB603B685B68BA681343BB6038
:104ED0007B681B68BA689A607B68012283F83D2072
:104EE0007B68002283F83C20002318461437BD4617
:104EF0005DF8047B704700BF0000014000040040E3
:104F000000080040000C0040000401400040014047
:104F10000018004080B485B000AF7860396000238D
:104F2000FB607B6893F83C30012B01D102233DE00C
:104F30007B68012283F83C20FB6823F0FF023B687A
:104F4000DB681343FB60FB6823F440723B689B689B
:104F50001343FB60FB6823F480623B685B68134388
:104F6000FB60FB6823F400623B681B681343FB6033
:104F7000FB6823F480523B681B691343FB60FB68AA
:104F800023F400523B685B691343FB60FB6823F426
:104F900080423B68DB691343FB607B681B68FA68EF
:104FA0005A647B68002283F83C200023184614379B
:104FB000BD465DF8047B704780B582B000AF786075
:104FC0007B68002B01D101233FE07B6893F83D30E3
:104FD000DBB2002B06D17B68002283F83C20786886
:104FE000FCF7CEFE7B68242283F83D207B681B689B
:104FF000DA687B681B6822F40052DA60786800F097
:10500000DFFC7B681B681A697B681B6822F490428E
:105010001A617B681B685A697B681B6822F02A0248
:105020005A617B681B68DA687B681B6842F400522F
:10503000DA607B6800221A647B68202283F83D20B6
:105040007B68202283F83E20002318460837BD469F
:1050500080BD80B584B000AFF860B9601346FB80B6
:10506000FB6893F83E30DBB2202B1DD1BB68002BD0
:1050700002D0FB88002B01D1012316E0FB6893F8D6
:105080003C30012B01D102230FE0FB68012283F8A1
:105090003C20FB6800221A63FB881A46B968F8684E
:1050A00000F0B6FA034600E0022318461037BD466A
:1050B00080BD000080B5BAB000AF78607B681B6827
:1050C0001B68C7F8E4307B681B68DB68C7F8E03012
:1050D0007B681B685B69C7F8DC300023C7F8D830F1
:1050E0000023C7F8D430D7F8E43003F00F03C7F833
:1050F000D830D7F8D830002B0FD1D7F8E43003F0F0
:105100002003002B09D0D7F8E03003F02003002B58
:1051100003D0786800F099FB56E2D7F8D830002B1E
:1051200000F0DE80D7F8DC3003F00103002B06D15D
:10513000D7F8E03003F49073002B00F0D180D7F85B
:10514000E43003F00103002B0BD0D7F8E03003F478
:105150008073002B05D07B681B6C43F001027B68D9
:105160001A64D7F8E43003F00403002B0BD0D7F80F
:10517000DC3003F00103002B05D07B681B6C43F08F
:1051800002027B681A64D7F8E43003F00203002BB4
:105190000BD0D7F8DC3003F00103002B05D07B687F
:1051A0001B6C43F004027B681A64D7F8E43003F008
:1051B0000803002B11D0D7F8E03003F02003002BB8
:1051C00005D1D7F8DC3003F00103002B05D07B6854
:1051D0001B6C43F008027B681A647B681B6C002B15
:1051E00000F0ED81D7F8E43003F02003002B08D065
:1051F000D7F8E03003F02003002B02D0786800F0ED
:1052000024FB7B681B685B6903F04003402B0CBFE9
:1052100001230023DBB2C7F8D4307B681B6C03F09A
:105220000803002B03D1D7F8D430002B4FD0786877
:1052300000F02CFA7B681B685B6903F04003402B8D
:1052400041D17B681B681433C7F89C30D7F89C3079
:1052500053E8003FC7F89830D7F8983023F0400360
:10526000C7F8D0307B681B681433D7F8D020C7F854
:10527000A820C7F8A430D7F8A410D7F8A82041E890
:105280000023C7F8A030D7F8A030002BD9D17B6815
:105290009B6B002B13D07B689B6B7D4A1A657B68E8
:1052A0009B6B1846FDF773F80346002B16D07B68FE
:1052B0009B6B1B6D7A68926B104698470EE078687E
:1052C00000F090F90AE0786800F08CF906E0786860
:1052D00000F088F97B6800221A6470E100BF6EE17B
:1052E0007B681B6B012B40F04A81D7F8E43003F058
:1052F0001003002B00F04381D7F8E03003F01003D7
:10530000002B00F03C810023BB607B681B681B689E
:10531000BB607B681B685B68BB60BB687B681B68A5
:105320005B6903F04003402B40F0B4807B689B6BCB
:105330001B685B68A7F8BE30B7F8BE30002B00F0E2
:1053400040817B689B8DB7F8BE209A4280F03981FE
:105350007B68B7F8BE20DA857B689B6BDB69B3F5A9
:10536000807F00F088807B681B680C33C7F888302A
:10537000D7F8883053E8003FC7F88430D7F8843036
:1053800023F48073C7F8B8307B681B680C33D7F8F8
:10539000B820C7F89420C7F89030D7F89010D7F805
:1053A000942041E80023C7F88C30D7F88C30002BCC
:1053B000D9D17B681B6814337B677B6F53E8003F50
:1053C0003B673B6F23F00103C7F8B4307B681B6871
:1053D0001433D7F8B420C7F88020FB67F96FD7F8EB
:1053E000802041E80023BB67BB6F002BE1D17B68C5
:1053F0001B6814333B663B6E53E8003FFB65FB6D57
:1054000023F04003C7F8B0307B681B681433D7F82B
:10541000B020FA66BB66B96EFA6E41E800237B667F
:105420007B6E002BE3D17B68202283F83E207B68D3
:1054300000221A637B681B680C33FB64FB6C53E827
:10544000003FBB64BB6C23F01003C7F8AC307B6833
:105450001B680C33D7F8AC20BA657B65796DBA6DE3
:1054600041E800233B653B6D002BE3D17B689B6BE0
:105470001846FCF71CFF7B689A8D7B68DB8D9BB21E
:10548000D31A9BB21946786800F0B6F899E000BFCD
:10549000535700087B689A8D7B68DB8D9BB2D31ACB
:1054A000A7F8CE307B68DB8D9BB2002B00F08B80A1
:1054B000B7F8CE30002B00F086807B681B680C3379
:1054C000BB63BB6B53E8003F7B637B6B23F4907340
:1054D000C7F8C8307B681B680C33D7F8C8207A64DB
:1054E0003B64396C7A6C41E80023FB63FB6B002B57
:1054F000E3D17B681B6814337B627B6A53E8003F0F
:105500003B623B6A23F00103C7F8C4307B681B6829
:105510001433D7F8C4203A63FB62F96A3A6B41E866
:105520000023BB62BB6A002BE3D17B68202283F897
:105530003E207B6800221A637B681B680C333B614A
:105540003B6953E8003FFB60FB6823F01003C7F89A
:10555000C0307B681B680C33D7F8C020FA61BB6190
:10556000B969FA6941E800237B617B69002BE3D1CB
:10557000B7F8CE301946786800F03EF823E0D7F847
:10558000E43003F08003002B09D0D7F8E03003F0BB
:105590008003002B03D0786800F0EFF814E0D7F810
:1055A000E43003F04003002B0ED0D7F8E03003F0D6
:1055B0004003002B08D0786800F02FF904E000BF0A
:1055C00002E000BF00E000BFE837BD4680BD00BF7D
:1055D00080B483B000AF786000BF0C37BD465DF883
:1055E000047B704780B483B000AF786000BF0C3795
:1055F000BD465DF8047B704780B483B000AF78602F
:105600000B467B8000BF0C37BD465DF8047B7047BE
:1056100080B485B000AFF860B9601346FB80FB68CA
:10562000BA689A62FB68FA889A85FB68FA88DA8514
:10563000FB6800221A64FB68222283F83E20FB6884
:10564000002283F83C20FB681B69002B07D0FB6815
:105650001B68DA68FB681B6842F48072DA60FB68DA
:105660001B685A69FB681B6842F001025A61FB68BB
:105670001B68DA68FB681B6842F02002DA600023CE
:1056800018461437BD465DF8047B704780B495B06A
:1056900000AF78607B681B680C337B637B6B53E8DF
:1056A000003F3B633B6B23F49073FB647B681B6898
:1056B0000C33FA6C3A64FB63F96B3A6C41E80023F3
:1056C000BB63BB6B002BE5D17B681B6814333B626B
:1056D0003B6A53E8003FFB61FB6923F00103BB64B5
:1056E0007B681B681433BA6CFA62BB62B96AFA6AE7
:1056F00041E800237B627B6A002BE5D17B681B6B52
:10570000012B19D17B681B680C33FB60FB6853E8E5
:10571000003FBB60BB6823F010037B647B681B68A1
:105720000C337A6CBA617B617969BA6941E800230C
:105730003B613B69002BE5D17B68202283F83E204A
:105740007B6800221A6300BF5437BD465DF8047BB6
:10575000704780B584B000AF78607B689B6BFB605E
:10576000FB680022DA85FB680022DA84F868FFF71C
:1057700039FF00BF1037BD4680BD80B485B000AF93
:1057800078607B6893F83D30DBB2212B3ED17B689B
:105790009B68B3F5805F14D17B681B69002B10D127
:1057A0007B681B6AFB60FB681B881A467B681B686A
:1057B000C2F308025A607B681B6A9A1C7B681A62F3
:1057C00008E07B681B6A591C7A6811621A787B684A
:1057D0001B685A607B68DB8C9BB2013B9BB27A688A
:1057E0001946D184002B0FD17B681B68DA687B686F
:1057F0001B6822F08002DA607B681B68DA687B68CD
:105800001B6842F04002DA60002300E002231846E1
:105810001437BD465DF8047B704780B582B000AF99
:1058200078607B681B68DA687B681B6822F040023E
:10583000DA607B68202283F83D207868FFF7C8FE95
:10584000002318460837BD4680BD80B58CB000AF38
:1058500078607B6893F83E30DBB2222B40F0AB805F
:105860007B689B68B3F5805F17D17B681B69002B51
:1058700013D10023FB627B689B6ABB627B681B6859
:105880005B689BB2C3F308039AB2BB6A1A807B6859
:105890009B6A9A1C7B689A6226E07B689B6AFB6223
:1058A0000023BB627B689B68B3F5805F07D07B6891
:1058B0009B68002B0AD17B681B69002B06D17B6893
:1058C0001B685B68DAB2FB6A1A7008E07B681B68C9
:1058D0005B68DBB203F07F03DAB2FB6A1A707B68A5
:1058E0009B6A5A1C7B689A627B68DB8D9BB2013B8A
:1058F0009BB27A681946D185002B5AD17B681B6808
:10590000DA687B681B6822F02002DA607B681B681B
:10591000DA687B681B6822F48072DA607B681B6837
:105920005A697B681B6822F001025A617B68202259
:1059300083F83E207B681B6B012B35D17B680022EE
:105940001A637B681B680C337B617B6953E8003FFB
:105950003B613B6923F010037B627B681B680C335F
:105960007A6A3A62FB61F9693A6A41E80023BB61ED
:10597000BB69002BE5D17B681B681B6803F0100333
:10598000102B0AD10023FB607B681B681B68FB603F
:105990007B681B685B68FB60FB687B689B8D1946B6
:1059A0007868FFF729FE02E07868FBF781FD0023A5
:1059B00002E0002300E0022318463037BD4680BDD8
:1059C0002DE9B04FC0B000AFC7F8F400D7F8F430FD
:1059D0001B681B6923F44050D7F8F430D968D7F816
:1059E000F4301A6840EA01031361D7F8F4309A687A
:1059F000D7F8F4301B691A43D7F8F4305B691A43BF
:105A0000D7F8F430DB691343C7F8F830D7F8F4302F
:105A10001B68DB6823F4164121F00C01D7F8F43041
:105A20001A68D7F8F8300B43D360D7F8F4301B6806
:105A30005B6923F44070D7F8F4309969D7F8F430F3
:105A40001A6840EA01035361D7F8F4301A688F4BA3
:105A50009A4205D0D7F8F4301A688D4B9A4204D197
:105A6000FEF78AFAC7F8FC0003E0FEF771FAC7F800
:105A7000FC00D7F8F430DB69B3F5004F40F00C813F
:105A8000D7F8FC300022C7F8E830C7F8EC20D7E997
:105A90003A4522462B469118B9655B41FB65D7E92B
:105AA0001623214612EB0108294643EB01094FF06A
:105AB00000024FF000034FEAC90343EA58734FEA6C
:105AC000C80290469946234618EB0303C7F8E03016
:105AD0002B4649EB0303C7F8E430D7F8F4305B6892
